{
  "address": "0x837555F8aACfD1c780ca9101695C0C8340BEa1a0",
  "abi": [
    {
      "inputs": [
        {
          "internalType": "string",
          "name": "uri",
          "type": "string"
        }
      ],
      "stateMutability": "nonpayable",
      "type": "constructor"
    },
    {
      "anonymous": false,
      "inputs": [
        {
          "indexed": true,
          "internalType": "address",
          "name": "account",
          "type": "address"
        },
        {
          "indexed": true,
          "internalType": "address",
          "name": "operator",
          "type": "address"
        },
        {
          "indexed": false,
          "internalType": "bool",
          "name": "approved",
          "type": "bool"
        }
      ],
      "name": "ApprovalForAll",
      "type": "event"
    },
    {
      "anonymous": false,
      "inputs": [
        {
          "indexed": true,
          "internalType": "address",
          "name": "previousOwner",
          "type": "address"
        },
        {
          "indexed": true,
          "internalType": "address",
          "name": "newOwner",
          "type": "address"
        }
      ],
      "name": "OwnershipTransferred",
      "type": "event"
    },
    {
      "anonymous": false,
      "inputs": [
        {
          "indexed": true,
          "internalType": "address",
          "name": "operator",
          "type": "address"
        },
        {
          "indexed": true,
          "internalType": "address",
          "name": "from",
          "type": "address"
        },
        {
          "indexed": true,
          "internalType": "address",
          "name": "to",
          "type": "address"
        },
        {
          "indexed": false,
          "internalType": "uint256[]",
          "name": "ids",
          "type": "uint256[]"
        },
        {
          "indexed": false,
          "internalType": "uint256[]",
          "name": "values",
          "type": "uint256[]"
        }
      ],
      "name": "TransferBatch",
      "type": "event"
    },
    {
      "anonymous": false,
      "inputs": [
        {
          "indexed": true,
          "internalType": "address",
          "name": "operator",
          "type": "address"
        },
        {
          "indexed": true,
          "internalType": "address",
          "name": "from",
          "type": "address"
        },
        {
          "indexed": true,
          "internalType": "address",
          "name": "to",
          "type": "address"
        },
        {
          "indexed": false,
          "internalType": "uint256",
          "name": "id",
          "type": "uint256"
        },
        {
          "indexed": false,
          "internalType": "uint256",
          "name": "value",
          "type": "uint256"
        }
      ],
      "name": "TransferSingle",
      "type": "event"
    },
    {
      "anonymous": false,
      "inputs": [
        {
          "indexed": false,
          "internalType": "string",
          "name": "value",
          "type": "string"
        },
        {
          "indexed": true,
          "internalType": "uint256",
          "name": "id",
          "type": "uint256"
        }
      ],
      "name": "URI",
      "type": "event"
    },
    {
      "inputs": [
        {
          "internalType": "address",
          "name": "account",
          "type": "address"
        },
        {
          "internalType": "uint256",
          "name": "id",
          "type": "uint256"
        }
      ],
      "name": "balanceOf",
      "outputs": [
        {
          "internalType": "uint256",
          "name": "",
          "type": "uint256"
        }
      ],
      "stateMutability": "view",
      "type": "function"
    },
    {
      "inputs": [
        {
          "internalType": "address[]",
          "name": "accounts",
          "type": "address[]"
        },
        {
          "internalType": "uint256[]",
          "name": "ids",
          "type": "uint256[]"
        }
      ],
      "name": "balanceOfBatch",
      "outputs": [
        {
          "internalType": "uint256[]",
          "name": "",
          "type": "uint256[]"
        }
      ],
      "stateMutability": "view",
      "type": "function"
    },
    {
      "inputs": [
        {
          "internalType": "address[]",
          "name": "addresses",
          "type": "address[]"
        }
      ],
      "name": "batchMint",
      "outputs": [],
      "stateMutability": "nonpayable",
      "type": "function"
    },
    {
      "inputs": [
        {
          "internalType": "address",
          "name": "account",
          "type": "address"
        },
        {
          "internalType": "address",
          "name": "operator",
          "type": "address"
        }
      ],
      "name": "isApprovedForAll",
      "outputs": [
        {
          "internalType": "bool",
          "name": "",
          "type": "bool"
        }
      ],
      "stateMutability": "view",
      "type": "function"
    },
    {
      "inputs": [],
      "name": "name",
      "outputs": [
        {
          "internalType": "string",
          "name": "",
          "type": "string"
        }
      ],
      "stateMutability": "view",
      "type": "function"
    },
    {
      "inputs": [],
      "name": "owner",
      "outputs": [
        {
          "internalType": "address",
          "name": "",
          "type": "address"
        }
      ],
      "stateMutability": "view",
      "type": "function"
    },
    {
      "inputs": [],
      "name": "preSaleIsActive",
      "outputs": [
        {
          "internalType": "bool",
          "name": "",
          "type": "bool"
        }
      ],
      "stateMutability": "view",
      "type": "function"
    },
    {
      "inputs": [],
      "name": "preSaleMaxSupply",
      "outputs": [
        {
          "internalType": "uint32",
          "name": "",
          "type": "uint32"
        }
      ],
      "stateMutability": "view",
      "type": "function"
    },
    {
      "inputs": [
        {
          "internalType": "uint8",
          "name": "v",
          "type": "uint8"
        },
        {
          "internalType": "bytes32",
          "name": "r",
          "type": "bytes32"
        },
        {
          "internalType": "bytes32",
          "name": "s",
          "type": "bytes32"
        },
        {
          "internalType": "uint32",
          "name": "count",
          "type": "uint32"
        }
      ],
      "name": "preSaleMint",
      "outputs": [],
      "stateMutability": "payable",
      "type": "function"
    },
    {
      "inputs": [],
      "name": "preSaleStart",
      "outputs": [
        {
          "internalType": "uint32",
          "name": "",
          "type": "uint32"
        }
      ],
      "stateMutability": "view",
      "type": "function"
    },
    {
      "inputs": [],
      "name": "publicSaleIsActive",
      "outputs": [
        {
          "internalType": "bool",
          "name": "",
          "type": "bool"
        }
      ],
      "stateMutability": "view",
      "type": "function"
    },
    {
      "inputs": [],
      "name": "publicSaleMaxSupply",
      "outputs": [
        {
          "internalType": "uint32",
          "name": "",
          "type": "uint32"
        }
      ],
      "stateMutability": "view",
      "type": "function"
    },
    {
      "inputs": [
        {
          "internalType": "uint32",
          "name": "count",
          "type": "uint32"
        }
      ],
      "name": "publicSaleMint",
      "outputs": [],
      "stateMutability": "payable",
      "type": "function"
    },
    {
      "inputs": [],
      "name": "publicSaleStart",
      "outputs": [
        {
          "internalType": "uint32",
          "name": "",
          "type": "uint32"
        }
      ],
      "stateMutability": "view",
      "type": "function"
    },
    {
      "inputs": [],
      "name": "renounceOwnership",
      "outputs": [],
      "stateMutability": "nonpayable",
      "type": "function"
    },
    {
      "inputs": [
        {
          "internalType": "address",
          "name": "from",
          "type": "address"
        },
        {
          "internalType": "address",
          "name": "to",
          "type": "address"
        },
        {
          "internalType": "uint256[]",
          "name": "ids",
          "type": "uint256[]"
        },
        {
          "internalType": "uint256[]",
          "name": "amounts",
          "type": "uint256[]"
        },
        {
          "internalType": "bytes",
          "name": "data",
          "type": "bytes"
        }
      ],
      "name": "safeBatchTransferFrom",
      "outputs": [],
      "stateMutability": "nonpayable",
      "type": "function"
    },
    {
      "inputs": [
        {
          "internalType": "address",
          "name": "from",
          "type": "address"
        },
        {
          "internalType": "address",
          "name": "to",
          "type": "address"
        },
        {
          "internalType": "uint256",
          "name": "id",
          "type": "uint256"
        },
        {
          "internalType": "uint256",
          "name": "amount",
          "type": "uint256"
        },
        {
          "internalType": "bytes",
          "name": "data",
          "type": "bytes"
        }
      ],
      "name": "safeTransferFrom",
      "outputs": [],
      "stateMutability": "nonpayable",
      "type": "function"
    },
    {
      "inputs": [
        {
          "internalType": "address",
          "name": "operator",
          "type": "address"
        },
        {
          "internalType": "bool",
          "name": "approved",
          "type": "bool"
        }
      ],
      "name": "setApprovalForAll",
      "outputs": [],
      "stateMutability": "nonpayable",
      "type": "function"
    },
    {
      "inputs": [
        {
          "internalType": "uint32",
          "name": "timestamp",
          "type": "uint32"
        }
      ],
      "name": "setPreSaleStart",
      "outputs": [],
      "stateMutability": "nonpayable",
      "type": "function"
    },
    {
      "inputs": [
        {
          "internalType": "uint32",
          "name": "timestamp",
          "type": "uint32"
        }
      ],
      "name": "setPublicSaleStart",
      "outputs": [],
      "stateMutability": "nonpayable",
      "type": "function"
    },
    {
      "inputs": [
        {
          "internalType": "address",
          "name": "addr",
          "type": "address"
        }
      ],
      "name": "setSignerAddress",
      "outputs": [],
      "stateMutability": "nonpayable",
      "type": "function"
    },
    {
      "inputs": [
        {
          "internalType": "string",
          "name": "uri",
          "type": "string"
        }
      ],
      "name": "setURI",
      "outputs": [],
      "stateMutability": "nonpayable",
      "type": "function"
    },
    {
      "inputs": [
        {
          "internalType": "bytes4",
          "name": "interfaceId",
          "type": "bytes4"
        }
      ],
      "name": "supportsInterface",
      "outputs": [
        {
          "internalType": "bool",
          "name": "",
          "type": "bool"
        }
      ],
      "stateMutability": "view",
      "type": "function"
    },
    {
      "inputs": [],
      "name": "symbol",
      "outputs": [
        {
          "internalType": "string",
          "name": "",
          "type": "string"
        }
      ],
      "stateMutability": "view",
      "type": "function"
    },
    {
      "inputs": [],
      "name": "totalSupply",
      "outputs": [
        {
          "internalType": "uint32",
          "name": "",
          "type": "uint32"
        }
      ],
      "stateMutability": "view",
      "type": "function"
    },
    {
      "inputs": [
        {
          "internalType": "address",
          "name": "newOwner",
          "type": "address"
        }
      ],
      "name": "transferOwnership",
      "outputs": [],
      "stateMutability": "nonpayable",
      "type": "function"
    },
    {
      "inputs": [],
      "name": "unitPrice",
      "outputs": [
        {
          "internalType": "uint256",
          "name": "",
          "type": "uint256"
        }
      ],
      "stateMutability": "view",
      "type": "function"
    },
    {
      "inputs": [
        {
          "internalType": "uint256",
          "name": "",
          "type": "uint256"
        }
      ],
      "name": "uri",
      "outputs": [
        {
          "internalType": "string",
          "name": "",
          "type": "string"
        }
      ],
      "stateMutability": "view",
      "type": "function"
    },
    {
      "inputs": [],
      "name": "withdraw",
      "outputs": [],
      "stateMutability": "payable",
      "type": "function"
    }
  ],
  "transactionHash": "0x69cd2ea4ebb135be3ca52f3414827eb5bc7c0fa37fc9ecd02e661f77b24219da",
  "args": [
    "https://ipfs.io/ipfs/QmQtN81i9eNrD3wxcr67scDpLvZDDXxbmAvNXMaZh3D6tB/"
  ],
  "solcInputHash": "55a2e1063dfebaa9b8ee6c007d72b52b",
  "bytecode": "0x608060405260038054600160a01b600160e01b0319166301868a3960c61b176001600160e01b031663061a2b8760e41b1790556004805473bc4f847004fa914f6fe82bea27a9dfbdbe2954016001600160a01b03199091161790553480156200006757600080fd5b5060405162002cc038038062002cc08339810160408190526200008a91620001c7565b806200009681620000b2565b50620000ab620000a5620000cb565b620000cf565b50620002e9565b8051620000c790600290602084019062000121565b5050565b3390565b600380546001600160a01b038381166001600160a01b0319831681179093556040519116919082907f8be0079c531659141344cd1fd0a4f28419497f9722a3daafe3b4186f6b6457e090600090a35050565b8280546200012f9062000296565b90600052602060002090601f0160209004810192826200015357600085556200019e565b82601f106200016e57805160ff19168380011785556200019e565b828001600101855582156200019e579182015b828111156200019e57825182559160200191906001019062000181565b50620001ac929150620001b0565b5090565b5b80821115620001ac5760008155600101620001b1565b60006020808385031215620001da578182fd5b82516001600160401b0380821115620001f1578384fd5b818501915085601f83011262000205578384fd5b8151818111156200021a576200021a620002d3565b604051601f8201601f1916810185018381118282101715620002405762000240620002d3565b604052818152838201850188101562000257578586fd5b8592505b818310156200027a57838301850151818401860152918401916200025b565b818311156200028b57858583830101525b979650505050505050565b600281046001821680620002ab57607f821691505b60208210811415620002cd57634e487b7160e01b600052602260045260246000fd5b50919050565b634e487b7160e01b600052604160045260246000fd5b6129c780620002f96000396000f3fe6080604052600436106101c15760003560e01c80634e1273f4116100f7578063a1dd2c0711610095578063e73faa2d11610064578063e73faa2d14610494578063e985e9c5146104a9578063f242432a146104c9578063f2fde38b146104e9576101c1565b8063a1dd2c071461042c578063a22cb46514610441578063cc21f48514610461578063d67b06c114610474576101c1565b80638da5cb5b116100d15780638da5cb5b146103c05780639039903c146103e257806395d89b4114610402578063a18116f114610417576101c1565b80634e1273f41461036b578063715018a614610398578063892f5f6f146103ad576101c1565b80630fcf2e75116101645780632eb2c2d61161013e5780632eb2c2d61461030e5780633360caa01461032e5780633ccfd60b1461034357806340fa89d91461034b576101c1565b80630fcf2e75146102cf57806318160ddd146102e45780631f0234d8146102f9576101c1565b8063046dc166116101a0578063046dc1661461024b57806306fdde031461026b5780630d5624b31461028d5780630e89341c146102af576101c1565b8062fdd58e146101c657806301ffc9a7146101fc57806302fe530514610229575b600080fd5b3480156101d257600080fd5b506101e66101e1366004611e41565b610509565b6040516101f39190612755565b60405180910390f35b34801561020857600080fd5b5061021c610217366004611f06565b610560565b6040516101f391906121cb565b34801561023557600080fd5b50610249610244366004611f3e565b6105a8565b005b34801561025757600080fd5b50610249610266366004611cb2565b6105f3565b34801561027757600080fd5b50610280610661565b6040516101f391906121f4565b34801561029957600080fd5b506102a2610685565b6040516101f3919061276c565b3480156102bb57600080fd5b506102806102ca366004611f84565b610698565b3480156102db57600080fd5b5061021c61072c565b3480156102f057600080fd5b506102a2610744565b34801561030557600080fd5b5061021c610757565b34801561031a57600080fd5b50610249610329366004611cfe565b61078f565b34801561033a57600080fd5b506102a26107ed565b610249610800565b34801561035757600080fd5b50610249610366366004611f9c565b6108ca565b34801561037757600080fd5b5061038b610386366004611ea5565b61092f565b6040516101f3919061218a565b3480156103a457600080fd5b50610249610a4f565b6102496103bb366004611f9c565b610a9a565b3480156103cc57600080fd5b506103d5610b68565b6040516101f391906120d5565b3480156103ee57600080fd5b506102496103fd366004611f9c565b610b77565b34801561040e57600080fd5b50610280610bf0565b34801561042357600080fd5b506102a2610c10565b34801561043857600080fd5b506102a2610c16565b34801561044d57600080fd5b5061024961045c366004611e07565b610c1c565b61024961046f366004611fb6565b610c2e565b34801561048057600080fd5b5061024961048f366004611e6a565b610d29565b3480156104a057600080fd5b506101e6610df5565b3480156104b557600080fd5b5061021c6104c4366004611ccc565b610e01565b3480156104d557600080fd5b506102496104e4366004611da4565b610e2f565b3480156104f557600080fd5b50610249610504366004611cb2565b610e86565b60006001600160a01b03831661053a5760405162461bcd60e51b8152600401610531906122ac565b60405180910390fd5b506000908152602081815260408083206001600160a01b03949094168352929052205490565b60006001600160e01b03198216636cdb3d1360e11b148061059157506001600160e01b031982166303a24d0760e21b145b806105a057506105a082610ef4565b90505b919050565b6105b0610f0d565b6001600160a01b03166105c1610b68565b6001600160a01b0316146105e75760405162461bcd60e51b815260040161053190612597565b6105f081610f11565b50565b6105fb610f0d565b6001600160a01b031661060c610b68565b6001600160a01b0316146106325760405162461bcd60e51b815260040161053190612597565b6004805473ffffffffffffffffffffffffffffffffffffffff19166001600160a01b0392909216919091179055565b60405180604001604052806008815260200167446f67654661636560c01b81525081565b600354600160c01b900463ffffffff1681565b6060600280546106a79061282a565b80601f01602080910402602001604051908101604052809291908181526020018280546106d39061282a565b80156107205780601f106106f557610100808354040283529160200191610720565b820191906000526020600020905b81548152906001019060200180831161070357829003601f168201915b50505050509050919050565b60035442600160e01b90910463ffffffff1611155b90565b600354600160a01b900463ffffffff1681565b60035460009042600160c01b90910463ffffffff161180159061078a575060035442600160e01b90910463ffffffff1610155b905090565b610797610f0d565b6001600160a01b0316856001600160a01b031614806107bd57506107bd856104c4610f0d565b6107d95760405162461bcd60e51b815260040161053190612470565b6107e68585858585610f24565b5050505050565b600354600160e01b900463ffffffff1681565b610808610f0d565b6001600160a01b0316610819610b68565b6001600160a01b03161461083f5760405162461bcd60e51b815260040161053190612597565b478061084a57600080fd5b6000336001600160a01b03168260405161086390610741565b60006040518083038185875af1925050503d80600081146108a0576040519150601f19603f3d011682016040523d82523d6000602084013e6108a5565b606091505b50509050806108c65760405162461bcd60e51b8152600401610531906125cc565b5050565b6108d2610f0d565b6001600160a01b03166108e3610b68565b6001600160a01b0316146109095760405162461bcd60e51b815260040161053190612597565b6003805463ffffffff909216600160c01b0263ffffffff60c01b19909216919091179055565b606081518351146109525760405162461bcd60e51b815260040161053190612683565b6000835167ffffffffffffffff81111561097c57634e487b7160e01b600052604160045260246000fd5b6040519080825280602002602001820160405280156109a5578160200160208202803683370190505b50905060005b8451811015610a4757610a0c8582815181106109d757634e487b7160e01b600052603260045260246000fd5b60200260200101518583815181106109ff57634e487b7160e01b600052603260045260246000fd5b6020026020010151610509565b828281518110610a2c57634e487b7160e01b600052603260045260246000fd5b6020908102919091010152610a4081612865565b90506109ab565b509392505050565b610a57610f0d565b6001600160a01b0316610a68610b68565b6001600160a01b031614610a8e5760405162461bcd60e51b815260040161053190612597565b610a9860006110f5565b565b610aa261072c565b610abe5760405162461bcd60e51b815260040161053190612386565b60008163ffffffff1611610ae45760405162461bcd60e51b8152600401610531906123bd565b600354610d0590610b03908390600160a01b900463ffffffff166127e3565b63ffffffff161115610b275760405162461bcd60e51b81526004016105319061254e565b610b3f63ffffffff82166701140bbd030c400061280b565b341015610b5e5760405162461bcd60e51b8152600401610531906123f4565b6105f03382611154565b6003546001600160a01b031690565b610b7f610f0d565b6001600160a01b0316610b90610b68565b6001600160a01b031614610bb65760405162461bcd60e51b815260040161053190612597565b6003805463ffffffff909216600160e01b027bffffffffffffffffffffffffffffffffffffffffffffffffffffffff909216919091179055565b60405180604001604052806004815260200163444f474560e01b81525081565b6103e881565b610d0581565b6108c6610c27610f0d565b8383611362565b610c36610757565b610c525760405162461bcd60e51b8152600401610531906124cd565b610c5d848484611405565b610c795760405162461bcd60e51b815260040161053190612603565b60008163ffffffff1611610c9f5760405162461bcd60e51b8152600401610531906123bd565b6003546103e890610cbe908390600160a01b900463ffffffff166127e3565b63ffffffff161115610ce25760405162461bcd60e51b81526004016105319061254e565b610cfa63ffffffff82166701140bbd030c400061280b565b341015610d195760405162461bcd60e51b8152600401610531906123f4565b610d233382611154565b50505050565b610d31610f0d565b6001600160a01b0316610d42610b68565b6001600160a01b031614610d685760405162461bcd60e51b815260040161053190612597565b8051600354610d0591610d8791600160a01b900463ffffffff166127cb565b1115610da55760405162461bcd60e51b81526004016105319061254e565b60005b81518110156108c657610de3828281518110610dd457634e487b7160e01b600052603260045260246000fd5b60200260200101516001611154565b80610ded81612865565b915050610da8565b6701140bbd030c400081565b6001600160a01b03918216600090815260016020908152604080832093909416825291909152205460ff1690565b610e37610f0d565b6001600160a01b0316856001600160a01b03161480610e5d5750610e5d856104c4610f0d565b610e795760405162461bcd60e51b81526004016105319061233d565b6107e685858585856114c1565b610e8e610f0d565b6001600160a01b0316610e9f610b68565b6001600160a01b031614610ec55760405162461bcd60e51b815260040161053190612597565b6001600160a01b038116610eeb5760405162461bcd60e51b8152600401610531906122f7565b6105f0816110f5565b6001600160e01b031981166301ffc9a760e01b14919050565b3390565b80516108c6906002906020840190611aa3565b8151835114610f455760405162461bcd60e51b8152600401610531906126cc565b6001600160a01b038416610f6b5760405162461bcd60e51b81526004016105319061242b565b6000610f75610f0d565b9050610f858187878787876110ed565b60005b8451811015611087576000858281518110610fb357634e487b7160e01b600052603260045260246000fd5b602002602001015190506000858381518110610fdf57634e487b7160e01b600052603260045260246000fd5b602090810291909101810151600084815280835260408082206001600160a01b038e16835290935291909120549091508181101561102f5760405162461bcd60e51b815260040161053190612504565b6000838152602081815260408083206001600160a01b038e8116855292528083208585039055908b1682528120805484929061106c9084906127cb565b925050819055505050508061108090612865565b9050610f88565b50846001600160a01b0316866001600160a01b0316826001600160a01b03167f4a39dc06d4c0dbc64b70af90fd698a233a518aa5d07e595d983b8c0526c8f7fb87876040516110d792919061219d565b60405180910390a46110ed818787878787611604565b505050505050565b600380546001600160a01b0383811673ffffffffffffffffffffffffffffffffffffffff19831681179093556040519116919082907f8be0079c531659141344cd1fd0a4f28419497f9722a3daafe3b4186f6b6457e090600090a35050565b60018163ffffffff1611156112eb5760008163ffffffff1667ffffffffffffffff81111561119257634e487b7160e01b600052604160045260246000fd5b6040519080825280602002602001820160405280156111bb578160200160208202803683370190505b50905060008263ffffffff1667ffffffffffffffff8111156111ed57634e487b7160e01b600052604160045260246000fd5b604051908082528060200260200182016040528015611216578160200160208202803683370190505b50905060005b8363ffffffff168163ffffffff1610156112c85760035461124b908290600160a01b900463ffffffff166127e3565b63ffffffff16838263ffffffff168151811061127757634e487b7160e01b600052603260045260246000fd5b6020026020010181815250506001828263ffffffff16815181106112ab57634e487b7160e01b600052603260045260246000fd5b6020908102919091010152806112c081612880565b91505061121c565b506112e484838360405180602001604052806000815250611712565b505061131f565b61131f82600360149054906101000a900463ffffffff1663ffffffff16600160405180602001604052806000815250611893565b80600360148282829054906101000a900463ffffffff1661134091906127e3565b92506101000a81548163ffffffff021916908363ffffffff1602179055505050565b816001600160a01b0316836001600160a01b031614156113945760405162461bcd60e51b81526004016105319061263a565b6001600160a01b0383811660008181526001602090815260408083209487168084529490915290819020805460ff1916851515179055517f17307eab39ab6107e8899845ad3d59bd9653f200f220920489ca2b5937696c31906113f89085906121cb565b60405180910390a3505050565b600080336040516020016114199190612087565b60405160208183030381529060405280519060200120905060018160405160200161144491906120a4565b604051602081830303815290604052805190602001208686866040516000815260200160405260405161147a94939291906121d6565b6020604051602081039080840390855afa15801561149c573d6000803e3d6000fd5b5050604051601f1901516004546001600160a01b039182169116149695505050505050565b6001600160a01b0384166114e75760405162461bcd60e51b81526004016105319061242b565b60006114f1610f0d565b905061151181878761150288611973565b61150b88611973565b876110ed565b6000848152602081815260408083206001600160a01b038a168452909152902054838110156115525760405162461bcd60e51b815260040161053190612504565b6000858152602081815260408083206001600160a01b038b811685529252808320878503905590881682528120805486929061158f9084906127cb565b92505081905550856001600160a01b0316876001600160a01b0316836001600160a01b03167fc3d58168c5ae7397731d063d5bbf3d657854427343f4c083240f7aacaa2d0f6288886040516115e592919061275e565b60405180910390a46115fb8288888888886119cc565b50505050505050565b611616846001600160a01b0316611a9d565b156110ed5760405163bc197c8160e01b81526001600160a01b0385169063bc197c819061164f90899089908890889088906004016120e9565b602060405180830381600087803b15801561166957600080fd5b505af1925050508015611699575060408051601f3d908101601f1916820190925261169691810190611f22565b60015b6116e2576116a56128d6565b806116b057506116ca565b8060405162461bcd60e51b815260040161053191906121f4565b60405162461bcd60e51b815260040161053190612207565b6001600160e01b0319811663bc197c8160e01b146115fb5760405162461bcd60e51b815260040161053190612264565b6001600160a01b0384166117385760405162461bcd60e51b815260040161053190612714565b81518351146117595760405162461bcd60e51b8152600401610531906126cc565b6000611763610f0d565b9050611774816000878787876110ed565b60005b845181101561182b578381815181106117a057634e487b7160e01b600052603260045260246000fd5b60200260200101516000808784815181106117cb57634e487b7160e01b600052603260045260246000fd5b602002602001015181526020019081526020016000206000886001600160a01b03166001600160a01b03168152602001908152602001600020600082825461181391906127cb565b9091555081905061182381612865565b915050611777565b50846001600160a01b031660006001600160a01b0316826001600160a01b03167f4a39dc06d4c0dbc64b70af90fd698a233a518aa5d07e595d983b8c0526c8f7fb878760405161187c92919061219d565b60405180910390a46107e681600087878787611604565b6001600160a01b0384166118b95760405162461bcd60e51b815260040161053190612714565b60006118c3610f0d565b90506118d58160008761150288611973565b6000848152602081815260408083206001600160a01b0389168452909152812080548592906119059084906127cb565b92505081905550846001600160a01b031660006001600160a01b0316826001600160a01b03167fc3d58168c5ae7397731d063d5bbf3d657854427343f4c083240f7aacaa2d0f62878760405161195c92919061275e565b60405180910390a46107e6816000878787876119cc565b604080516001808252818301909252606091600091906020808301908036833701905050905082816000815181106119bb57634e487b7160e01b600052603260045260246000fd5b602090810291909101015292915050565b6119de846001600160a01b0316611a9d565b156110ed5760405163f23a6e6160e01b81526001600160a01b0385169063f23a6e6190611a179089908990889088908890600401612147565b602060405180830381600087803b158015611a3157600080fd5b505af1925050508015611a61575060408051601f3d908101601f19168201909252611a5e91810190611f22565b60015b611a6d576116a56128d6565b6001600160e01b0319811663f23a6e6160e01b146115fb5760405162461bcd60e51b815260040161053190612264565b3b151590565b828054611aaf9061282a565b90600052602060002090601f016020900481019282611ad15760008555611b17565b82601f10611aea57805160ff1916838001178555611b17565b82800160010185558215611b17579182015b82811115611b17578251825591602001919060010190611afc565b50611b23929150611b27565b5090565b5b80821115611b235760008155600101611b28565b600067ffffffffffffffff831115611b5657611b566128ba565b611b69601f8401601f191660200161277d565b9050828152838383011115611b7d57600080fd5b828260208301376000602084830101529392505050565b80356001600160a01b03811681146105a357600080fd5b600082601f830112611bbb578081fd5b81356020611bd0611bcb836127a7565b61277d565b8281528181019085830183850287018401881015611bec578586fd5b855b85811015611c1157611bff82611b94565b84529284019290840190600101611bee565b5090979650505050505050565b600082601f830112611c2e578081fd5b81356020611c3e611bcb836127a7565b8281528181019085830183850287018401881015611c5a578586fd5b855b85811015611c1157813584529284019290840190600101611c5c565b600082601f830112611c88578081fd5b611c9783833560208501611b3c565b9392505050565b803563ffffffff811681146105a357600080fd5b600060208284031215611cc3578081fd5b611c9782611b94565b60008060408385031215611cde578081fd5b611ce783611b94565b9150611cf560208401611b94565b90509250929050565b600080600080600060a08688031215611d15578081fd5b611d1e86611b94565b9450611d2c60208701611b94565b9350604086013567ffffffffffffffff80821115611d48578283fd5b611d5489838a01611c1e565b94506060880135915080821115611d69578283fd5b611d7589838a01611c1e565b93506080880135915080821115611d8a578283fd5b50611d9788828901611c78565b9150509295509295909350565b600080600080600060a08688031215611dbb578081fd5b611dc486611b94565b9450611dd260208701611b94565b93506040860135925060608601359150608086013567ffffffffffffffff811115611dfb578182fd5b611d9788828901611c78565b60008060408385031215611e19578182fd5b611e2283611b94565b915060208301358015158114611e36578182fd5b809150509250929050565b60008060408385031215611e53578182fd5b611e5c83611b94565b946020939093013593505050565b600060208284031215611e7b578081fd5b813567ffffffffffffffff811115611e91578182fd5b611e9d84828501611bab565b949350505050565b60008060408385031215611eb7578182fd5b823567ffffffffffffffff80821115611ece578384fd5b611eda86838701611bab565b93506020850135915080821115611eef578283fd5b50611efc85828601611c1e565b9150509250929050565b600060208284031215611f17578081fd5b8135611c978161297b565b600060208284031215611f33578081fd5b8151611c978161297b565b600060208284031215611f4f578081fd5b813567ffffffffffffffff811115611f65578182fd5b8201601f81018413611f75578182fd5b611e9d84823560208401611b3c565b600060208284031215611f95578081fd5b5035919050565b600060208284031215611fad578081fd5b611c9782611c9e565b60008060008060808587031215611fcb578182fd5b843560ff81168114611fdb578283fd5b93506020850135925060408501359150611ff760608601611c9e565b905092959194509250565b6000815180845260208085019450808401835b8381101561203157815187529582019590820190600101612015565b509495945050505050565b60008151808452815b8181101561206157602081850181015186830182015201612045565b818111156120725782602083870101525b50601f01601f19169290920160200192915050565b60609190911b6bffffffffffffffffffffffff1916815260140190565b7f19457468657265756d205369676e6564204d6573736167653a0a3332000000008152601c810191909152603c0190565b6001600160a01b0391909116815260200190565b60006001600160a01b03808816835280871660208401525060a0604083015261211560a0830186612002565b82810360608401526121278186612002565b9050828103608084015261213b818561203c565b98975050505050505050565b60006001600160a01b03808816835280871660208401525084604083015283606083015260a0608083015261217f60a083018461203c565b979650505050505050565b600060208252611c976020830184612002565b6000604082526121b06040830185612002565b82810360208401526121c28185612002565b95945050505050565b901515815260200190565b93845260ff9290921660208401526040830152606082015260800190565b600060208252611c97602083018461203c565b60208082526034908201527f455243313135353a207472616e7366657220746f206e6f6e204552433131353560408201527f526563656976657220696d706c656d656e746572000000000000000000000000606082015260800190565b60208082526028908201527f455243313135353a204552433131353552656365697665722072656a656374656040820152676420746f6b656e7360c01b606082015260800190565b6020808252602b908201527f455243313135353a2062616c616e636520717565727920666f7220746865207a60408201526a65726f206164647265737360a81b606082015260800190565b60208082526026908201527f4f776e61626c653a206e6577206f776e657220697320746865207a65726f206160408201526564647265737360d01b606082015260800190565b60208082526029908201527f455243313135353a2063616c6c6572206973206e6f74206f776e6572206e6f7260408201526808185c1c1c9bdd995960ba1b606082015260800190565b6020808252601a908201527f5075626c69632073616c65206973206e6f74206163746976652e000000000000604082015260600190565b6020808252601d908201527f436f756e74206d7573742062652067726561746572207468616e20302e000000604082015260600190565b60208082526011908201527f4e6f7420656e6f7567682065746865722e000000000000000000000000000000604082015260600190565b60208082526025908201527f455243313135353a207472616e7366657220746f20746865207a65726f206164604082015264647265737360d81b606082015260800190565b60208082526032908201527f455243313135353a207472616e736665722063616c6c6572206973206e6f742060408201527f6f776e6572206e6f7220617070726f7665640000000000000000000000000000606082015260800190565b60208082526017908201527f5072652d73616c65206973206e6f74206163746976652e000000000000000000604082015260600190565b6020808252602a908201527f455243313135353a20696e73756666696369656e742062616c616e636520666f60408201526939103a3930b739b332b960b11b606082015260800190565b60208082526029908201527f436f756e74206578636565647320746865206d6178696d756d20616c6c6f7765604082015268321039bab838363c9760b91b606082015260800190565b6020808252818101527f4f776e61626c653a2063616c6c6572206973206e6f7420746865206f776e6572604082015260600190565b60208082526010908201527f5472616e73666572206661696c65642e00000000000000000000000000000000604082015260600190565b60208082526010908201527f4e6f742077686974656c69737465642e00000000000000000000000000000000604082015260600190565b60208082526029908201527f455243313135353a2073657474696e6720617070726f76616c20737461747573604082015268103337b91039b2b63360b91b606082015260800190565b60208082526029908201527f455243313135353a206163636f756e747320616e6420696473206c656e677468604082015268040dad2e6dac2e8c6d60bb1b606082015260800190565b60208082526028908201527f455243313135353a2069647320616e6420616d6f756e7473206c656e677468206040820152670dad2e6dac2e8c6d60c31b606082015260800190565b60208082526021908201527f455243313135353a206d696e7420746f20746865207a65726f206164647265736040820152607360f81b606082015260800190565b90815260200190565b918252602082015260400190565b63ffffffff91909116815260200190565b60405181810167ffffffffffffffff8111828210171561279f5761279f6128ba565b604052919050565b600067ffffffffffffffff8211156127c1576127c16128ba565b5060209081020190565b600082198211156127de576127de6128a4565b500190565b600063ffffffff808316818516808303821115612802576128026128a4565b01949350505050565b6000816000190483118215151615612825576128256128a4565b500290565b60028104600182168061283e57607f821691505b6020821081141561285f57634e487b7160e01b600052602260045260246000fd5b50919050565b6000600019821415612879576128796128a4565b5060010190565b600063ffffffff8083168181141561289a5761289a6128a4565b6001019392505050565b634e487b7160e01b600052601160045260246000fd5b634e487b7160e01b600052604160045260246000fd5b60e01c90565b600060443d10156128e657610741565b600481823e6308c379a06128fa82516128d0565b1461290457610741565b6040513d600319016004823e80513d67ffffffffffffffff81602484011181841117156129345750505050610741565b8284019250825191508082111561294e5750505050610741565b503d8301602082840101111561296657505050610741565b601f01601f1916810160200160405291505090565b6001600160e01b0319811681146105f057600080fdfea264697066735822122066cbd78d0aedf11df5a2134df7c689419957cd39e22ac730a96387a06000c4d864736f6c63430008000033",
  "devdoc": {
    "kind": "dev",
    "methods": {
      "balanceOf(address,uint256)": {
        "details": "See {IERC1155-balanceOf}. Requirements: - `account` cannot be the zero address."
      },
      "balanceOfBatch(address[],uint256[])": {
        "details": "See {IERC1155-balanceOfBatch}. Requirements: - `accounts` and `ids` must have the same length."
      },
      "isApprovedForAll(address,address)": {
        "details": "See {IERC1155-isApprovedForAll}."
      },
      "owner()": {
        "details": "Returns the address of the current owner."
      },
      "renounceOwnership()": {
        "details": "Leaves the contract without owner. It will not be possible to call `onlyOwner` functions anymore. Can only be called by the current owner. NOTE: Renouncing ownership will leave the contract without an owner, thereby removing any functionality that is only available to the owner."
      },
      "safeBatchTransferFrom(address,address,uint256[],uint256[],bytes)": {
        "details": "See {IERC1155-safeBatchTransferFrom}."
      },
      "safeTransferFrom(address,address,uint256,uint256,bytes)": {
        "details": "See {IERC1155-safeTransferFrom}."
      },
      "setApprovalForAll(address,bool)": {
        "details": "See {IERC1155-setApprovalForAll}."
      },
      "supportsInterface(bytes4)": {
        "details": "See {IERC165-supportsInterface}."
      },
      "transferOwnership(address)": {
        "details": "Transfers ownership of the contract to a new account (`newOwner`). Can only be called by the current owner."
      },
      "uri(uint256)": {
        "details": "See {IERC1155MetadataURI-uri}. This implementation returns the same URI for *all* token types. It relies on the token type ID substitution mechanism https://eips.ethereum.org/EIPS/eip-1155#metadata[defined in the EIP]. Clients calling this function must replace the `\\{id\\}` substring with the actual token type ID."
      }
    },
    "version": 1
  },
  "userdoc": {
    "kind": "user",
    "methods": {},
    "version": 1
  },
  "storageLayout": {
    "storage": [
      {
        "astId": 130,
        "contract": "contracts/nft.sol:DogeFace",
        "label": "_balances",
        "offset": 0,
        "slot": "0",
        "type": "t_mapping(t_uint256,t_mapping(t_address,t_uint256))"
      },
      {
        "astId": 136,
        "contract": "contracts/nft.sol:DogeFace",
        "label": "_operatorApprovals",
        "offset": 0,
        "slot": "1",
        "type": "t_mapping(t_address,t_mapping(t_address,t_bool))"
      },
      {
        "astId": 138,
        "contract": "contracts/nft.sol:DogeFace",
        "label": "_uri",
        "offset": 0,
        "slot": "2",
        "type": "t_string_storage"
      },
      {
        "astId": 7,
        "contract": "contracts/nft.sol:DogeFace",
        "label": "_owner",
        "offset": 0,
        "slot": "3",
        "type": "t_address"
      },
      {
        "astId": 1750,
        "contract": "contracts/nft.sol:DogeFace",
        "label": "totalSupply",
        "offset": 20,
        "slot": "3",
        "type": "t_uint32"
      },
      {
        "astId": 1756,
        "contract": "contracts/nft.sol:DogeFace",
        "label": "preSaleStart",
        "offset": 24,
        "slot": "3",
        "type": "t_uint32"
      },
      {
        "astId": 1762,
        "contract": "contracts/nft.sol:DogeFace",
        "label": "publicSaleStart",
        "offset": 28,
        "slot": "3",
        "type": "t_uint32"
      },
      {
        "astId": 1768,
        "contract": "contracts/nft.sol:DogeFace",
        "label": "signerAddress",
        "offset": 0,
        "slot": "4",
        "type": "t_address"
      }
    ],
    "types": {
      "t_address": {
        "encoding": "inplace",
        "label": "address",
        "numberOfBytes": "20"
      },
      "t_bool": {
        "encoding": "inplace",
        "label": "bool",
        "numberOfBytes": "1"
      },
      "t_mapping(t_address,t_bool)": {
        "encoding": "mapping",
        "key": "t_address",
        "label": "mapping(address => bool)",
        "numberOfBytes": "32",
        "value": "t_bool"
      },
      "t_mapping(t_address,t_mapping(t_address,t_bool))": {
        "encoding": "mapping",
        "key": "t_address",
        "label": "mapping(address => mapping(address => bool))",
        "numberOfBytes": "32",
        "value": "t_mapping(t_address,t_bool)"
      },
      "t_mapping(t_address,t_uint256)": {
        "encoding": "mapping",
        "key": "t_address",
        "label": "mapping(address => uint256)",
        "numberOfBytes": "32",
        "value": "t_uint256"
      },
      "t_mapping(t_uint256,t_mapping(t_address,t_uint256))": {
        "encoding": "mapping",
        "key": "t_uint256",
        "label": "mapping(uint256 => mapping(address => uint256))",
        "numberOfBytes": "32",
        "value": "t_mapping(t_address,t_uint256)"
      },
      "t_string_storage": {
        "encoding": "bytes",
        "label": "string",
        "numberOfBytes": "32"
      },
      "t_uint256": {
        "encoding": "inplace",
        "label": "uint256",
        "numberOfBytes": "32"
      },
      "t_uint32": {
        "encoding": "inplace",
        "label": "uint32",
        "numberOfBytes": "4"
      }
    }
  }
}