{
  "address": "0x4866834F0947617Ea3267363dc118b3356DF3181",
  "abi": [
    {
      "inputs": [
        {
          "internalType": "string",
          "name": "baseURI",
          "type": "string"
        },
        {
          "internalType": "address",
          "name": "_poolAddr",
          "type": "address"
        }
      ],
      "stateMutability": "nonpayable",
      "type": "constructor"
    },
    {
      "anonymous": false,
      "inputs": [
        {
          "indexed": true,
          "internalType": "address",
          "name": "owner",
          "type": "address"
        },
        {
          "indexed": true,
          "internalType": "address",
          "name": "approved",
          "type": "address"
        },
        {
          "indexed": true,
          "internalType": "uint256",
          "name": "tokenId",
          "type": "uint256"
        }
      ],
      "name": "Approval",
      "type": "event"
    },
    {
      "anonymous": false,
      "inputs": [
        {
          "indexed": true,
          "internalType": "address",
          "name": "owner",
          "type": "address"
        },
        {
          "indexed": true,
          "internalType": "address",
          "name": "operator",
          "type": "address"
        },
        {
          "indexed": false,
          "internalType": "bool",
          "name": "approved",
          "type": "bool"
        }
      ],
      "name": "ApprovalForAll",
      "type": "event"
    },
    {
      "anonymous": false,
      "inputs": [
        {
          "indexed": true,
          "internalType": "uint256",
          "name": "id",
          "type": "uint256"
        }
      ],
      "name": "CreatePenguin",
      "type": "event"
    },
    {
      "anonymous": false,
      "inputs": [
        {
          "indexed": true,
          "internalType": "address",
          "name": "previousOwner",
          "type": "address"
        },
        {
          "indexed": true,
          "internalType": "address",
          "name": "newOwner",
          "type": "address"
        }
      ],
      "name": "OwnershipTransferred",
      "type": "event"
    },
    {
      "anonymous": false,
      "inputs": [
        {
          "indexed": false,
          "internalType": "address",
          "name": "account",
          "type": "address"
        }
      ],
      "name": "Paused",
      "type": "event"
    },
    {
      "anonymous": false,
      "inputs": [
        {
          "indexed": false,
          "internalType": "address",
          "name": "addr",
          "type": "address"
        }
      ],
      "name": "PoolAddrSet",
      "type": "event"
    },
    {
      "anonymous": false,
      "inputs": [
        {
          "indexed": true,
          "internalType": "address",
          "name": "from",
          "type": "address"
        },
        {
          "indexed": true,
          "internalType": "address",
          "name": "to",
          "type": "address"
        },
        {
          "indexed": true,
          "internalType": "uint256",
          "name": "tokenId",
          "type": "uint256"
        }
      ],
      "name": "Transfer",
      "type": "event"
    },
    {
      "anonymous": false,
      "inputs": [
        {
          "indexed": false,
          "internalType": "address",
          "name": "account",
          "type": "address"
        }
      ],
      "name": "Unpaused",
      "type": "event"
    },
    {
      "inputs": [],
      "name": "MAX_ELEMENTS",
      "outputs": [
        {
          "internalType": "uint256",
          "name": "",
          "type": "uint256"
        }
      ],
      "stateMutability": "view",
      "type": "function"
    },
    {
      "inputs": [],
      "name": "PRICE",
      "outputs": [
        {
          "internalType": "uint256",
          "name": "",
          "type": "uint256"
        }
      ],
      "stateMutability": "view",
      "type": "function"
    },
    {
      "inputs": [
        {
          "internalType": "address",
          "name": "to",
          "type": "address"
        },
        {
          "internalType": "uint256",
          "name": "tokenId",
          "type": "uint256"
        }
      ],
      "name": "approve",
      "outputs": [],
      "stateMutability": "nonpayable",
      "type": "function"
    },
    {
      "inputs": [
        {
          "internalType": "address",
          "name": "owner",
          "type": "address"
        }
      ],
      "name": "balanceOf",
      "outputs": [
        {
          "internalType": "uint256",
          "name": "",
          "type": "uint256"
        }
      ],
      "stateMutability": "view",
      "type": "function"
    },
    {
      "inputs": [],
      "name": "baseTokenURI",
      "outputs": [
        {
          "internalType": "string",
          "name": "",
          "type": "string"
        }
      ],
      "stateMutability": "view",
      "type": "function"
    },
    {
      "inputs": [
        {
          "internalType": "uint256",
          "name": "tokenId",
          "type": "uint256"
        }
      ],
      "name": "burn",
      "outputs": [],
      "stateMutability": "nonpayable",
      "type": "function"
    },
    {
      "inputs": [
        {
          "internalType": "uint256",
          "name": "tokenId",
          "type": "uint256"
        }
      ],
      "name": "getApproved",
      "outputs": [
        {
          "internalType": "address",
          "name": "",
          "type": "address"
        }
      ],
      "stateMutability": "view",
      "type": "function"
    },
    {
      "inputs": [
        {
          "internalType": "address",
          "name": "owner",
          "type": "address"
        },
        {
          "internalType": "address",
          "name": "operator",
          "type": "address"
        }
      ],
      "name": "isApprovedForAll",
      "outputs": [
        {
          "internalType": "bool",
          "name": "",
          "type": "bool"
        }
      ],
      "stateMutability": "view",
      "type": "function"
    },
    {
      "inputs": [
        {
          "internalType": "uint256",
          "name": "_amount",
          "type": "uint256"
        }
      ],
      "name": "mint",
      "outputs": [],
      "stateMutability": "payable",
      "type": "function"
    },
    {
      "inputs": [],
      "name": "name",
      "outputs": [
        {
          "internalType": "string",
          "name": "",
          "type": "string"
        }
      ],
      "stateMutability": "view",
      "type": "function"
    },
    {
      "inputs": [],
      "name": "owner",
      "outputs": [
        {
          "internalType": "address",
          "name": "",
          "type": "address"
        }
      ],
      "stateMutability": "view",
      "type": "function"
    },
    {
      "inputs": [
        {
          "internalType": "uint256",
          "name": "tokenId",
          "type": "uint256"
        }
      ],
      "name": "ownerOf",
      "outputs": [
        {
          "internalType": "address",
          "name": "",
          "type": "address"
        }
      ],
      "stateMutability": "view",
      "type": "function"
    },
    {
      "inputs": [
        {
          "internalType": "bool",
          "name": "val",
          "type": "bool"
        }
      ],
      "name": "pause",
      "outputs": [],
      "stateMutability": "nonpayable",
      "type": "function"
    },
    {
      "inputs": [],
      "name": "paused",
      "outputs": [
        {
          "internalType": "bool",
          "name": "",
          "type": "bool"
        }
      ],
      "stateMutability": "view",
      "type": "function"
    },
    {
      "inputs": [
        {
          "internalType": "uint256",
          "name": "_count",
          "type": "uint256"
        }
      ],
      "name": "price",
      "outputs": [
        {
          "internalType": "uint256",
          "name": "",
          "type": "uint256"
        }
      ],
      "stateMutability": "pure",
      "type": "function"
    },
    {
      "inputs": [],
      "name": "renounceOwnership",
      "outputs": [],
      "stateMutability": "nonpayable",
      "type": "function"
    },
    {
      "inputs": [
        {
          "internalType": "address",
          "name": "from",
          "type": "address"
        },
        {
          "internalType": "address",
          "name": "to",
          "type": "address"
        },
        {
          "internalType": "uint256",
          "name": "tokenId",
          "type": "uint256"
        }
      ],
      "name": "safeTransferFrom",
      "outputs": [],
      "stateMutability": "nonpayable",
      "type": "function"
    },
    {
      "inputs": [
        {
          "internalType": "address",
          "name": "from",
          "type": "address"
        },
        {
          "internalType": "address",
          "name": "to",
          "type": "address"
        },
        {
          "internalType": "uint256",
          "name": "tokenId",
          "type": "uint256"
        },
        {
          "internalType": "bytes",
          "name": "_data",
          "type": "bytes"
        }
      ],
      "name": "safeTransferFrom",
      "outputs": [],
      "stateMutability": "nonpayable",
      "type": "function"
    },
    {
      "inputs": [
        {
          "internalType": "address",
          "name": "operator",
          "type": "address"
        },
        {
          "internalType": "bool",
          "name": "approved",
          "type": "bool"
        }
      ],
      "name": "setApprovalForAll",
      "outputs": [],
      "stateMutability": "nonpayable",
      "type": "function"
    },
    {
      "inputs": [
        {
          "internalType": "string",
          "name": "baseURI",
          "type": "string"
        }
      ],
      "name": "setBaseURI",
      "outputs": [],
      "stateMutability": "nonpayable",
      "type": "function"
    },
    {
      "inputs": [
        {
          "internalType": "address",
          "name": "_addr",
          "type": "address"
        }
      ],
      "name": "setStakingPool",
      "outputs": [],
      "stateMutability": "nonpayable",
      "type": "function"
    },
    {
      "inputs": [
        {
          "internalType": "uint256",
          "name": "_tokenId",
          "type": "uint256"
        }
      ],
      "name": "startStaking",
      "outputs": [],
      "stateMutability": "nonpayable",
      "type": "function"
    },
    {
      "inputs": [
        {
          "internalType": "uint256",
          "name": "_tokenId",
          "type": "uint256"
        }
      ],
      "name": "stopStaking",
      "outputs": [],
      "stateMutability": "nonpayable",
      "type": "function"
    },
    {
      "inputs": [
        {
          "internalType": "bytes4",
          "name": "interfaceId",
          "type": "bytes4"
        }
      ],
      "name": "supportsInterface",
      "outputs": [
        {
          "internalType": "bool",
          "name": "",
          "type": "bool"
        }
      ],
      "stateMutability": "view",
      "type": "function"
    },
    {
      "inputs": [],
      "name": "symbol",
      "outputs": [
        {
          "internalType": "string",
          "name": "",
          "type": "string"
        }
      ],
      "stateMutability": "view",
      "type": "function"
    },
    {
      "inputs": [
        {
          "internalType": "uint256",
          "name": "index",
          "type": "uint256"
        }
      ],
      "name": "tokenByIndex",
      "outputs": [
        {
          "internalType": "uint256",
          "name": "",
          "type": "uint256"
        }
      ],
      "stateMutability": "view",
      "type": "function"
    },
    {
      "inputs": [
        {
          "internalType": "address",
          "name": "owner",
          "type": "address"
        },
        {
          "internalType": "uint256",
          "name": "index",
          "type": "uint256"
        }
      ],
      "name": "tokenOfOwnerByIndex",
      "outputs": [
        {
          "internalType": "uint256",
          "name": "",
          "type": "uint256"
        }
      ],
      "stateMutability": "view",
      "type": "function"
    },
    {
      "inputs": [
        {
          "internalType": "uint256",
          "name": "tokenId",
          "type": "uint256"
        }
      ],
      "name": "tokenURI",
      "outputs": [
        {
          "internalType": "string",
          "name": "",
          "type": "string"
        }
      ],
      "stateMutability": "view",
      "type": "function"
    },
    {
      "inputs": [],
      "name": "totalSupply",
      "outputs": [
        {
          "internalType": "uint256",
          "name": "",
          "type": "uint256"
        }
      ],
      "stateMutability": "view",
      "type": "function"
    },
    {
      "inputs": [
        {
          "internalType": "address",
          "name": "from",
          "type": "address"
        },
        {
          "internalType": "address",
          "name": "to",
          "type": "address"
        },
        {
          "internalType": "uint256",
          "name": "tokenId",
          "type": "uint256"
        }
      ],
      "name": "transferFrom",
      "outputs": [],
      "stateMutability": "nonpayable",
      "type": "function"
    },
    {
      "inputs": [
        {
          "internalType": "address",
          "name": "newOwner",
          "type": "address"
        }
      ],
      "name": "transferOwnership",
      "outputs": [],
      "stateMutability": "nonpayable",
      "type": "function"
    },
    {
      "inputs": [
        {
          "internalType": "address",
          "name": "_owner",
          "type": "address"
        }
      ],
      "name": "walletOfOwner",
      "outputs": [
        {
          "internalType": "uint256[]",
          "name": "",
          "type": "uint256[]"
        }
      ],
      "stateMutability": "view",
      "type": "function"
    },
    {
      "inputs": [],
      "name": "withdraw",
      "outputs": [],
      "stateMutability": "payable",
      "type": "function"
    }
  ],
  "transactionHash": "0x885d42e39d3fb771a529398e71c831e715bfbe311e39de311825cb9a79868128",
  "args": [
    "https://ipfs.io/ipfs/QmQtN81i9eNrD3wxcr67scDpLvZDDXxbmAvNXMaZh3D6tB/",
    "0x6F84Fa72Ca4554E0eEFcB9032e5A4F1FB41b726C"
  ],
  "solcInputHash": "9c9948bac99adaf4e3bd3f807747fa6a",
  "bytecode": "0x60806040523480156200001157600080fd5b506040516200300c3803806200300c8339810160408190526200003491620003ed565b604080518082018252600881526750656e6775696e7360c01b602080830191825283518085019094526002845261504760f01b9084015281519192916200007e916000916200032a565b508051620000949060019060208401906200032a565b505050620000b1620000ab620000fc60201b60201c565b62000100565b600a805460ff60a01b19169055620000c98262000152565b620000d56001620001ba565b600b80546001600160a01b0319166001600160a01b039290921691909117905550620005ce565b3390565b600a80546001600160a01b038381166001600160a01b0319831681179093556040519116919082907f8be0079c531659141344cd1fd0a4f28419497f9722a3daafe3b4186f6b6457e090600090a35050565b6200015c620000fc565b6001600160a01b03166200016f62000229565b6001600160a01b031614620001a15760405162461bcd60e51b8152600401620001989062000546565b60405180910390fd5b8051620001b690600c9060208401906200032a565b5050565b620001c4620000fc565b6001600160a01b0316620001d762000229565b6001600160a01b031614620002005760405162461bcd60e51b8152600401620001989062000546565b600181151514156200021c576200021662000238565b62000226565b62000226620002b9565b50565b600a546001600160a01b031690565b620002426200031a565b15620002625760405162461bcd60e51b815260040162000198906200051c565b600a805460ff60a01b1916600160a01b1790557f62e78cea01bee320cd4e420270b5ea74000d11b0c9f74754ebdbfc544b05a258620002a0620000fc565b604051620002af9190620004d1565b60405180910390a1565b620002c36200031a565b620002e25760405162461bcd60e51b81526004016200019890620004e5565b600a805460ff60a01b191690557f5db9ee0a495bf2e6ff9c91a7834c1ba4fdd244a5e8aa4e537bd38aeae4b073aa620002a0620000fc565b600a54600160a01b900460ff1690565b82805462000338906200057b565b90600052602060002090601f0160209004810192826200035c5760008555620003a7565b82601f106200037757805160ff1916838001178555620003a7565b82800160010185558215620003a7579182015b82811115620003a75782518255916020019190600101906200038a565b50620003b5929150620003b9565b5090565b5b80821115620003b55760008155600101620003ba565b80516001600160a01b0381168114620003e857600080fd5b919050565b6000806040838503121562000400578182fd5b82516001600160401b038082111562000417578384fd5b818501915085601f8301126200042b578384fd5b815181811115620004405762000440620005b8565b6040516020601f8301601f1916820181018481118382101715620004685762000468620005b8565b60405282825284830181018910156200047f578687fd5b8693505b82841015620004a2578484018101518285018201529283019262000483565b82841115620004b357868184840101525b819650620004c3818901620003d0565b955050505050509250929050565b6001600160a01b0391909116815260200190565b60208082526014908201527f5061757361626c653a206e6f7420706175736564000000000000000000000000604082015260600190565b60208082526010908201526f14185d5cd8589b194e881c185d5cd95960821b604082015260600190565b6020808252818101527f4f776e61626c653a2063616c6c6572206973206e6f7420746865206f776e6572604082015260600190565b6002810460018216806200059057607f821691505b60208210811415620005b257634e487b7160e01b600052602260045260246000fd5b50919050565b634e487b7160e01b600052604160045260246000fd5b612a2e80620005de6000396000f3fe6080604052600436106101ee5760003560e01c80634f6ccce71161010d5780638da5cb5b116100a0578063b88d4fde1161006f578063b88d4fde14610542578063c87b56dd14610562578063d547cfb714610582578063e985e9c514610597578063f2fde38b146105b7576101ee565b80638da5cb5b146104e557806395d89b41146104fa578063a0712d681461050f578063a22cb46514610522576101ee565b806370a08231116100dc57806370a082311461047b578063715018a61461049b578063762b1c92146104b05780638d859f3e146104d0576101ee565b80634f6ccce71461040657806355f804b3146104265780635c975abb146104465780636352211e1461045b576101ee565b806326a49e37116101855780633ccfd60b116101545780633ccfd60b1461039157806342842e0e1461039957806342966c68146103b9578063438b6300146103d9576101ee565b806326a49e371461031c5780632f745c591461033c5780633028f63a1461035c5780633502a7161461037c576101ee565b8063095ea7b3116101c1578063095ea7b31461029a57806318160ddd146102ba5780631c760bdb146102dc57806323b872dd146102fc576101ee565b806301ffc9a7146101f357806302329a291461022957806306fdde031461024b578063081812fc1461026d575b600080fd5b3480156101ff57600080fd5b5061021361020e366004611fbe565b6105d7565b604051610220919061215f565b60405180910390f35b34801561023557600080fd5b50610249610244366004611fa4565b6105ea565b005b34801561025757600080fd5b50610260610655565b604051610220919061216a565b34801561027957600080fd5b5061028d61028836600461203c565b6106e7565b60405161022091906120b2565b3480156102a657600080fd5b506102496102b5366004611f7b565b61072a565b3480156102c657600080fd5b506102cf6107c2565b604051610220919061289f565b3480156102e857600080fd5b506102496102f736600461203c565b6107c8565b34801561030857600080fd5b50610249610317366004611e9e565b610857565b34801561032857600080fd5b506102cf61033736600461203c565b61088f565b34801561034857600080fd5b506102cf610357366004611f7b565b6108a3565b34801561036857600080fd5b50610249610377366004611e52565b6108f5565b34801561038857600080fd5b506102cf61098a565b610249610990565b3480156103a557600080fd5b506102496103b4366004611e9e565b610a5a565b3480156103c557600080fd5b506102496103d436600461203c565b610a75565b3480156103e557600080fd5b506103f96103f4366004611e52565b610af1565b604051610220919061211b565b34801561041257600080fd5b506102cf61042136600461203c565b610baf565b34801561043257600080fd5b50610249610441366004611ff6565b610c0a565b34801561045257600080fd5b50610213610c5c565b34801561046757600080fd5b5061028d61047636600461203c565b610c6c565b34801561048757600080fd5b506102cf610496366004611e52565b610ca1565b3480156104a757600080fd5b50610249610ce5565b3480156104bc57600080fd5b506102496104cb36600461203c565b610d30565b3480156104dc57600080fd5b506102cf610def565b3480156104f157600080fd5b5061028d610dfb565b34801561050657600080fd5b50610260610e0a565b61024961051d36600461203c565b610e19565b34801561052e57600080fd5b5061024961053d366004611f52565b610f4b565b34801561054e57600080fd5b5061024961055d366004611ed9565b610f5d565b34801561056e57600080fd5b5061026061057d36600461203c565b610f9c565b34801561058e57600080fd5b5061026061101f565b3480156105a357600080fd5b506102136105b2366004611e6c565b6110ad565b3480156105c357600080fd5b506102496105d2366004611e52565b6110db565b60006105e282611149565b90505b919050565b6105f261116e565b6001600160a01b0316610603610dfb565b6001600160a01b0316146106325760405162461bcd60e51b8152600401610629906125d8565b60405180910390fd5b6001811515141561064a57610645611172565b610652565b6106526111ea565b50565b60606000805461066490612936565b80601f016020809104026020016040519081016040528092919081815260200182805461069090612936565b80156106dd5780601f106106b2576101008083540402835291602001916106dd565b820191906000526020600020905b8154815290600101906020018083116106c057829003601f168201915b5050505050905090565b60006106f282611244565b61070e5760405162461bcd60e51b81526004016106299061258c565b506000908152600460205260409020546001600160a01b031690565b600061073582610c6c565b9050806001600160a01b0316836001600160a01b031614156107695760405162461bcd60e51b8152600401610629906126ea565b806001600160a01b031661077b61116e565b6001600160a01b031614806107975750610797816105b261116e565b6107b35760405162461bcd60e51b815260040161062990612445565b6107bd8383611261565b505050565b60085490565b600b5460405163060ee2eb60e21b81526001600160a01b039091169063183b8bac906107fa9033908590600401612102565b600060405180830381600087803b15801561081457600080fd5b505af1158015610828573d6000803e3d6000fd5b5050600b5460408051602081019091526000815261065293506001600160a01b039091169150339084906112cf565b61086861086261116e565b82611302565b6108845760405162461bcd60e51b815260040161062990612799565b6107bd838383611387565b60006105e26703782dace9d90000836114b4565b60006108ae83610ca1565b82106108cc5760405162461bcd60e51b8152600401610629906121ff565b506001600160a01b03919091166000908152600660209081526040808320938352929052205490565b6108fd61116e565b6001600160a01b031661090e610dfb565b6001600160a01b0316146109345760405162461bcd60e51b8152600401610629906125d8565b600b80546001600160a01b0319166001600160a01b0383161790556040517f6fc192a808b451a9a72be00d4f5c789c4d3822c8dca72d32238842f42974ab0d9061097f9083906120b2565b60405180910390a150565b6103e881565b61099861116e565b6001600160a01b03166109a9610dfb565b6001600160a01b0316146109cf5760405162461bcd60e51b8152600401610629906125d8565b47806109da57600080fd5b6000336001600160a01b0316826040516109f3906120af565b60006040518083038185875af1925050503d8060008114610a30576040519150601f19603f3d011682016040523d82523d6000602084013e610a35565b606091505b5050905080610a565760405162461bcd60e51b815260040161062990612762565b5050565b6107bd83838360405180602001604052806000815250610f5d565b610a7d610dfb565b6001600160a01b0316610a8e61116e565b6001600160a01b031614610ac157610aa4610c5c565b15610ac15760405162461bcd60e51b81526004016106299061240e565b610acc61086261116e565b610ae85760405162461bcd60e51b815260040161062990612842565b610652816114c0565b60606000610afe83610ca1565b905060008167ffffffffffffffff811115610b2957634e487b7160e01b600052604160045260246000fd5b604051908082528060200260200182016040528015610b52578160200160208202803683370190505b50905060005b82811015610ba757610b6a85826108a3565b828281518110610b8a57634e487b7160e01b600052603260045260246000fd5b602090810291909101015280610b9f81612971565b915050610b58565b509392505050565b6000610bb96107c2565b8210610bd75760405162461bcd60e51b8152600401610629906127f6565b60088281548110610bf857634e487b7160e01b600052603260045260246000fd5b90600052602060002001549050919050565b610c1261116e565b6001600160a01b0316610c23610dfb565b6001600160a01b031614610c495760405162461bcd60e51b8152600401610629906125d8565b8051610a5690600c906020840190611d22565b600a54600160a01b900460ff1690565b6000818152600260205260408120546001600160a01b0316806105e25760405162461bcd60e51b8152600401610629906124ec565b60006001600160a01b038216610cc95760405162461bcd60e51b8152600401610629906124a2565b506001600160a01b031660009081526003602052604090205490565b610ced61116e565b6001600160a01b0316610cfe610dfb565b6001600160a01b031614610d245760405162461bcd60e51b8152600401610629906125d8565b610d2e6000611567565b565b33610d3a82610c6c565b6001600160a01b031614610d605760405162461bcd60e51b81526004016106299061272b565b600b546040516367c18bfd60e11b81526001600160a01b039091169063cf8317fa90610d929033908590600401612102565b600060405180830381600087803b158015610dac57600080fd5b505af1158015610dc0573d6000803e3d6000fd5b5050600b5460408051602081019091526000815261065293503392506001600160a01b039091169084906112cf565b6703782dace9d9000081565b600a546001600160a01b031690565b60606001805461066490612936565b610e21610dfb565b6001600160a01b0316610e3261116e565b6001600160a01b031614610e6557610e48610c5c565b15610e655760405162461bcd60e51b81526004016106299061240e565b6000610e6f6107c2565b90506103e8610e7c6107c2565b10610e995760405162461bcd60e51b81526004016106299061256a565b6103e8610ea683836128a8565b1115610ec45760405162461bcd60e51b81526004016106299061239f565b610ecd8261088f565b341015610eec5760405162461bcd60e51b8152600401610629906126b3565b60005b828110156107bd576000610f016107c2565b9050610f0d33826115b9565b60405181907f645f26e653c951cec836533f8fe0616d301c20a17153debc17d7c3dbe4f32b2890600090a25080610f4381612971565b915050610eef565b610a56610f5661116e565b83836115d3565b610f6e610f6861116e565b83611302565b610f8a5760405162461bcd60e51b815260040161062990612799565b610f96848484846112cf565b50505050565b6060610fa782611244565b610fc35760405162461bcd60e51b815260040161062990612656565b6000610fcd611676565b90506000815111610fed5760405180602001604052806000815250611018565b80610ff784611685565b604051602001611008929190612080565b6040516020818303038152906040525b9392505050565b600c805461102c90612936565b80601f016020809104026020016040519081016040528092919081815260200182805461105890612936565b80156110a55780601f1061107a576101008083540402835291602001916110a5565b820191906000526020600020905b81548152906001019060200180831161108857829003601f168201915b505050505081565b6001600160a01b03918216600090815260056020908152604080832093909416825291909152205460ff1690565b6110e361116e565b6001600160a01b03166110f4610dfb565b6001600160a01b03161461111a5760405162461bcd60e51b8152600401610629906125d8565b6001600160a01b0381166111405760405162461bcd60e51b8152600401610629906122a7565b61065281611567565b60006001600160e01b0319821663780e9d6360e01b14806105e257506105e2826117b8565b3390565b61117a610c5c565b156111975760405162461bcd60e51b81526004016106299061240e565b600a805460ff60a01b1916600160a01b1790557f62e78cea01bee320cd4e420270b5ea74000d11b0c9f74754ebdbfc544b05a2586111d361116e565b6040516111e091906120b2565b60405180910390a1565b6111f2610c5c565b61120e5760405162461bcd60e51b8152600401610629906121c8565b600a805460ff60a01b191690557f5db9ee0a495bf2e6ff9c91a7834c1ba4fdd244a5e8aa4e537bd38aeae4b073aa6111d361116e565b6000908152600260205260409020546001600160a01b0316151590565b600081815260046020526040902080546001600160a01b0319166001600160a01b038416908117909155819061129682610c6c565b6001600160a01b03167f8c5be1e5ebec7d5bd14f71427d1e84f3dd0314c0f7b2291e5b200ac8c7c3b92560405160405180910390a45050565b6112da848484611387565b6112e6848484846117f8565b610f965760405162461bcd60e51b81526004016106299061224a565b600061130d82611244565b6113295760405162461bcd60e51b8152600401610629906123c2565b600061133483610c6c565b9050806001600160a01b0316846001600160a01b0316148061136f5750836001600160a01b0316611364846106e7565b6001600160a01b0316145b8061137f575061137f81856110ad565b949350505050565b826001600160a01b031661139a82610c6c565b6001600160a01b0316146113c05760405162461bcd60e51b81526004016106299061260d565b6001600160a01b0382166113e65760405162461bcd60e51b815260040161062990612324565b6113f1838383611913565b6113fc600082611261565b6001600160a01b03831660009081526003602052604081208054600192906114259084906128f3565b90915550506001600160a01b03821660009081526003602052604081208054600192906114539084906128a8565b909155505060008181526002602052604080822080546001600160a01b0319166001600160a01b0386811691821790925591518493918716917fddf252ad1be2c89b69c2b068fc378daa952ba7f163c4a11628f55a4df523b3ef91a4505050565b600061101882846128d4565b60006114cb82610c6c565b90506114d981600084611913565b6114e4600083611261565b6001600160a01b038116600090815260036020526040812080546001929061150d9084906128f3565b909155505060008281526002602052604080822080546001600160a01b0319169055518391906001600160a01b038416907fddf252ad1be2c89b69c2b068fc378daa952ba7f163c4a11628f55a4df523b3ef908390a45050565b600a80546001600160a01b038381166001600160a01b0319831681179093556040519116919082907f8be0079c531659141344cd1fd0a4f28419497f9722a3daafe3b4186f6b6457e090600090a35050565b610a5682826040518060200160405280600081525061196a565b816001600160a01b0316836001600160a01b031614156116055760405162461bcd60e51b815260040161062990612368565b6001600160a01b0383811660008181526005602090815260408083209487168084529490915290819020805460ff1916851515179055517f17307eab39ab6107e8899845ad3d59bd9653f200f220920489ca2b5937696c319061166990859061215f565b60405180910390a3505050565b6060600c805461066490612936565b6060816116aa57506040805180820190915260018152600360fc1b60208201526105e5565b8160005b81156116d457806116be81612971565b91506116cd9050600a836128c0565b91506116ae565b60008167ffffffffffffffff8111156116fd57634e487b7160e01b600052604160045260246000fd5b6040519080825280601f01601f191660200182016040528015611727576020820181803683370190505b5090505b841561137f5761173c6001836128f3565b9150611749600a8661298c565b6117549060306128a8565b60f81b81838151811061177757634e487b7160e01b600052603260045260246000fd5b60200101907effffffffffffffffffffffffffffffffffffffffffffffffffffffffffffff1916908160001a9053506117b1600a866128c0565b945061172b565b60006001600160e01b031982166380ac58cd60e01b14806117e957506001600160e01b03198216635b5e139f60e01b145b806105e257506105e28261199d565b600061180c846001600160a01b03166119b6565b1561190857836001600160a01b031663150b7a0261182861116e565b8786866040518563ffffffff1660e01b815260040161184a94939291906120c6565b602060405180830381600087803b15801561186457600080fd5b505af1925050508015611894575060408051601f3d908101601f1916820190925261189191810190611fda565b60015b6118ee573d8080156118c2576040519150601f19603f3d011682016040523d82523d6000602084013e6118c7565b606091505b5080516118e65760405162461bcd60e51b81526004016106299061224a565b805181602001fd5b6001600160e01b031916630a85bd0160e11b14905061137f565b506001949350505050565b61191e8383836119bc565b611926610dfb565b6001600160a01b031661193761116e565b6001600160a01b0316146107bd5761194d610c5c565b156107bd5760405162461bcd60e51b81526004016106299061217d565b6119748383611a45565b61198160008484846117f8565b6107bd5760405162461bcd60e51b81526004016106299061224a565b6001600160e01b031981166301ffc9a760e01b14919050565b3b151590565b6119c78383836107bd565b6001600160a01b0383166119e3576119de81611b24565b611a06565b816001600160a01b0316836001600160a01b031614611a0657611a068382611b68565b6001600160a01b038216611a2257611a1d81611c05565b6107bd565b826001600160a01b0316826001600160a01b0316146107bd576107bd8282611cde565b6001600160a01b038216611a6b5760405162461bcd60e51b815260040161062990612535565b611a7481611244565b15611a915760405162461bcd60e51b8152600401610629906122ed565b611a9d60008383611913565b6001600160a01b0382166000908152600360205260408120805460019290611ac69084906128a8565b909155505060008181526002602052604080822080546001600160a01b0319166001600160a01b03861690811790915590518392907fddf252ad1be2c89b69c2b068fc378daa952ba7f163c4a11628f55a4df523b3ef908290a45050565b600880546000838152600960205260408120829055600182018355919091527ff3f7a9fe364faab93b216da50a3214154f22a0a2b415b23a84c8169e8b636ee30155565b60006001611b7584610ca1565b611b7f91906128f3565b600083815260076020526040902054909150808214611bd2576001600160a01b03841660009081526006602090815260408083208584528252808320548484528184208190558352600790915290208190555b5060009182526007602090815260408084208490556001600160a01b039094168352600681528383209183525290812055565b600854600090611c17906001906128f3565b60008381526009602052604081205460088054939450909284908110611c4d57634e487b7160e01b600052603260045260246000fd5b906000526020600020015490508060088381548110611c7c57634e487b7160e01b600052603260045260246000fd5b6000918252602080832090910192909255828152600990915260408082208490558582528120556008805480611cc257634e487b7160e01b600052603160045260246000fd5b6001900381819060005260206000200160009055905550505050565b6000611ce983610ca1565b6001600160a01b039093166000908152600660209081526040808320868452825280832085905593825260079052919091209190915550565b828054611d2e90612936565b90600052602060002090601f016020900481019282611d505760008555611d96565b82601f10611d6957805160ff1916838001178555611d96565b82800160010185558215611d96579182015b82811115611d96578251825591602001919060010190611d7b565b50611da2929150611da6565b5090565b5b80821115611da25760008155600101611da7565b600067ffffffffffffffff80841115611dd657611dd66129cc565b604051601f8501601f191681016020018281118282101715611dfa57611dfa6129cc565b604052848152915081838501861015611e1257600080fd5b8484602083013760006020868301015250509392505050565b80356001600160a01b03811681146105e557600080fd5b803580151581146105e557600080fd5b600060208284031215611e63578081fd5b61101882611e2b565b60008060408385031215611e7e578081fd5b611e8783611e2b565b9150611e9560208401611e2b565b90509250929050565b600080600060608486031215611eb2578081fd5b611ebb84611e2b565b9250611ec960208501611e2b565b9150604084013590509250925092565b60008060008060808587031215611eee578081fd5b611ef785611e2b565b9350611f0560208601611e2b565b925060408501359150606085013567ffffffffffffffff811115611f27578182fd5b8501601f81018713611f37578182fd5b611f4687823560208401611dbb565b91505092959194509250565b60008060408385031215611f64578182fd5b611f6d83611e2b565b9150611e9560208401611e42565b60008060408385031215611f8d578182fd5b611f9683611e2b565b946020939093013593505050565b600060208284031215611fb5578081fd5b61101882611e42565b600060208284031215611fcf578081fd5b8135611018816129e2565b600060208284031215611feb578081fd5b8151611018816129e2565b600060208284031215612007578081fd5b813567ffffffffffffffff81111561201d578182fd5b8201601f8101841361202d578182fd5b61137f84823560208401611dbb565b60006020828403121561204d578081fd5b5035919050565b6000815180845261206c81602086016020860161290a565b601f01601f19169290920160200192915050565b6000835161209281846020880161290a565b8351908301906120a681836020880161290a565b01949350505050565b90565b6001600160a01b0391909116815260200190565b60006001600160a01b038087168352808616602084015250836040830152608060608301526120f86080830184612054565b9695505050505050565b6001600160a01b03929092168252602082015260400190565b6020808252825182820181905260009190848201906040850190845b8181101561215357835183529284019291840191600101612137565b50909695505050505050565b901515815260200190565b6000602082526110186020830184612054565b6020808252602b908201527f4552433732315061757361626c653a20746f6b656e207472616e73666572207760408201526a1a1a5b19481c185d5cd95960aa1b606082015260800190565b60208082526014908201527f5061757361626c653a206e6f7420706175736564000000000000000000000000604082015260600190565b6020808252602b908201527f455243373231456e756d657261626c653a206f776e657220696e646578206f7560408201526a74206f6620626f756e647360a81b606082015260800190565b60208082526032908201527f4552433732313a207472616e7366657220746f206e6f6e20455243373231526560408201527f63656976657220696d706c656d656e7465720000000000000000000000000000606082015260800190565b60208082526026908201527f4f776e61626c653a206e6577206f776e657220697320746865207a65726f206160408201526564647265737360d01b606082015260800190565b6020808252601c908201527f4552433732313a20746f6b656e20616c7265616479206d696e74656400000000604082015260600190565b60208082526024908201527f4552433732313a207472616e7366657220746f20746865207a65726f206164646040820152637265737360e01b606082015260800190565b60208082526019908201527f4552433732313a20617070726f766520746f2063616c6c657200000000000000604082015260600190565b60208082526009908201526813585e081b1a5b5a5d60ba1b604082015260600190565b6020808252602c908201527f4552433732313a206f70657261746f7220717565727920666f72206e6f6e657860408201526b34b9ba32b73a103a37b5b2b760a11b606082015260800190565b60208082526010908201527f5061757361626c653a2070617573656400000000000000000000000000000000604082015260600190565b60208082526038908201527f4552433732313a20617070726f76652063616c6c6572206973206e6f74206f7760408201527f6e6572206e6f7220617070726f76656420666f7220616c6c0000000000000000606082015260800190565b6020808252602a908201527f4552433732313a2062616c616e636520717565727920666f7220746865207a65604082015269726f206164647265737360b01b606082015260800190565b60208082526029908201527f4552433732313a206f776e657220717565727920666f72206e6f6e657869737460408201526832b73a103a37b5b2b760b91b606082015260800190565b6020808252818101527f4552433732313a206d696e7420746f20746865207a65726f2061646472657373604082015260600190565b60208082526008908201526714d85b1948195b9960c21b604082015260600190565b6020808252602c908201527f4552433732313a20617070726f76656420717565727920666f72206e6f6e657860408201526b34b9ba32b73a103a37b5b2b760a11b606082015260800190565b6020808252818101527f4f776e61626c653a2063616c6c6572206973206e6f7420746865206f776e6572604082015260600190565b60208082526029908201527f4552433732313a207472616e73666572206f6620746f6b656e2074686174206960408201526839903737ba1037bbb760b91b606082015260800190565b6020808252602f908201527f4552433732314d657461646174613a2055524920717565727920666f72206e6f60408201527f6e6578697374656e7420746f6b656e0000000000000000000000000000000000606082015260800190565b60208082526011908201527f56616c75652062656c6f77207072696365000000000000000000000000000000604082015260600190565b60208082526021908201527f4552433732313a20617070726f76616c20746f2063757272656e74206f776e656040820152603960f91b606082015260800190565b6020808252601a908201527f5374616b696e673a206f776e6572206e6f74206d617463686564000000000000604082015260600190565b60208082526010908201527f5472616e73666572206661696c65642e00000000000000000000000000000000604082015260600190565b60208082526031908201527f4552433732313a207472616e736665722063616c6c6572206973206e6f74206f60408201527f776e6572206e6f7220617070726f766564000000000000000000000000000000606082015260800190565b6020808252602c908201527f455243373231456e756d657261626c653a20676c6f62616c20696e646578206f60408201526b7574206f6620626f756e647360a01b606082015260800190565b60208082526030908201527f4552433732314275726e61626c653a2063616c6c6572206973206e6f74206f7760408201527f6e6572206e6f7220617070726f76656400000000000000000000000000000000606082015260800190565b90815260200190565b600082198211156128bb576128bb6129a0565b500190565b6000826128cf576128cf6129b6565b500490565b60008160001904831182151516156128ee576128ee6129a0565b500290565b600082821015612905576129056129a0565b500390565b60005b8381101561292557818101518382015260200161290d565b83811115610f965750506000910152565b60028104600182168061294a57607f821691505b6020821081141561296b57634e487b7160e01b600052602260045260246000fd5b50919050565b6000600019821415612985576129856129a0565b5060010190565b60008261299b5761299b6129b6565b500690565b634e487b7160e01b600052601160045260246000fd5b634e487b7160e01b600052601260045260246000fd5b634e487b7160e01b600052604160045260246000fd5b6001600160e01b03198116811461065257600080fdfea2646970667358221220df487c066d64a556500d0c1cf8ff77593cf701291b3369b3201c7c26ed4c3b4e64736f6c63430008000033",
  "devdoc": {
    "kind": "dev",
    "methods": {
      "approve(address,uint256)": {
        "details": "See {IERC721-approve}."
      },
      "balanceOf(address)": {
        "details": "See {IERC721-balanceOf}."
      },
      "getApproved(uint256)": {
        "details": "See {IERC721-getApproved}."
      },
      "isApprovedForAll(address,address)": {
        "details": "See {IERC721-isApprovedForAll}."
      },
      "mint(uint256)": {
        "details": "Mint the _amount of tokens",
        "params": {
          "_amount": "is the token count"
        }
      },
      "name()": {
        "details": "See {IERC721Metadata-name}."
      },
      "owner()": {
        "details": "Returns the address of the current owner."
      },
      "ownerOf(uint256)": {
        "details": "See {IERC721-ownerOf}."
      },
      "paused()": {
        "details": "Returns true if the contract is paused, and false otherwise."
      },
      "renounceOwnership()": {
        "details": "Leaves the contract without owner. It will not be possible to call `onlyOwner` functions anymore. Can only be called by the current owner. NOTE: Renouncing ownership will leave the contract without an owner, thereby removing any functionality that is only available to the owner."
      },
      "safeTransferFrom(address,address,uint256)": {
        "details": "See {IERC721-safeTransferFrom}."
      },
      "safeTransferFrom(address,address,uint256,bytes)": {
        "details": "See {IERC721-safeTransferFrom}."
      },
      "setApprovalForAll(address,bool)": {
        "details": "See {IERC721-setApprovalForAll}."
      },
      "setBaseURI(string)": {
        "details": "set the _baseTokenURI",
        "params": {
          "baseURI": "of the _baseTokenURI"
        }
      },
      "supportsInterface(bytes4)": {
        "details": "See {IERC165-supportsInterface}."
      },
      "symbol()": {
        "details": "See {IERC721Metadata-symbol}."
      },
      "tokenByIndex(uint256)": {
        "details": "See {IERC721Enumerable-tokenByIndex}."
      },
      "tokenOfOwnerByIndex(address,uint256)": {
        "details": "See {IERC721Enumerable-tokenOfOwnerByIndex}."
      },
      "tokenURI(uint256)": {
        "details": "See {IERC721Metadata-tokenURI}."
      },
      "totalSupply()": {
        "details": "See {IERC721Enumerable-totalSupply}."
      },
      "transferFrom(address,address,uint256)": {
        "details": "See {IERC721-transferFrom}."
      },
      "transferOwnership(address)": {
        "details": "Transfers ownership of the contract to a new account (`newOwner`). Can only be called by the current owner."
      }
    },
    "version": 1
  },
  "userdoc": {
    "kind": "user",
    "methods": {},
    "version": 1
  },
  "storageLayout": {
    "storage": [
      {
        "astId": 222,
        "contract": "contracts/nft.sol:Penguins",
        "label": "_name",
        "offset": 0,
        "slot": "0",
        "type": "t_string_storage"
      },
      {
        "astId": 224,
        "contract": "contracts/nft.sol:Penguins",
        "label": "_symbol",
        "offset": 0,
        "slot": "1",
        "type": "t_string_storage"
      },
      {
        "astId": 228,
        "contract": "contracts/nft.sol:Penguins",
        "label": "_owners",
        "offset": 0,
        "slot": "2",
        "type": "t_mapping(t_uint256,t_address)"
      },
      {
        "astId": 232,
        "contract": "contracts/nft.sol:Penguins",
        "label": "_balances",
        "offset": 0,
        "slot": "3",
        "type": "t_mapping(t_address,t_uint256)"
      },
      {
        "astId": 236,
        "contract": "contracts/nft.sol:Penguins",
        "label": "_tokenApprovals",
        "offset": 0,
        "slot": "4",
        "type": "t_mapping(t_uint256,t_address)"
      },
      {
        "astId": 242,
        "contract": "contracts/nft.sol:Penguins",
        "label": "_operatorApprovals",
        "offset": 0,
        "slot": "5",
        "type": "t_mapping(t_address,t_mapping(t_address,t_bool))"
      },
      {
        "astId": 1206,
        "contract": "contracts/nft.sol:Penguins",
        "label": "_ownedTokens",
        "offset": 0,
        "slot": "6",
        "type": "t_mapping(t_address,t_mapping(t_uint256,t_uint256))"
      },
      {
        "astId": 1210,
        "contract": "contracts/nft.sol:Penguins",
        "label": "_ownedTokensIndex",
        "offset": 0,
        "slot": "7",
        "type": "t_mapping(t_uint256,t_uint256)"
      },
      {
        "astId": 1213,
        "contract": "contracts/nft.sol:Penguins",
        "label": "_allTokens",
        "offset": 0,
        "slot": "8",
        "type": "t_array(t_uint256)dyn_storage"
      },
      {
        "astId": 1217,
        "contract": "contracts/nft.sol:Penguins",
        "label": "_allTokensIndex",
        "offset": 0,
        "slot": "9",
        "type": "t_mapping(t_uint256,t_uint256)"
      },
      {
        "astId": 7,
        "contract": "contracts/nft.sol:Penguins",
        "label": "_owner",
        "offset": 0,
        "slot": "10",
        "type": "t_address"
      },
      {
        "astId": 122,
        "contract": "contracts/nft.sol:Penguins",
        "label": "_paused",
        "offset": 20,
        "slot": "10",
        "type": "t_bool"
      },
      {
        "astId": 2492,
        "contract": "contracts/nft.sol:Penguins",
        "label": "_pool",
        "offset": 0,
        "slot": "11",
        "type": "t_contract(IStakingPool)2480"
      },
      {
        "astId": 2500,
        "contract": "contracts/nft.sol:Penguins",
        "label": "baseTokenURI",
        "offset": 0,
        "slot": "12",
        "type": "t_string_storage"
      }
    ],
    "types": {
      "t_address": {
        "encoding": "inplace",
        "label": "address",
        "numberOfBytes": "20"
      },
      "t_array(t_uint256)dyn_storage": {
        "base": "t_uint256",
        "encoding": "dynamic_array",
        "label": "uint256[]",
        "numberOfBytes": "32"
      },
      "t_bool": {
        "encoding": "inplace",
        "label": "bool",
        "numberOfBytes": "1"
      },
      "t_contract(IStakingPool)2480": {
        "encoding": "inplace",
        "label": "contract IStakingPool",
        "numberOfBytes": "20"
      },
      "t_mapping(t_address,t_bool)": {
        "encoding": "mapping",
        "key": "t_address",
        "label": "mapping(address => bool)",
        "numberOfBytes": "32",
        "value": "t_bool"
      },
      "t_mapping(t_address,t_mapping(t_address,t_bool))": {
        "encoding": "mapping",
        "key": "t_address",
        "label": "mapping(address => mapping(address => bool))",
        "numberOfBytes": "32",
        "value": "t_mapping(t_address,t_bool)"
      },
      "t_mapping(t_address,t_mapping(t_uint256,t_uint256))": {
        "encoding": "mapping",
        "key": "t_address",
        "label": "mapping(address => mapping(uint256 => uint256))",
        "numberOfBytes": "32",
        "value": "t_mapping(t_uint256,t_uint256)"
      },
      "t_mapping(t_address,t_uint256)": {
        "encoding": "mapping",
        "key": "t_address",
        "label": "mapping(address => uint256)",
        "numberOfBytes": "32",
        "value": "t_uint256"
      },
      "t_mapping(t_uint256,t_address)": {
        "encoding": "mapping",
        "key": "t_uint256",
        "label": "mapping(uint256 => address)",
        "numberOfBytes": "32",
        "value": "t_address"
      },
      "t_mapping(t_uint256,t_uint256)": {
        "encoding": "mapping",
        "key": "t_uint256",
        "label": "mapping(uint256 => uint256)",
        "numberOfBytes": "32",
        "value": "t_uint256"
      },
      "t_string_storage": {
        "encoding": "bytes",
        "label": "string",
        "numberOfBytes": "32"
      },
      "t_uint256": {
        "encoding": "inplace",
        "label": "uint256",
        "numberOfBytes": "32"
      }
    }
  }
}