{
  "address": "0x03B8C83DdC214d1dA065c17c2418aaab182bF985",
  "abi": [
    {
      "inputs": [
        {
          "internalType": "string",
          "name": "baseURI",
          "type": "string"
        },
        {
          "internalType": "address",
          "name": "_poolAddr",
          "type": "address"
        }
      ],
      "stateMutability": "nonpayable",
      "type": "constructor"
    },
    {
      "anonymous": false,
      "inputs": [
        {
          "indexed": true,
          "internalType": "address",
          "name": "owner",
          "type": "address"
        },
        {
          "indexed": true,
          "internalType": "address",
          "name": "approved",
          "type": "address"
        },
        {
          "indexed": true,
          "internalType": "uint256",
          "name": "tokenId",
          "type": "uint256"
        }
      ],
      "name": "Approval",
      "type": "event"
    },
    {
      "anonymous": false,
      "inputs": [
        {
          "indexed": true,
          "internalType": "address",
          "name": "owner",
          "type": "address"
        },
        {
          "indexed": true,
          "internalType": "address",
          "name": "operator",
          "type": "address"
        },
        {
          "indexed": false,
          "internalType": "bool",
          "name": "approved",
          "type": "bool"
        }
      ],
      "name": "ApprovalForAll",
      "type": "event"
    },
    {
      "anonymous": false,
      "inputs": [
        {
          "indexed": true,
          "internalType": "uint256",
          "name": "id",
          "type": "uint256"
        }
      ],
      "name": "CreatePenguin",
      "type": "event"
    },
    {
      "anonymous": false,
      "inputs": [
        {
          "indexed": true,
          "internalType": "address",
          "name": "previousOwner",
          "type": "address"
        },
        {
          "indexed": true,
          "internalType": "address",
          "name": "newOwner",
          "type": "address"
        }
      ],
      "name": "OwnershipTransferred",
      "type": "event"
    },
    {
      "anonymous": false,
      "inputs": [
        {
          "indexed": false,
          "internalType": "address",
          "name": "account",
          "type": "address"
        }
      ],
      "name": "Paused",
      "type": "event"
    },
    {
      "anonymous": false,
      "inputs": [
        {
          "indexed": false,
          "internalType": "address",
          "name": "addr",
          "type": "address"
        }
      ],
      "name": "PoolAddrSet",
      "type": "event"
    },
    {
      "anonymous": false,
      "inputs": [
        {
          "indexed": true,
          "internalType": "address",
          "name": "from",
          "type": "address"
        },
        {
          "indexed": true,
          "internalType": "address",
          "name": "to",
          "type": "address"
        },
        {
          "indexed": true,
          "internalType": "uint256",
          "name": "tokenId",
          "type": "uint256"
        }
      ],
      "name": "Transfer",
      "type": "event"
    },
    {
      "anonymous": false,
      "inputs": [
        {
          "indexed": false,
          "internalType": "address",
          "name": "account",
          "type": "address"
        }
      ],
      "name": "Unpaused",
      "type": "event"
    },
    {
      "inputs": [],
      "name": "MAX_ELEMENTS",
      "outputs": [
        {
          "internalType": "uint256",
          "name": "",
          "type": "uint256"
        }
      ],
      "stateMutability": "view",
      "type": "function"
    },
    {
      "inputs": [],
      "name": "PRICE",
      "outputs": [
        {
          "internalType": "uint256",
          "name": "",
          "type": "uint256"
        }
      ],
      "stateMutability": "view",
      "type": "function"
    },
    {
      "inputs": [
        {
          "internalType": "address",
          "name": "to",
          "type": "address"
        },
        {
          "internalType": "uint256",
          "name": "tokenId",
          "type": "uint256"
        }
      ],
      "name": "approve",
      "outputs": [],
      "stateMutability": "nonpayable",
      "type": "function"
    },
    {
      "inputs": [
        {
          "internalType": "address",
          "name": "owner",
          "type": "address"
        }
      ],
      "name": "balanceOf",
      "outputs": [
        {
          "internalType": "uint256",
          "name": "",
          "type": "uint256"
        }
      ],
      "stateMutability": "view",
      "type": "function"
    },
    {
      "inputs": [],
      "name": "baseTokenURI",
      "outputs": [
        {
          "internalType": "string",
          "name": "",
          "type": "string"
        }
      ],
      "stateMutability": "view",
      "type": "function"
    },
    {
      "inputs": [
        {
          "internalType": "uint256",
          "name": "tokenId",
          "type": "uint256"
        }
      ],
      "name": "burn",
      "outputs": [],
      "stateMutability": "nonpayable",
      "type": "function"
    },
    {
      "inputs": [
        {
          "internalType": "uint256",
          "name": "tokenId",
          "type": "uint256"
        }
      ],
      "name": "getApproved",
      "outputs": [
        {
          "internalType": "address",
          "name": "",
          "type": "address"
        }
      ],
      "stateMutability": "view",
      "type": "function"
    },
    {
      "inputs": [
        {
          "internalType": "address",
          "name": "owner",
          "type": "address"
        },
        {
          "internalType": "address",
          "name": "operator",
          "type": "address"
        }
      ],
      "name": "isApprovedForAll",
      "outputs": [
        {
          "internalType": "bool",
          "name": "",
          "type": "bool"
        }
      ],
      "stateMutability": "view",
      "type": "function"
    },
    {
      "inputs": [
        {
          "internalType": "address",
          "name": "_to",
          "type": "address"
        },
        {
          "internalType": "uint256",
          "name": "_amount",
          "type": "uint256"
        }
      ],
      "name": "mint",
      "outputs": [],
      "stateMutability": "payable",
      "type": "function"
    },
    {
      "inputs": [],
      "name": "name",
      "outputs": [
        {
          "internalType": "string",
          "name": "",
          "type": "string"
        }
      ],
      "stateMutability": "view",
      "type": "function"
    },
    {
      "inputs": [],
      "name": "owner",
      "outputs": [
        {
          "internalType": "address",
          "name": "",
          "type": "address"
        }
      ],
      "stateMutability": "view",
      "type": "function"
    },
    {
      "inputs": [
        {
          "internalType": "uint256",
          "name": "tokenId",
          "type": "uint256"
        }
      ],
      "name": "ownerOf",
      "outputs": [
        {
          "internalType": "address",
          "name": "",
          "type": "address"
        }
      ],
      "stateMutability": "view",
      "type": "function"
    },
    {
      "inputs": [
        {
          "internalType": "bool",
          "name": "val",
          "type": "bool"
        }
      ],
      "name": "pause",
      "outputs": [],
      "stateMutability": "nonpayable",
      "type": "function"
    },
    {
      "inputs": [],
      "name": "paused",
      "outputs": [
        {
          "internalType": "bool",
          "name": "",
          "type": "bool"
        }
      ],
      "stateMutability": "view",
      "type": "function"
    },
    {
      "inputs": [
        {
          "internalType": "uint256",
          "name": "_count",
          "type": "uint256"
        }
      ],
      "name": "price",
      "outputs": [
        {
          "internalType": "uint256",
          "name": "",
          "type": "uint256"
        }
      ],
      "stateMutability": "pure",
      "type": "function"
    },
    {
      "inputs": [],
      "name": "renounceOwnership",
      "outputs": [],
      "stateMutability": "nonpayable",
      "type": "function"
    },
    {
      "inputs": [
        {
          "internalType": "address",
          "name": "from",
          "type": "address"
        },
        {
          "internalType": "address",
          "name": "to",
          "type": "address"
        },
        {
          "internalType": "uint256",
          "name": "tokenId",
          "type": "uint256"
        }
      ],
      "name": "safeTransferFrom",
      "outputs": [],
      "stateMutability": "nonpayable",
      "type": "function"
    },
    {
      "inputs": [
        {
          "internalType": "address",
          "name": "from",
          "type": "address"
        },
        {
          "internalType": "address",
          "name": "to",
          "type": "address"
        },
        {
          "internalType": "uint256",
          "name": "tokenId",
          "type": "uint256"
        },
        {
          "internalType": "bytes",
          "name": "_data",
          "type": "bytes"
        }
      ],
      "name": "safeTransferFrom",
      "outputs": [],
      "stateMutability": "nonpayable",
      "type": "function"
    },
    {
      "inputs": [
        {
          "internalType": "address",
          "name": "operator",
          "type": "address"
        },
        {
          "internalType": "bool",
          "name": "approved",
          "type": "bool"
        }
      ],
      "name": "setApprovalForAll",
      "outputs": [],
      "stateMutability": "nonpayable",
      "type": "function"
    },
    {
      "inputs": [
        {
          "internalType": "string",
          "name": "baseURI",
          "type": "string"
        }
      ],
      "name": "setBaseURI",
      "outputs": [],
      "stateMutability": "nonpayable",
      "type": "function"
    },
    {
      "inputs": [
        {
          "internalType": "address",
          "name": "_addr",
          "type": "address"
        }
      ],
      "name": "setStakingPool",
      "outputs": [],
      "stateMutability": "nonpayable",
      "type": "function"
    },
    {
      "inputs": [
        {
          "internalType": "uint256",
          "name": "_tokenId",
          "type": "uint256"
        }
      ],
      "name": "startStaking",
      "outputs": [],
      "stateMutability": "nonpayable",
      "type": "function"
    },
    {
      "inputs": [
        {
          "internalType": "uint256",
          "name": "_tokenId",
          "type": "uint256"
        }
      ],
      "name": "stopStaking",
      "outputs": [],
      "stateMutability": "nonpayable",
      "type": "function"
    },
    {
      "inputs": [
        {
          "internalType": "bytes4",
          "name": "interfaceId",
          "type": "bytes4"
        }
      ],
      "name": "supportsInterface",
      "outputs": [
        {
          "internalType": "bool",
          "name": "",
          "type": "bool"
        }
      ],
      "stateMutability": "view",
      "type": "function"
    },
    {
      "inputs": [],
      "name": "symbol",
      "outputs": [
        {
          "internalType": "string",
          "name": "",
          "type": "string"
        }
      ],
      "stateMutability": "view",
      "type": "function"
    },
    {
      "inputs": [
        {
          "internalType": "uint256",
          "name": "index",
          "type": "uint256"
        }
      ],
      "name": "tokenByIndex",
      "outputs": [
        {
          "internalType": "uint256",
          "name": "",
          "type": "uint256"
        }
      ],
      "stateMutability": "view",
      "type": "function"
    },
    {
      "inputs": [
        {
          "internalType": "address",
          "name": "owner",
          "type": "address"
        },
        {
          "internalType": "uint256",
          "name": "index",
          "type": "uint256"
        }
      ],
      "name": "tokenOfOwnerByIndex",
      "outputs": [
        {
          "internalType": "uint256",
          "name": "",
          "type": "uint256"
        }
      ],
      "stateMutability": "view",
      "type": "function"
    },
    {
      "inputs": [
        {
          "internalType": "uint256",
          "name": "tokenId",
          "type": "uint256"
        }
      ],
      "name": "tokenURI",
      "outputs": [
        {
          "internalType": "string",
          "name": "",
          "type": "string"
        }
      ],
      "stateMutability": "view",
      "type": "function"
    },
    {
      "inputs": [],
      "name": "totalMint",
      "outputs": [
        {
          "internalType": "uint256",
          "name": "",
          "type": "uint256"
        }
      ],
      "stateMutability": "view",
      "type": "function"
    },
    {
      "inputs": [],
      "name": "totalSupply",
      "outputs": [
        {
          "internalType": "uint256",
          "name": "",
          "type": "uint256"
        }
      ],
      "stateMutability": "view",
      "type": "function"
    },
    {
      "inputs": [
        {
          "internalType": "address",
          "name": "from",
          "type": "address"
        },
        {
          "internalType": "address",
          "name": "to",
          "type": "address"
        },
        {
          "internalType": "uint256",
          "name": "tokenId",
          "type": "uint256"
        }
      ],
      "name": "transferFrom",
      "outputs": [],
      "stateMutability": "nonpayable",
      "type": "function"
    },
    {
      "inputs": [
        {
          "internalType": "address",
          "name": "newOwner",
          "type": "address"
        }
      ],
      "name": "transferOwnership",
      "outputs": [],
      "stateMutability": "nonpayable",
      "type": "function"
    },
    {
      "inputs": [
        {
          "internalType": "address",
          "name": "_owner",
          "type": "address"
        }
      ],
      "name": "walletOfOwner",
      "outputs": [
        {
          "internalType": "uint256[]",
          "name": "",
          "type": "uint256[]"
        }
      ],
      "stateMutability": "view",
      "type": "function"
    },
    {
      "inputs": [],
      "name": "withdraw",
      "outputs": [],
      "stateMutability": "payable",
      "type": "function"
    }
  ],
  "transactionHash": "0xde22c22150f613da121a2a62f2536723b01f91f289bab42131fcea75f18bda6f",
  "args": [
    "https://ipfs.io/ipfs/QmQtN81i9eNrD3wxcr67scDpLvZDDXxbmAvNXMaZh3D6tB/",
    "0x6F84Fa72Ca4554E0eEFcB9032e5A4F1FB41b726C"
  ],
  "solcInputHash": "7baef3380c8a55a7a69442df9c2d8f87",
  "bytecode": "0x60806040523480156200001157600080fd5b5060405162003041380380620030418339810160408190526200003491620003ed565b604080518082018252600881526750656e6775696e7360c01b602080830191825283518085019094526002845261504760f01b9084015281519192916200007e916000916200032a565b508051620000949060019060208401906200032a565b505050620000b1620000ab620000fc60201b60201c565b62000100565b600a805460ff60a01b19169055620000c98262000152565b620000d56001620001ba565b600c80546001600160a01b0319166001600160a01b039290921691909117905550620005ce565b3390565b600a80546001600160a01b038381166001600160a01b0319831681179093556040519116919082907f8be0079c531659141344cd1fd0a4f28419497f9722a3daafe3b4186f6b6457e090600090a35050565b6200015c620000fc565b6001600160a01b03166200016f62000229565b6001600160a01b031614620001a15760405162461bcd60e51b8152600401620001989062000546565b60405180910390fd5b8051620001b690600d9060208401906200032a565b5050565b620001c4620000fc565b6001600160a01b0316620001d762000229565b6001600160a01b031614620002005760405162461bcd60e51b8152600401620001989062000546565b600181151514156200021c576200021662000238565b62000226565b62000226620002b9565b50565b600a546001600160a01b031690565b620002426200031a565b15620002625760405162461bcd60e51b815260040162000198906200051c565b600a805460ff60a01b1916600160a01b1790557f62e78cea01bee320cd4e420270b5ea74000d11b0c9f74754ebdbfc544b05a258620002a0620000fc565b604051620002af9190620004d1565b60405180910390a1565b620002c36200031a565b620002e25760405162461bcd60e51b81526004016200019890620004e5565b600a805460ff60a01b191690557f5db9ee0a495bf2e6ff9c91a7834c1ba4fdd244a5e8aa4e537bd38aeae4b073aa620002a0620000fc565b600a54600160a01b900460ff1690565b82805462000338906200057b565b90600052602060002090601f0160209004810192826200035c5760008555620003a7565b82601f106200037757805160ff1916838001178555620003a7565b82800160010185558215620003a7579182015b82811115620003a75782518255916020019190600101906200038a565b50620003b5929150620003b9565b5090565b5b80821115620003b55760008155600101620003ba565b80516001600160a01b0381168114620003e857600080fd5b919050565b6000806040838503121562000400578182fd5b82516001600160401b038082111562000417578384fd5b818501915085601f8301126200042b578384fd5b815181811115620004405762000440620005b8565b6040516020601f8301601f1916820181018481118382101715620004685762000468620005b8565b60405282825284830181018910156200047f578687fd5b8693505b82841015620004a2578484018101518285018201529283019262000483565b82841115620004b357868184840101525b819650620004c3818901620003d0565b955050505050509250929050565b6001600160a01b0391909116815260200190565b60208082526014908201527f5061757361626c653a206e6f7420706175736564000000000000000000000000604082015260600190565b60208082526010908201526f14185d5cd8589b194e881c185d5cd95960821b604082015260600190565b6020808252818101527f4f776e61626c653a2063616c6c6572206973206e6f7420746865206f776e6572604082015260600190565b6002810460018216806200059057607f821691505b60208210811415620005b257634e487b7160e01b600052602260045260246000fd5b50919050565b634e487b7160e01b600052604160045260246000fd5b612a6380620005de6000396000f3fe6080604052600436106101f95760003560e01c80634f6ccce71161010d5780638d859f3e116100a0578063b88d4fde1161006f578063b88d4fde14610562578063c87b56dd14610582578063d547cfb7146105a2578063e985e9c5146105b7578063f2fde38b146105d7576101f9565b80638d859f3e146105035780638da5cb5b1461051857806395d89b411461052d578063a22cb46514610542576101f9565b80636352211e116100dc5780636352211e1461048e57806370a08231146104ae578063715018a6146104ce578063762b1c92146104e3576101f9565b80634f6ccce71461042457806355f804b31461044457806359a7715a146104645780635c975abb14610479576101f9565b806326a49e37116101905780633ccfd60b1161015f5780633ccfd60b1461039c57806340c10f19146103a457806342842e0e146103b757806342966c68146103d7578063438b6300146103f7576101f9565b806326a49e37146103275780632f745c59146103475780633028f63a146103675780633502a71614610387576101f9565b8063095ea7b3116101cc578063095ea7b3146102a557806318160ddd146102c55780631c760bdb146102e757806323b872dd14610307576101f9565b806301ffc9a7146101fe57806302329a291461023457806306fdde0314610256578063081812fc14610278575b600080fd5b34801561020a57600080fd5b5061021e610219366004611ff3565b6105f7565b60405161022b9190612194565b60405180910390f35b34801561024057600080fd5b5061025461024f366004611fd9565b61060a565b005b34801561026257600080fd5b5061026b610675565b60405161022b919061219f565b34801561028457600080fd5b50610298610293366004612071565b610707565b60405161022b91906120e7565b3480156102b157600080fd5b506102546102c0366004611fb0565b61074a565b3480156102d157600080fd5b506102da6107e2565b60405161022b91906128d4565b3480156102f357600080fd5b50610254610302366004612071565b6107e8565b34801561031357600080fd5b50610254610322366004611ed3565b610877565b34801561033357600080fd5b506102da610342366004612071565b6108af565b34801561035357600080fd5b506102da610362366004611fb0565b6108c3565b34801561037357600080fd5b50610254610382366004611e87565b610915565b34801561039357600080fd5b506102da6109aa565b6102546109b0565b6102546103b2366004611fb0565b610a7a565b3480156103c357600080fd5b506102546103d2366004611ed3565b610b9c565b3480156103e357600080fd5b506102546103f2366004612071565b610bb7565b34801561040357600080fd5b50610417610412366004611e87565b610be7565b60405161022b9190612150565b34801561043057600080fd5b506102da61043f366004612071565b610ca5565b34801561045057600080fd5b5061025461045f36600461202b565b610d00565b34801561047057600080fd5b506102da610d52565b34801561048557600080fd5b5061021e610d61565b34801561049a57600080fd5b506102986104a9366004612071565b610d71565b3480156104ba57600080fd5b506102da6104c9366004611e87565b610da6565b3480156104da57600080fd5b50610254610dea565b3480156104ef57600080fd5b506102546104fe366004612071565b610e35565b34801561050f57600080fd5b506102da610ef4565b34801561052457600080fd5b50610298610f00565b34801561053957600080fd5b5061026b610f0f565b34801561054e57600080fd5b5061025461055d366004611f87565b610f1e565b34801561056e57600080fd5b5061025461057d366004611f0e565b610f30565b34801561058e57600080fd5b5061026b61059d366004612071565b610f69565b3480156105ae57600080fd5b5061026b610fec565b3480156105c357600080fd5b5061021e6105d2366004611ea1565b61107a565b3480156105e357600080fd5b506102546105f2366004611e87565b6110a8565b600061060282611116565b90505b919050565b61061261113b565b6001600160a01b0316610623610f00565b6001600160a01b0316146106525760405162461bcd60e51b81526004016106499061260d565b60405180910390fd5b6001811515141561066a5761066561113f565b610672565b6106726111b7565b50565b6060600080546106849061296b565b80601f01602080910402602001604051908101604052809291908181526020018280546106b09061296b565b80156106fd5780601f106106d2576101008083540402835291602001916106fd565b820191906000526020600020905b8154815290600101906020018083116106e057829003601f168201915b5050505050905090565b600061071282611211565b61072e5760405162461bcd60e51b8152600401610649906125c1565b506000908152600460205260409020546001600160a01b031690565b600061075582610d71565b9050806001600160a01b0316836001600160a01b031614156107895760405162461bcd60e51b81526004016106499061271f565b806001600160a01b031661079b61113b565b6001600160a01b031614806107b757506107b7816105d261113b565b6107d35760405162461bcd60e51b81526004016106499061247a565b6107dd838361122e565b505050565b60085490565b600c5460405163060ee2eb60e21b81526001600160a01b039091169063183b8bac9061081a9033908590600401612137565b600060405180830381600087803b15801561083457600080fd5b505af1158015610848573d6000803e3d6000fd5b5050600c5460408051602081019091526000815261067293506001600160a01b0390911691503390849061129c565b61088861088261113b565b826112cf565b6108a45760405162461bcd60e51b8152600401610649906127ce565b6107dd838383611354565b60006106026703782dace9d9000083611481565b60006108ce83610da6565b82106108ec5760405162461bcd60e51b815260040161064990612234565b506001600160a01b03919091166000908152600660209081526040808320938352929052205490565b61091d61113b565b6001600160a01b031661092e610f00565b6001600160a01b0316146109545760405162461bcd60e51b81526004016106499061260d565b600c80546001600160a01b0319166001600160a01b0383161790556040517f6fc192a808b451a9a72be00d4f5c789c4d3822c8dca72d32238842f42974ab0d9061099f9083906120e7565b60405180910390a150565b6103e881565b6109b861113b565b6001600160a01b03166109c9610f00565b6001600160a01b0316146109ef5760405162461bcd60e51b81526004016106499061260d565b47806109fa57600080fd5b6000336001600160a01b031682604051610a13906120e4565b60006040518083038185875af1925050503d8060008114610a50576040519150601f19603f3d011682016040523d82523d6000602084013e610a55565b606091505b5050905080610a765760405162461bcd60e51b815260040161064990612797565b5050565b6103e8610a8561148d565b1115610aa35760405162461bcd60e51b81526004016106499061259f565b610aab610f00565b6001600160a01b0316610abc61113b565b6001600160a01b031614610aef57610ad2610d61565b15610aef5760405162461bcd60e51b815260040161064990612443565b6000610af961148d565b90506103e8610b0883836128dd565b1115610b265760405162461bcd60e51b8152600401610649906123d4565b6103e8811115610b485760405162461bcd60e51b81526004016106499061259f565b610b51826108af565b341015610b705760405162461bcd60e51b8152600401610649906126e8565b60005b82811015610b9657610b8484611499565b80610b8e816129a6565b915050610b73565b50505050565b6107dd83838360405180602001604052806000815250610f30565b610bc261088261113b565b610bde5760405162461bcd60e51b815260040161064990612877565b610672816114e8565b60606000610bf483610da6565b905060008167ffffffffffffffff811115610c1f57634e487b7160e01b600052604160045260246000fd5b604051908082528060200260200182016040528015610c48578160200160208202803683370190505b50905060005b82811015610c9d57610c6085826108c3565b828281518110610c8057634e487b7160e01b600052603260045260246000fd5b602090810291909101015280610c95816129a6565b915050610c4e565b509392505050565b6000610caf6107e2565b8210610ccd5760405162461bcd60e51b81526004016106499061282b565b60088281548110610cee57634e487b7160e01b600052603260045260246000fd5b90600052602060002001549050919050565b610d0861113b565b6001600160a01b0316610d19610f00565b6001600160a01b031614610d3f5760405162461bcd60e51b81526004016106499061260d565b8051610a7690600d906020840190611d57565b6000610d5c61148d565b905090565b600a54600160a01b900460ff1690565b6000818152600260205260408120546001600160a01b0316806106025760405162461bcd60e51b815260040161064990612521565b60006001600160a01b038216610dce5760405162461bcd60e51b8152600401610649906124d7565b506001600160a01b031660009081526003602052604090205490565b610df261113b565b6001600160a01b0316610e03610f00565b6001600160a01b031614610e295760405162461bcd60e51b81526004016106499061260d565b610e33600061158f565b565b33610e3f82610d71565b6001600160a01b031614610e655760405162461bcd60e51b815260040161064990612760565b600c546040516367c18bfd60e11b81526001600160a01b039091169063cf8317fa90610e979033908590600401612137565b600060405180830381600087803b158015610eb157600080fd5b505af1158015610ec5573d6000803e3d6000fd5b5050600c5460408051602081019091526000815261067293503392506001600160a01b0390911690849061129c565b6703782dace9d9000081565b600a546001600160a01b031690565b6060600180546106849061296b565b610a76610f2961113b565b83836115e1565b610f41610f3b61113b565b836112cf565b610f5d5760405162461bcd60e51b8152600401610649906127ce565b610b968484848461129c565b6060610f7482611211565b610f905760405162461bcd60e51b81526004016106499061268b565b6000610f9a611684565b90506000815111610fba5760405180602001604052806000815250610fe5565b80610fc484611693565b604051602001610fd59291906120b5565b6040516020818303038152906040525b9392505050565b600d8054610ff99061296b565b80601f01602080910402602001604051908101604052809291908181526020018280546110259061296b565b80156110725780601f1061104757610100808354040283529160200191611072565b820191906000526020600020905b81548152906001019060200180831161105557829003601f168201915b505050505081565b6001600160a01b03918216600090815260056020908152604080832093909416825291909152205460ff1690565b6110b061113b565b6001600160a01b03166110c1610f00565b6001600160a01b0316146110e75760405162461bcd60e51b81526004016106499061260d565b6001600160a01b03811661110d5760405162461bcd60e51b8152600401610649906122dc565b6106728161158f565b60006001600160e01b0319821663780e9d6360e01b14806106025750610602826117c6565b3390565b611147610d61565b156111645760405162461bcd60e51b815260040161064990612443565b600a805460ff60a01b1916600160a01b1790557f62e78cea01bee320cd4e420270b5ea74000d11b0c9f74754ebdbfc544b05a2586111a061113b565b6040516111ad91906120e7565b60405180910390a1565b6111bf610d61565b6111db5760405162461bcd60e51b8152600401610649906121fd565b600a805460ff60a01b191690557f5db9ee0a495bf2e6ff9c91a7834c1ba4fdd244a5e8aa4e537bd38aeae4b073aa6111a061113b565b6000908152600260205260409020546001600160a01b0316151590565b600081815260046020526040902080546001600160a01b0319166001600160a01b038416908117909155819061126382610d71565b6001600160a01b03167f8c5be1e5ebec7d5bd14f71427d1e84f3dd0314c0f7b2291e5b200ac8c7c3b92560405160405180910390a45050565b6112a7848484611354565b6112b384848484611806565b610b965760405162461bcd60e51b81526004016106499061227f565b60006112da82611211565b6112f65760405162461bcd60e51b8152600401610649906123f7565b600061130183610d71565b9050806001600160a01b0316846001600160a01b0316148061133c5750836001600160a01b031661133184610707565b6001600160a01b0316145b8061134c575061134c818561107a565b949350505050565b826001600160a01b031661136782610d71565b6001600160a01b03161461138d5760405162461bcd60e51b815260040161064990612642565b6001600160a01b0382166113b35760405162461bcd60e51b815260040161064990612359565b6113be838383611921565b6113c960008261122e565b6001600160a01b03831660009081526003602052604081208054600192906113f2908490612928565b90915550506001600160a01b03821660009081526003602052604081208054600192906114209084906128dd565b909155505060008181526002602052604080822080546001600160a01b0319166001600160a01b0386811691821790925591518493918716917fddf252ad1be2c89b69c2b068fc378daa952ba7f163c4a11628f55a4df523b3ef91a4505050565b6000610fe58284612909565b6000610d5c600b611978565b60006114a361148d565b90506114af600b61197c565b6114b98282611985565b60405181907f645f26e653c951cec836533f8fe0616d301c20a17153debc17d7c3dbe4f32b2890600090a25050565b60006114f382610d71565b905061150181600084611921565b61150c60008361122e565b6001600160a01b0381166000908152600360205260408120805460019290611535908490612928565b909155505060008281526002602052604080822080546001600160a01b0319169055518391906001600160a01b038416907fddf252ad1be2c89b69c2b068fc378daa952ba7f163c4a11628f55a4df523b3ef908390a45050565b600a80546001600160a01b038381166001600160a01b0319831681179093556040519116919082907f8be0079c531659141344cd1fd0a4f28419497f9722a3daafe3b4186f6b6457e090600090a35050565b816001600160a01b0316836001600160a01b031614156116135760405162461bcd60e51b81526004016106499061239d565b6001600160a01b0383811660008181526005602090815260408083209487168084529490915290819020805460ff1916851515179055517f17307eab39ab6107e8899845ad3d59bd9653f200f220920489ca2b5937696c3190611677908590612194565b60405180910390a3505050565b6060600d80546106849061296b565b6060816116b857506040805180820190915260018152600360fc1b6020820152610605565b8160005b81156116e257806116cc816129a6565b91506116db9050600a836128f5565b91506116bc565b60008167ffffffffffffffff81111561170b57634e487b7160e01b600052604160045260246000fd5b6040519080825280601f01601f191660200182016040528015611735576020820181803683370190505b5090505b841561134c5761174a600183612928565b9150611757600a866129c1565b6117629060306128dd565b60f81b81838151811061178557634e487b7160e01b600052603260045260246000fd5b60200101907effffffffffffffffffffffffffffffffffffffffffffffffffffffffffffff1916908160001a9053506117bf600a866128f5565b9450611739565b60006001600160e01b031982166380ac58cd60e01b14806117f757506001600160e01b03198216635b5e139f60e01b145b8061060257506106028261199f565b600061181a846001600160a01b03166119b8565b1561191657836001600160a01b031663150b7a0261183661113b565b8786866040518563ffffffff1660e01b815260040161185894939291906120fb565b602060405180830381600087803b15801561187257600080fd5b505af19250505080156118a2575060408051601f3d908101601f1916820190925261189f9181019061200f565b60015b6118fc573d8080156118d0576040519150601f19603f3d011682016040523d82523d6000602084013e6118d5565b606091505b5080516118f45760405162461bcd60e51b81526004016106499061227f565b805181602001fd5b6001600160e01b031916630a85bd0160e11b14905061134c565b506001949350505050565b61192c8383836119be565b611934610f00565b6001600160a01b031661194561113b565b6001600160a01b0316146107dd5761195b610d61565b156107dd5760405162461bcd60e51b8152600401610649906121b2565b5490565b80546001019055565b610a76828260405180602001604052806000815250611a47565b6001600160e01b031981166301ffc9a760e01b14919050565b3b151590565b6119c98383836107dd565b6001600160a01b0383166119e5576119e081611a7a565b611a08565b816001600160a01b0316836001600160a01b031614611a0857611a088382611abe565b6001600160a01b038216611a2457611a1f81611b5b565b6107dd565b826001600160a01b0316826001600160a01b0316146107dd576107dd8282611c34565b611a518383611c78565b611a5e6000848484611806565b6107dd5760405162461bcd60e51b81526004016106499061227f565b600880546000838152600960205260408120829055600182018355919091527ff3f7a9fe364faab93b216da50a3214154f22a0a2b415b23a84c8169e8b636ee30155565b60006001611acb84610da6565b611ad59190612928565b600083815260076020526040902054909150808214611b28576001600160a01b03841660009081526006602090815260408083208584528252808320548484528184208190558352600790915290208190555b5060009182526007602090815260408084208490556001600160a01b039094168352600681528383209183525290812055565b600854600090611b6d90600190612928565b60008381526009602052604081205460088054939450909284908110611ba357634e487b7160e01b600052603260045260246000fd5b906000526020600020015490508060088381548110611bd257634e487b7160e01b600052603260045260246000fd5b6000918252602080832090910192909255828152600990915260408082208490558582528120556008805480611c1857634e487b7160e01b600052603160045260246000fd5b6001900381819060005260206000200160009055905550505050565b6000611c3f83610da6565b6001600160a01b039093166000908152600660209081526040808320868452825280832085905593825260079052919091209190915550565b6001600160a01b038216611c9e5760405162461bcd60e51b81526004016106499061256a565b611ca781611211565b15611cc45760405162461bcd60e51b815260040161064990612322565b611cd060008383611921565b6001600160a01b0382166000908152600360205260408120805460019290611cf99084906128dd565b909155505060008181526002602052604080822080546001600160a01b0319166001600160a01b03861690811790915590518392907fddf252ad1be2c89b69c2b068fc378daa952ba7f163c4a11628f55a4df523b3ef908290a45050565b828054611d639061296b565b90600052602060002090601f016020900481019282611d855760008555611dcb565b82601f10611d9e57805160ff1916838001178555611dcb565b82800160010185558215611dcb579182015b82811115611dcb578251825591602001919060010190611db0565b50611dd7929150611ddb565b5090565b5b80821115611dd75760008155600101611ddc565b600067ffffffffffffffff80841115611e0b57611e0b612a01565b604051601f8501601f191681016020018281118282101715611e2f57611e2f612a01565b604052848152915081838501861015611e4757600080fd5b8484602083013760006020868301015250509392505050565b80356001600160a01b038116811461060557600080fd5b8035801515811461060557600080fd5b600060208284031215611e98578081fd5b610fe582611e60565b60008060408385031215611eb3578081fd5b611ebc83611e60565b9150611eca60208401611e60565b90509250929050565b600080600060608486031215611ee7578081fd5b611ef084611e60565b9250611efe60208501611e60565b9150604084013590509250925092565b60008060008060808587031215611f23578081fd5b611f2c85611e60565b9350611f3a60208601611e60565b925060408501359150606085013567ffffffffffffffff811115611f5c578182fd5b8501601f81018713611f6c578182fd5b611f7b87823560208401611df0565b91505092959194509250565b60008060408385031215611f99578182fd5b611fa283611e60565b9150611eca60208401611e77565b60008060408385031215611fc2578182fd5b611fcb83611e60565b946020939093013593505050565b600060208284031215611fea578081fd5b610fe582611e77565b600060208284031215612004578081fd5b8135610fe581612a17565b600060208284031215612020578081fd5b8151610fe581612a17565b60006020828403121561203c578081fd5b813567ffffffffffffffff811115612052578182fd5b8201601f81018413612062578182fd5b61134c84823560208401611df0565b600060208284031215612082578081fd5b5035919050565b600081518084526120a181602086016020860161293f565b601f01601f19169290920160200192915050565b600083516120c781846020880161293f565b8351908301906120db81836020880161293f565b01949350505050565b90565b6001600160a01b0391909116815260200190565b60006001600160a01b0380871683528086166020840152508360408301526080606083015261212d6080830184612089565b9695505050505050565b6001600160a01b03929092168252602082015260400190565b6020808252825182820181905260009190848201906040850190845b818110156121885783518352928401929184019160010161216c565b50909695505050505050565b901515815260200190565b600060208252610fe56020830184612089565b6020808252602b908201527f4552433732315061757361626c653a20746f6b656e207472616e73666572207760408201526a1a1a5b19481c185d5cd95960aa1b606082015260800190565b60208082526014908201527f5061757361626c653a206e6f7420706175736564000000000000000000000000604082015260600190565b6020808252602b908201527f455243373231456e756d657261626c653a206f776e657220696e646578206f7560408201526a74206f6620626f756e647360a81b606082015260800190565b60208082526032908201527f4552433732313a207472616e7366657220746f206e6f6e20455243373231526560408201527f63656976657220696d706c656d656e7465720000000000000000000000000000606082015260800190565b60208082526026908201527f4f776e61626c653a206e6577206f776e657220697320746865207a65726f206160408201526564647265737360d01b606082015260800190565b6020808252601c908201527f4552433732313a20746f6b656e20616c7265616479206d696e74656400000000604082015260600190565b60208082526024908201527f4552433732313a207472616e7366657220746f20746865207a65726f206164646040820152637265737360e01b606082015260800190565b60208082526019908201527f4552433732313a20617070726f766520746f2063616c6c657200000000000000604082015260600190565b60208082526009908201526813585e081b1a5b5a5d60ba1b604082015260600190565b6020808252602c908201527f4552433732313a206f70657261746f7220717565727920666f72206e6f6e657860408201526b34b9ba32b73a103a37b5b2b760a11b606082015260800190565b60208082526010908201527f5061757361626c653a2070617573656400000000000000000000000000000000604082015260600190565b60208082526038908201527f4552433732313a20617070726f76652063616c6c6572206973206e6f74206f7760408201527f6e6572206e6f7220617070726f76656420666f7220616c6c0000000000000000606082015260800190565b6020808252602a908201527f4552433732313a2062616c616e636520717565727920666f7220746865207a65604082015269726f206164647265737360b01b606082015260800190565b60208082526029908201527f4552433732313a206f776e657220717565727920666f72206e6f6e657869737460408201526832b73a103a37b5b2b760b91b606082015260800190565b6020808252818101527f4552433732313a206d696e7420746f20746865207a65726f2061646472657373604082015260600190565b60208082526008908201526714d85b1948195b9960c21b604082015260600190565b6020808252602c908201527f4552433732313a20617070726f76656420717565727920666f72206e6f6e657860408201526b34b9ba32b73a103a37b5b2b760a11b606082015260800190565b6020808252818101527f4f776e61626c653a2063616c6c6572206973206e6f7420746865206f776e6572604082015260600190565b60208082526029908201527f4552433732313a207472616e73666572206f6620746f6b656e2074686174206960408201526839903737ba1037bbb760b91b606082015260800190565b6020808252602f908201527f4552433732314d657461646174613a2055524920717565727920666f72206e6f60408201527f6e6578697374656e7420746f6b656e0000000000000000000000000000000000606082015260800190565b60208082526011908201527f56616c75652062656c6f77207072696365000000000000000000000000000000604082015260600190565b60208082526021908201527f4552433732313a20617070726f76616c20746f2063757272656e74206f776e656040820152603960f91b606082015260800190565b6020808252601a908201527f5374616b696e673a206f776e6572206e6f74206d617463686564000000000000604082015260600190565b60208082526010908201527f5472616e73666572206661696c65642e00000000000000000000000000000000604082015260600190565b60208082526031908201527f4552433732313a207472616e736665722063616c6c6572206973206e6f74206f60408201527f776e6572206e6f7220617070726f766564000000000000000000000000000000606082015260800190565b6020808252602c908201527f455243373231456e756d657261626c653a20676c6f62616c20696e646578206f60408201526b7574206f6620626f756e647360a01b606082015260800190565b60208082526030908201527f4552433732314275726e61626c653a2063616c6c6572206973206e6f74206f7760408201527f6e6572206e6f7220617070726f76656400000000000000000000000000000000606082015260800190565b90815260200190565b600082198211156128f0576128f06129d5565b500190565b600082612904576129046129eb565b500490565b6000816000190483118215151615612923576129236129d5565b500290565b60008282101561293a5761293a6129d5565b500390565b60005b8381101561295a578181015183820152602001612942565b83811115610b965750506000910152565b60028104600182168061297f57607f821691505b602082108114156129a057634e487b7160e01b600052602260045260246000fd5b50919050565b60006000198214156129ba576129ba6129d5565b5060010190565b6000826129d0576129d06129eb565b500690565b634e487b7160e01b600052601160045260246000fd5b634e487b7160e01b600052601260045260246000fd5b634e487b7160e01b600052604160045260246000fd5b6001600160e01b03198116811461067257600080fdfea2646970667358221220a62f3e12d1b9d5823c11852fc96a2ba6be98e1366f0f3bc0591bd0ba5fb0360d64736f6c63430008000033",
  "devdoc": {
    "kind": "dev",
    "methods": {
      "approve(address,uint256)": {
        "details": "See {IERC721-approve}."
      },
      "balanceOf(address)": {
        "details": "See {IERC721-balanceOf}."
      },
      "burn(uint256)": {
        "details": "Burns `tokenId`. See {ERC721-_burn}. Requirements: - The caller must own `tokenId` or be an approved operator."
      },
      "getApproved(uint256)": {
        "details": "See {IERC721-getApproved}."
      },
      "isApprovedForAll(address,address)": {
        "details": "See {IERC721-isApprovedForAll}."
      },
      "mint(address,uint256)": {
        "details": "Mint the _amount of tokens",
        "params": {
          "_amount": "is the token count"
        }
      },
      "name()": {
        "details": "See {IERC721Metadata-name}."
      },
      "owner()": {
        "details": "Returns the address of the current owner."
      },
      "ownerOf(uint256)": {
        "details": "See {IERC721-ownerOf}."
      },
      "paused()": {
        "details": "Returns true if the contract is paused, and false otherwise."
      },
      "renounceOwnership()": {
        "details": "Leaves the contract without owner. It will not be possible to call `onlyOwner` functions anymore. Can only be called by the current owner. NOTE: Renouncing ownership will leave the contract without an owner, thereby removing any functionality that is only available to the owner."
      },
      "safeTransferFrom(address,address,uint256)": {
        "details": "See {IERC721-safeTransferFrom}."
      },
      "safeTransferFrom(address,address,uint256,bytes)": {
        "details": "See {IERC721-safeTransferFrom}."
      },
      "setApprovalForAll(address,bool)": {
        "details": "See {IERC721-setApprovalForAll}."
      },
      "setBaseURI(string)": {
        "details": "set the _baseTokenURI",
        "params": {
          "baseURI": "of the _baseTokenURI"
        }
      },
      "symbol()": {
        "details": "See {IERC721Metadata-symbol}."
      },
      "tokenByIndex(uint256)": {
        "details": "See {IERC721Enumerable-tokenByIndex}."
      },
      "tokenOfOwnerByIndex(address,uint256)": {
        "details": "See {IERC721Enumerable-tokenOfOwnerByIndex}."
      },
      "tokenURI(uint256)": {
        "details": "See {IERC721Metadata-tokenURI}."
      },
      "totalSupply()": {
        "details": "See {IERC721Enumerable-totalSupply}."
      },
      "transferFrom(address,address,uint256)": {
        "details": "See {IERC721-transferFrom}."
      },
      "transferOwnership(address)": {
        "details": "Transfers ownership of the contract to a new account (`newOwner`). Can only be called by the current owner."
      }
    },
    "version": 1
  },
  "userdoc": {
    "kind": "user",
    "methods": {},
    "version": 1
  },
  "storageLayout": {
    "storage": [
      {
        "astId": 222,
        "contract": "contracts/nft.sol:Penguins",
        "label": "_name",
        "offset": 0,
        "slot": "0",
        "type": "t_string_storage"
      },
      {
        "astId": 224,
        "contract": "contracts/nft.sol:Penguins",
        "label": "_symbol",
        "offset": 0,
        "slot": "1",
        "type": "t_string_storage"
      },
      {
        "astId": 228,
        "contract": "contracts/nft.sol:Penguins",
        "label": "_owners",
        "offset": 0,
        "slot": "2",
        "type": "t_mapping(t_uint256,t_address)"
      },
      {
        "astId": 232,
        "contract": "contracts/nft.sol:Penguins",
        "label": "_balances",
        "offset": 0,
        "slot": "3",
        "type": "t_mapping(t_address,t_uint256)"
      },
      {
        "astId": 236,
        "contract": "contracts/nft.sol:Penguins",
        "label": "_tokenApprovals",
        "offset": 0,
        "slot": "4",
        "type": "t_mapping(t_uint256,t_address)"
      },
      {
        "astId": 242,
        "contract": "contracts/nft.sol:Penguins",
        "label": "_operatorApprovals",
        "offset": 0,
        "slot": "5",
        "type": "t_mapping(t_address,t_mapping(t_address,t_bool))"
      },
      {
        "astId": 1206,
        "contract": "contracts/nft.sol:Penguins",
        "label": "_ownedTokens",
        "offset": 0,
        "slot": "6",
        "type": "t_mapping(t_address,t_mapping(t_uint256,t_uint256))"
      },
      {
        "astId": 1210,
        "contract": "contracts/nft.sol:Penguins",
        "label": "_ownedTokensIndex",
        "offset": 0,
        "slot": "7",
        "type": "t_mapping(t_uint256,t_uint256)"
      },
      {
        "astId": 1213,
        "contract": "contracts/nft.sol:Penguins",
        "label": "_allTokens",
        "offset": 0,
        "slot": "8",
        "type": "t_array(t_uint256)dyn_storage"
      },
      {
        "astId": 1217,
        "contract": "contracts/nft.sol:Penguins",
        "label": "_allTokensIndex",
        "offset": 0,
        "slot": "9",
        "type": "t_mapping(t_uint256,t_uint256)"
      },
      {
        "astId": 7,
        "contract": "contracts/nft.sol:Penguins",
        "label": "_owner",
        "offset": 0,
        "slot": "10",
        "type": "t_address"
      },
      {
        "astId": 122,
        "contract": "contracts/nft.sol:Penguins",
        "label": "_paused",
        "offset": 20,
        "slot": "10",
        "type": "t_bool"
      },
      {
        "astId": 2573,
        "contract": "contracts/nft.sol:Penguins",
        "label": "_tokenIdTracker",
        "offset": 0,
        "slot": "11",
        "type": "t_struct(Counter)1912_storage"
      },
      {
        "astId": 2576,
        "contract": "contracts/nft.sol:Penguins",
        "label": "_pool",
        "offset": 0,
        "slot": "12",
        "type": "t_contract(IStakingPool)2555"
      },
      {
        "astId": 2584,
        "contract": "contracts/nft.sol:Penguins",
        "label": "baseTokenURI",
        "offset": 0,
        "slot": "13",
        "type": "t_string_storage"
      }
    ],
    "types": {
      "t_address": {
        "encoding": "inplace",
        "label": "address",
        "numberOfBytes": "20"
      },
      "t_array(t_uint256)dyn_storage": {
        "base": "t_uint256",
        "encoding": "dynamic_array",
        "label": "uint256[]",
        "numberOfBytes": "32"
      },
      "t_bool": {
        "encoding": "inplace",
        "label": "bool",
        "numberOfBytes": "1"
      },
      "t_contract(IStakingPool)2555": {
        "encoding": "inplace",
        "label": "contract IStakingPool",
        "numberOfBytes": "20"
      },
      "t_mapping(t_address,t_bool)": {
        "encoding": "mapping",
        "key": "t_address",
        "label": "mapping(address => bool)",
        "numberOfBytes": "32",
        "value": "t_bool"
      },
      "t_mapping(t_address,t_mapping(t_address,t_bool))": {
        "encoding": "mapping",
        "key": "t_address",
        "label": "mapping(address => mapping(address => bool))",
        "numberOfBytes": "32",
        "value": "t_mapping(t_address,t_bool)"
      },
      "t_mapping(t_address,t_mapping(t_uint256,t_uint256))": {
        "encoding": "mapping",
        "key": "t_address",
        "label": "mapping(address => mapping(uint256 => uint256))",
        "numberOfBytes": "32",
        "value": "t_mapping(t_uint256,t_uint256)"
      },
      "t_mapping(t_address,t_uint256)": {
        "encoding": "mapping",
        "key": "t_address",
        "label": "mapping(address => uint256)",
        "numberOfBytes": "32",
        "value": "t_uint256"
      },
      "t_mapping(t_uint256,t_address)": {
        "encoding": "mapping",
        "key": "t_uint256",
        "label": "mapping(uint256 => address)",
        "numberOfBytes": "32",
        "value": "t_address"
      },
      "t_mapping(t_uint256,t_uint256)": {
        "encoding": "mapping",
        "key": "t_uint256",
        "label": "mapping(uint256 => uint256)",
        "numberOfBytes": "32",
        "value": "t_uint256"
      },
      "t_string_storage": {
        "encoding": "bytes",
        "label": "string",
        "numberOfBytes": "32"
      },
      "t_struct(Counter)1912_storage": {
        "encoding": "inplace",
        "label": "struct Counters.Counter",
        "members": [
          {
            "astId": 1911,
            "contract": "contracts/nft.sol:Penguins",
            "label": "_value",
            "offset": 0,
            "slot": "0",
            "type": "t_uint256"
          }
        ],
        "numberOfBytes": "32"
      },
      "t_uint256": {
        "encoding": "inplace",
        "label": "uint256",
        "numberOfBytes": "32"
      }
    }
  }
}