{
  "address": "0x73Ad3E95F28Ef69aDD9b40A47314c9c50C13C96a",
  "abi": [
    {
      "inputs": [
        {
          "internalType": "bytes32",
          "name": "_whitelistRoot",
          "type": "bytes32"
        },
        {
          "internalType": "string",
          "name": "uri",
          "type": "string"
        }
      ],
      "stateMutability": "nonpayable",
      "type": "constructor"
    },
    {
      "anonymous": false,
      "inputs": [
        {
          "indexed": true,
          "internalType": "address",
          "name": "account",
          "type": "address"
        },
        {
          "indexed": true,
          "internalType": "address",
          "name": "operator",
          "type": "address"
        },
        {
          "indexed": false,
          "internalType": "bool",
          "name": "approved",
          "type": "bool"
        }
      ],
      "name": "ApprovalForAll",
      "type": "event"
    },
    {
      "anonymous": false,
      "inputs": [
        {
          "indexed": true,
          "internalType": "address",
          "name": "from",
          "type": "address"
        },
        {
          "indexed": false,
          "internalType": "uint256",
          "name": "tokenId",
          "type": "uint256"
        }
      ],
      "name": "CreateShib",
      "type": "event"
    },
    {
      "anonymous": false,
      "inputs": [
        {
          "indexed": true,
          "internalType": "address",
          "name": "previousOwner",
          "type": "address"
        },
        {
          "indexed": true,
          "internalType": "address",
          "name": "newOwner",
          "type": "address"
        }
      ],
      "name": "OwnershipTransferred",
      "type": "event"
    },
    {
      "anonymous": false,
      "inputs": [
        {
          "indexed": true,
          "internalType": "address",
          "name": "operator",
          "type": "address"
        },
        {
          "indexed": true,
          "internalType": "address",
          "name": "from",
          "type": "address"
        },
        {
          "indexed": true,
          "internalType": "address",
          "name": "to",
          "type": "address"
        },
        {
          "indexed": false,
          "internalType": "uint256[]",
          "name": "ids",
          "type": "uint256[]"
        },
        {
          "indexed": false,
          "internalType": "uint256[]",
          "name": "values",
          "type": "uint256[]"
        }
      ],
      "name": "TransferBatch",
      "type": "event"
    },
    {
      "anonymous": false,
      "inputs": [
        {
          "indexed": true,
          "internalType": "address",
          "name": "operator",
          "type": "address"
        },
        {
          "indexed": true,
          "internalType": "address",
          "name": "from",
          "type": "address"
        },
        {
          "indexed": true,
          "internalType": "address",
          "name": "to",
          "type": "address"
        },
        {
          "indexed": false,
          "internalType": "uint256",
          "name": "id",
          "type": "uint256"
        },
        {
          "indexed": false,
          "internalType": "uint256",
          "name": "value",
          "type": "uint256"
        }
      ],
      "name": "TransferSingle",
      "type": "event"
    },
    {
      "anonymous": false,
      "inputs": [
        {
          "indexed": false,
          "internalType": "string",
          "name": "value",
          "type": "string"
        },
        {
          "indexed": true,
          "internalType": "uint256",
          "name": "id",
          "type": "uint256"
        }
      ],
      "name": "URI",
      "type": "event"
    },
    {
      "inputs": [
        {
          "internalType": "address",
          "name": "account",
          "type": "address"
        },
        {
          "internalType": "uint256",
          "name": "id",
          "type": "uint256"
        }
      ],
      "name": "balanceOf",
      "outputs": [
        {
          "internalType": "uint256",
          "name": "",
          "type": "uint256"
        }
      ],
      "stateMutability": "view",
      "type": "function"
    },
    {
      "inputs": [
        {
          "internalType": "address[]",
          "name": "accounts",
          "type": "address[]"
        },
        {
          "internalType": "uint256[]",
          "name": "ids",
          "type": "uint256[]"
        }
      ],
      "name": "balanceOfBatch",
      "outputs": [
        {
          "internalType": "uint256[]",
          "name": "",
          "type": "uint256[]"
        }
      ],
      "stateMutability": "view",
      "type": "function"
    },
    {
      "inputs": [
        {
          "internalType": "address[]",
          "name": "addresses",
          "type": "address[]"
        }
      ],
      "name": "batchMint",
      "outputs": [],
      "stateMutability": "nonpayable",
      "type": "function"
    },
    {
      "inputs": [],
      "name": "developer",
      "outputs": [
        {
          "internalType": "address",
          "name": "",
          "type": "address"
        }
      ],
      "stateMutability": "view",
      "type": "function"
    },
    {
      "inputs": [
        {
          "internalType": "address",
          "name": "account",
          "type": "address"
        },
        {
          "internalType": "address",
          "name": "operator",
          "type": "address"
        }
      ],
      "name": "isApprovedForAll",
      "outputs": [
        {
          "internalType": "bool",
          "name": "",
          "type": "bool"
        }
      ],
      "stateMutability": "view",
      "type": "function"
    },
    {
      "inputs": [],
      "name": "name",
      "outputs": [
        {
          "internalType": "string",
          "name": "",
          "type": "string"
        }
      ],
      "stateMutability": "view",
      "type": "function"
    },
    {
      "inputs": [],
      "name": "owner",
      "outputs": [
        {
          "internalType": "address",
          "name": "",
          "type": "address"
        }
      ],
      "stateMutability": "view",
      "type": "function"
    },
    {
      "inputs": [],
      "name": "preSaleIsActive",
      "outputs": [
        {
          "internalType": "bool",
          "name": "",
          "type": "bool"
        }
      ],
      "stateMutability": "view",
      "type": "function"
    },
    {
      "inputs": [],
      "name": "preSaleMaxSupply",
      "outputs": [
        {
          "internalType": "uint256",
          "name": "",
          "type": "uint256"
        }
      ],
      "stateMutability": "view",
      "type": "function"
    },
    {
      "inputs": [
        {
          "internalType": "uint256",
          "name": "count",
          "type": "uint256"
        },
        {
          "internalType": "bytes32[]",
          "name": "proof",
          "type": "bytes32[]"
        }
      ],
      "name": "preSaleMintWithEth",
      "outputs": [],
      "stateMutability": "payable",
      "type": "function"
    },
    {
      "inputs": [
        {
          "internalType": "uint256",
          "name": "count",
          "type": "uint256"
        },
        {
          "internalType": "bytes32[]",
          "name": "proof",
          "type": "bytes32[]"
        }
      ],
      "name": "preSaleMintWithShib",
      "outputs": [],
      "stateMutability": "nonpayable",
      "type": "function"
    },
    {
      "inputs": [],
      "name": "preSaleStart",
      "outputs": [
        {
          "internalType": "uint256",
          "name": "",
          "type": "uint256"
        }
      ],
      "stateMutability": "view",
      "type": "function"
    },
    {
      "inputs": [],
      "name": "presalePerWallet",
      "outputs": [
        {
          "internalType": "uint256",
          "name": "",
          "type": "uint256"
        }
      ],
      "stateMutability": "view",
      "type": "function"
    },
    {
      "inputs": [],
      "name": "presalePriceInEth",
      "outputs": [
        {
          "internalType": "uint256",
          "name": "",
          "type": "uint256"
        }
      ],
      "stateMutability": "view",
      "type": "function"
    },
    {
      "inputs": [],
      "name": "presalePriceInShib",
      "outputs": [
        {
          "internalType": "uint256",
          "name": "",
          "type": "uint256"
        }
      ],
      "stateMutability": "view",
      "type": "function"
    },
    {
      "inputs": [],
      "name": "publicSaleIsActive",
      "outputs": [
        {
          "internalType": "bool",
          "name": "",
          "type": "bool"
        }
      ],
      "stateMutability": "view",
      "type": "function"
    },
    {
      "inputs": [],
      "name": "publicSaleMaxSupply",
      "outputs": [
        {
          "internalType": "uint256",
          "name": "",
          "type": "uint256"
        }
      ],
      "stateMutability": "view",
      "type": "function"
    },
    {
      "inputs": [
        {
          "internalType": "uint256",
          "name": "count",
          "type": "uint256"
        }
      ],
      "name": "publicSaleMintWithEth",
      "outputs": [],
      "stateMutability": "payable",
      "type": "function"
    },
    {
      "inputs": [
        {
          "internalType": "uint256",
          "name": "count",
          "type": "uint256"
        }
      ],
      "name": "publicSaleMintWithShib",
      "outputs": [],
      "stateMutability": "nonpayable",
      "type": "function"
    },
    {
      "inputs": [],
      "name": "publicSaleStart",
      "outputs": [
        {
          "internalType": "uint256",
          "name": "",
          "type": "uint256"
        }
      ],
      "stateMutability": "view",
      "type": "function"
    },
    {
      "inputs": [],
      "name": "publicsalePerWallet",
      "outputs": [
        {
          "internalType": "uint256",
          "name": "",
          "type": "uint256"
        }
      ],
      "stateMutability": "view",
      "type": "function"
    },
    {
      "inputs": [],
      "name": "publicsalePriceInEth",
      "outputs": [
        {
          "internalType": "uint256",
          "name": "",
          "type": "uint256"
        }
      ],
      "stateMutability": "view",
      "type": "function"
    },
    {
      "inputs": [],
      "name": "publicsalePriceInShib",
      "outputs": [
        {
          "internalType": "uint256",
          "name": "",
          "type": "uint256"
        }
      ],
      "stateMutability": "view",
      "type": "function"
    },
    {
      "inputs": [],
      "name": "renounceOwnership",
      "outputs": [],
      "stateMutability": "nonpayable",
      "type": "function"
    },
    {
      "inputs": [
        {
          "internalType": "address",
          "name": "from",
          "type": "address"
        },
        {
          "internalType": "address",
          "name": "to",
          "type": "address"
        },
        {
          "internalType": "uint256[]",
          "name": "ids",
          "type": "uint256[]"
        },
        {
          "internalType": "uint256[]",
          "name": "amounts",
          "type": "uint256[]"
        },
        {
          "internalType": "bytes",
          "name": "data",
          "type": "bytes"
        }
      ],
      "name": "safeBatchTransferFrom",
      "outputs": [],
      "stateMutability": "nonpayable",
      "type": "function"
    },
    {
      "inputs": [
        {
          "internalType": "address",
          "name": "from",
          "type": "address"
        },
        {
          "internalType": "address",
          "name": "to",
          "type": "address"
        },
        {
          "internalType": "uint256",
          "name": "id",
          "type": "uint256"
        },
        {
          "internalType": "uint256",
          "name": "amount",
          "type": "uint256"
        },
        {
          "internalType": "bytes",
          "name": "data",
          "type": "bytes"
        }
      ],
      "name": "safeTransferFrom",
      "outputs": [],
      "stateMutability": "nonpayable",
      "type": "function"
    },
    {
      "inputs": [
        {
          "internalType": "address",
          "name": "operator",
          "type": "address"
        },
        {
          "internalType": "bool",
          "name": "approved",
          "type": "bool"
        }
      ],
      "name": "setApprovalForAll",
      "outputs": [],
      "stateMutability": "nonpayable",
      "type": "function"
    },
    {
      "inputs": [
        {
          "internalType": "uint256",
          "name": "timestamp",
          "type": "uint256"
        }
      ],
      "name": "setPreSaleStart",
      "outputs": [],
      "stateMutability": "nonpayable",
      "type": "function"
    },
    {
      "inputs": [
        {
          "internalType": "uint256",
          "name": "price",
          "type": "uint256"
        }
      ],
      "name": "setPresaleShibPrice",
      "outputs": [],
      "stateMutability": "nonpayable",
      "type": "function"
    },
    {
      "inputs": [
        {
          "internalType": "uint256",
          "name": "timestamp",
          "type": "uint256"
        }
      ],
      "name": "setPublicSaleStart",
      "outputs": [],
      "stateMutability": "nonpayable",
      "type": "function"
    },
    {
      "inputs": [
        {
          "internalType": "uint256",
          "name": "price",
          "type": "uint256"
        }
      ],
      "name": "setPublicsaleShibPrice",
      "outputs": [],
      "stateMutability": "nonpayable",
      "type": "function"
    },
    {
      "inputs": [
        {
          "internalType": "address",
          "name": "_shib",
          "type": "address"
        }
      ],
      "name": "setShib",
      "outputs": [],
      "stateMutability": "nonpayable",
      "type": "function"
    },
    {
      "inputs": [
        {
          "internalType": "string",
          "name": "uri",
          "type": "string"
        }
      ],
      "name": "setURI",
      "outputs": [],
      "stateMutability": "nonpayable",
      "type": "function"
    },
    {
      "inputs": [
        {
          "internalType": "bytes32",
          "name": "_root",
          "type": "bytes32"
        }
      ],
      "name": "setWhitelistRoot",
      "outputs": [],
      "stateMutability": "nonpayable",
      "type": "function"
    },
    {
      "inputs": [],
      "name": "shib",
      "outputs": [
        {
          "internalType": "address",
          "name": "",
          "type": "address"
        }
      ],
      "stateMutability": "view",
      "type": "function"
    },
    {
      "inputs": [
        {
          "internalType": "bytes4",
          "name": "interfaceId",
          "type": "bytes4"
        }
      ],
      "name": "supportsInterface",
      "outputs": [
        {
          "internalType": "bool",
          "name": "",
          "type": "bool"
        }
      ],
      "stateMutability": "view",
      "type": "function"
    },
    {
      "inputs": [],
      "name": "symbol",
      "outputs": [
        {
          "internalType": "string",
          "name": "",
          "type": "string"
        }
      ],
      "stateMutability": "view",
      "type": "function"
    },
    {
      "inputs": [],
      "name": "totalSupply",
      "outputs": [
        {
          "internalType": "uint256",
          "name": "",
          "type": "uint256"
        }
      ],
      "stateMutability": "view",
      "type": "function"
    },
    {
      "inputs": [
        {
          "internalType": "address",
          "name": "newOwner",
          "type": "address"
        }
      ],
      "name": "transferOwnership",
      "outputs": [],
      "stateMutability": "nonpayable",
      "type": "function"
    },
    {
      "inputs": [
        {
          "internalType": "uint256",
          "name": "",
          "type": "uint256"
        }
      ],
      "name": "uri",
      "outputs": [
        {
          "internalType": "string",
          "name": "",
          "type": "string"
        }
      ],
      "stateMutability": "view",
      "type": "function"
    },
    {
      "inputs": [],
      "name": "withdraw",
      "outputs": [],
      "stateMutability": "nonpayable",
      "type": "function"
    }
  ],
  "transactionHash": "0x2f867abde3c6500a717b7bda8944e5a5230714818c89d623f708dfd1286c8328",
  "args": [
    "0xa3fa8ecd3a22b3596a752b0c3984fe21c62aa4c8bb4bba2006ef049fb209d429",
    "https://ipfs.io/ipfs/QmQtN81i9eNrD3wxcr67scDpLvZDDXxbmAvNXMaZh3D6tB/"
  ],
  "solcInputHash": "c2e23026eda27a26b3fdfb3836afd7b9",
  "bytecode": "0x608060405260006006556a066f0222d28f57292400006007556a08459508334a94a29c0000600855600980546001600160a01b03199081167395ad61b0a150d79219dcf64e1e6cc01f0b64c4ce17909155600a80549091167301cb52008400316898535ef77d2844746fdd90e51790556362304e90600b556362c8e510600c553480156200008c57600080fd5b506040516200359b3803806200359b833981016040819052620000af91620001e9565b8181620000bc81620000d8565b50620000c833620000f1565b6004555050600160055562000320565b8051620000ed90600290602084019062000143565b5050565b600380546001600160a01b038381166001600160a01b0319831681179093556040519116919082907f8be0079c531659141344cd1fd0a4f28419497f9722a3daafe3b4186f6b6457e090600090a35050565b8280546200015190620002cd565b90600052602060002090601f016020900481019282620001755760008555620001c0565b82601f106200019057805160ff1916838001178555620001c0565b82800160010185558215620001c0579182015b82811115620001c0578251825591602001919060010190620001a3565b50620001ce929150620001d2565b5090565b5b80821115620001ce5760008155600101620001d3565b60008060408385031215620001fc578182fd5b8251602080850151919350906001600160401b03808211156200021d578384fd5b818601915086601f83011262000231578384fd5b8151818111156200024657620002466200030a565b604051601f8201601f19908116603f011681019083821181831017156200027157620002716200030a565b81604052828152898684870101111562000289578687fd5b8693505b82841015620002ac57848401860151818501870152928501926200028d565b82841115620002bd57868684830101525b8096505050505050509250929050565b600181811c90821680620002e257607f821691505b602082108114156200030457634e487b7160e01b600052602260045260246000fd5b50919050565b634e487b7160e01b600052604160045260246000fd5b61326b80620003306000396000f3fe6080604052600436106102555760003560e01c80634e1273f411610149578063a22cb465116100c6578063eb817ebb1161008a578063f2fde38b11610064578063f2fde38b14610716578063f5aa406d14610736578063faa6d8d01461075657600080fd5b8063eb817ebb146106ce578063f0558c40146106e3578063f242432a146106f657600080fd5b8063a22cb46514610605578063ca4b208b14610625578063cbfbce2d14610645578063d67b06c114610665578063e985e9c51461068557600080fd5b80638cf1d5631161010d5780638cf1d563146105765780638da5cb5b1461058b57806395d89b41146105a9578063a18116f1146105da578063a1dd2c07146105ef57600080fd5b80634e1273f4146104de5780635b4b56291461050b57806365fcfd241461052b578063715018a61461054b5780637ebe626d1461056057600080fd5b806318160ddd116101d75780633360caa01161019b5780633360caa0146104485780633726b0a21461045e5780633ccfd60b146104965780634401dcfe146104ab57806345b5a4d8146104be57600080fd5b806318160ddd146103cb5780631f0234d8146103e1578063267e91fa146103f6578063292fef371461040c5780632eb2c2d61461042857600080fd5b80630ca282f71161021e5780630ca282f7146103415780630d5624b3146103615780630e89341c146103775780630fcf2e751461039757806314c95ddc146103af57600080fd5b8062fdd58e1461025a57806301ffc9a71461028d57806302fe5305146102bd57806306fdde03146102df5780630af1224314610321575b600080fd5b34801561026657600080fd5b5061027a610275366004612ca2565b610776565b6040519081526020015b60405180910390f35b34801561029957600080fd5b506102ad6102a8366004612d9b565b61080d565b6040519015158152602001610284565b3480156102c957600080fd5b506102dd6102d8366004612dd3565b61085f565b005b3480156102eb57600080fd5b506103146040518060400160405280600981526020016853686962654661636560b81b81525081565b6040516102849190613012565b34801561032d57600080fd5b506102dd61033c366004612d83565b6108b3565b34801561034d57600080fd5b506102dd61035c366004612d83565b61096a565b34801561036d57600080fd5b5061027a600b5481565b34801561038357600080fd5b50610314610392366004612d83565b6109b7565b3480156103a357600080fd5b50600c544210156102ad565b3480156103bb57600080fd5b5061027a670162ea854d0fc00081565b3480156103d757600080fd5b5061027a60065481565b3480156103ed57600080fd5b506102ad610a4b565b34801561040257600080fd5b5061027a60085481565b34801561041857600080fd5b5061027a6701140bbd030c400081565b34801561043457600080fd5b506102dd610443366004612b63565b610a66565b34801561045457600080fd5b5061027a600c5481565b34801561046a57600080fd5b5060095461047e906001600160a01b031681565b6040516001600160a01b039091168152602001610284565b3480156104a257600080fd5b506102dd610b08565b6102dd6104b9366004612e31565b610e8f565b3480156104ca57600080fd5b506102dd6104d9366004612b17565b610ef4565b3480156104ea57600080fd5b506104fe6104f9366004612d06565b610f6b565b6040516102849190612fd1565b34801561051757600080fd5b506102dd610526366004612e31565b6110cd565b34801561053757600080fd5b506102dd610546366004612d83565b611186565b34801561055757600080fd5b506102dd6111d3565b34801561056c57600080fd5b5061027a60075481565b34801561058257600080fd5b5061027a600c81565b34801561059757600080fd5b506003546001600160a01b031661047e565b3480156105b557600080fd5b5061031460405180604001604052806005815260200164534849424560d81b81525081565b3480156105e657600080fd5b5061027a606f81565b3480156105fb57600080fd5b5061027a6101bc81565b34801561061157600080fd5b506102dd610620366004612c6c565b611227565b34801561063157600080fd5b50600a5461047e906001600160a01b031681565b34801561065157600080fd5b506102dd610660366004612d83565b611236565b34801561067157600080fd5b506102dd610680366004612ccb565b611283565b34801561069157600080fd5b506102ad6106a0366004612b31565b6001600160a01b03918216600090815260016020908152604080832093909416825291909152205460ff1690565b3480156106da57600080fd5b5061027a600281565b6102dd6106f1366004612d83565b61138d565b34801561070257600080fd5b506102dd610711366004612c09565b6113eb565b34801561072257600080fd5b506102dd610731366004612b17565b611472565b34801561074257600080fd5b506102dd610751366004612d83565b611528565b34801561076257600080fd5b506102dd610771366004612d83565b611575565b60006001600160a01b0383166107e75760405162461bcd60e51b815260206004820152602b60248201527f455243313135353a2062616c616e636520717565727920666f7220746865207a60448201526a65726f206164647265737360a81b60648201526084015b60405180910390fd5b506000908152602081815260408083206001600160a01b03949094168352929052205490565b60006001600160e01b03198216636cdb3d1360e11b148061083e57506001600160e01b031982166303a24d0760e21b145b8061085957506301ffc9a760e01b6001600160e01b03198316145b92915050565b6003546001600160a01b031633146108a75760405162461bcd60e51b8152602060048201819052602482015260008051602061321683398151915260448201526064016107de565b6108b0816115c2565b50565b6009546008546001600160a01b03909116906323b872dd90339030906108d990866115d5565b6040516001600160e01b031960e086901b1681526001600160a01b0393841660048201529290911660248301526044820152606401602060405180830381600087803b15801561092857600080fd5b505af115801561093c573d6000803e3d6000fd5b505050506040513d601f19601f820116820180604052508101906109609190612d67565b506108b0816115e8565b6003546001600160a01b031633146109b25760405162461bcd60e51b8152602060048201819052602482015260008051602061321683398151915260448201526064016107de565b600c55565b6060600280546109c6906130a0565b80601f01602080910402602001604051908101604052809291908181526020018280546109f2906130a0565b8015610a3f5780601f10610a1457610100808354040283529160200191610a3f565b820191906000526020600020905b815481529060010190602001808311610a2257829003601f168201915b50505050509050919050565b600042600b5411158015610a61575042600c5410155b905090565b6001600160a01b038516331480610a825750610a8285336106a0565b610af45760405162461bcd60e51b815260206004820152603260248201527f455243313135353a207472616e736665722063616c6c6572206973206e6f742060448201527f6f776e6572206e6f7220617070726f766564000000000000000000000000000060648201526084016107de565b610b01858585858561181b565b5050505050565b6003546001600160a01b03163314610b505760405162461bcd60e51b8152602060048201819052602482015260008051602061321683398151915260448201526064016107de565b4780610b5b57600080fd5b600a80546000916001600160a01b0390911690610b789084613061565b604051600081818185875af1925050503d8060008114610bb4576040519150601f19603f3d011682016040523d82523d6000602084013e610bb9565b606091505b5050905080610c145760405162461bcd60e51b815260206004820152602160248201527f5472616e7366657220455448206661696c656420746f20646576656c6f7065726044820152601760f91b60648201526084016107de565b600033600a610c24856009613081565b610c2e9190613061565b604051600081818185875af1925050503d8060008114610c6a576040519150601f19603f3d011682016040523d82523d6000602084013e610c6f565b606091505b5050905080610cc05760405162461bcd60e51b815260206004820152601d60248201527f5472616e7366657220455448206661696c656420746f206f776e65722e00000060448201526064016107de565b6009546040516370a0823160e01b81523060048201526000916001600160a01b0316906370a082319060240160206040518083038186803b158015610d0457600080fd5b505afa158015610d18573d6000803e3d6000fd5b505050506040513d601f19601f82011682018060405250810190610d3c9190612e19565b600954600a80549293506001600160a01b039182169263a9059cbb921690610d649085613061565b6040516001600160e01b031960e085901b1681526001600160a01b0390921660048301526024820152604401602060405180830381600087803b158015610daa57600080fd5b505af1158015610dbe573d6000803e3d6000fd5b505050506040513d601f19601f82011682018060405250810190610de29190612d67565b50600980546001600160a01b03169063a9059cbb903390600a90610e07908690613081565b610e119190613061565b6040516001600160e01b031960e085901b1681526001600160a01b0390921660048301526024820152604401602060405180830381600087803b158015610e5757600080fd5b505af1158015610e6b573d6000803e3d6000fd5b505050506040513d601f19601f82011682018060405250810190610b019190612d67565b610ea16701140bbd030c4000846115d5565b341015610ee45760405162461bcd60e51b81526020600482015260116024820152702737ba1032b737bab3b41032ba3432b91760791b60448201526064016107de565b610eef838383611a95565b505050565b6003546001600160a01b03163314610f3c5760405162461bcd60e51b8152602060048201819052602482015260008051602061321683398151915260448201526064016107de565b6009805473ffffffffffffffffffffffffffffffffffffffff19166001600160a01b0392909216919091179055565b60608151835114610fd05760405162461bcd60e51b815260206004820152602960248201527f455243313135353a206163636f756e747320616e6420696473206c656e677468604482015268040dad2e6dac2e8c6d60bb1b60648201526084016107de565b6000835167ffffffffffffffff811115610ffa57634e487b7160e01b600052604160045260246000fd5b604051908082528060200260200182016040528015611023578160200160208202803683370190505b50905060005b84518110156110c55761108a85828151811061105557634e487b7160e01b600052603260045260246000fd5b602002602001015185838151811061107d57634e487b7160e01b600052603260045260246000fd5b6020026020010151610776565b8282815181106110aa57634e487b7160e01b600052603260045260246000fd5b60209081029190910101526110be81613108565b9050611029565b509392505050565b6009546007546001600160a01b03909116906323b872dd90339030906110f390886115d5565b6040516001600160e01b031960e086901b1681526001600160a01b0393841660048201529290911660248301526044820152606401602060405180830381600087803b15801561114257600080fd5b505af1158015611156573d6000803e3d6000fd5b505050506040513d601f19601f8201168201806040525081019061117a9190612d67565b50610eef838383611a95565b6003546001600160a01b031633146111ce5760405162461bcd60e51b8152602060048201819052602482015260008051602061321683398151915260448201526064016107de565b600b55565b6003546001600160a01b0316331461121b5760405162461bcd60e51b8152602060048201819052602482015260008051602061321683398151915260448201526064016107de565b6112256000611d08565b565b611232338383611d67565b5050565b6003546001600160a01b0316331461127e5760405162461bcd60e51b8152602060048201819052602482015260008051602061321683398151915260448201526064016107de565b600855565b6003546001600160a01b031633146112cb5760405162461bcd60e51b8152602060048201819052602482015260008051602061321683398151915260448201526064016107de565b6101bc81516006546112dd9190613049565b111561133d5760405162461bcd60e51b815260206004820152602960248201527f436f756e74206578636565647320746865206d6178696d756d20616c6c6f7765604482015268321039bab838363c9760b91b60648201526084016107de565b60005b81518110156112325761137b82828151811061136c57634e487b7160e01b600052603260045260246000fd5b60200260200101516001611e48565b8061138581613108565b915050611340565b61139f670162ea854d0fc000826115d5565b3410156113e25760405162461bcd60e51b81526020600482015260116024820152702737ba1032b737bab3b41032ba3432b91760791b60448201526064016107de565b6108b0816115e8565b6001600160a01b038516331480611407575061140785336106a0565b6114655760405162461bcd60e51b815260206004820152602960248201527f455243313135353a2063616c6c6572206973206e6f74206f776e6572206e6f7260448201526808185c1c1c9bdd995960ba1b60648201526084016107de565b610b018585858585612089565b6003546001600160a01b031633146114ba5760405162461bcd60e51b8152602060048201819052602482015260008051602061321683398151915260448201526064016107de565b6001600160a01b03811661151f5760405162461bcd60e51b815260206004820152602660248201527f4f776e61626c653a206e6577206f776e657220697320746865207a65726f206160448201526564647265737360d01b60648201526084016107de565b6108b081611d08565b6003546001600160a01b031633146115705760405162461bcd60e51b8152602060048201819052602482015260008051602061321683398151915260448201526064016107de565b600455565b6003546001600160a01b031633146115bd5760405162461bcd60e51b8152602060048201819052602482015260008051602061321683398151915260448201526064016107de565b600755565b8051611232906002906020840190612903565b60006115e18284613081565b9392505050565b6002600554141561163b5760405162461bcd60e51b815260206004820152601f60248201527f5265656e7472616e637947756172643a207265656e7472616e742063616c6c0060448201526064016107de565b6002600555600c544210156116925760405162461bcd60e51b815260206004820152601a60248201527f5075626c69632073616c65206973206e6f74206163746976652e00000000000060448201526064016107de565b600081116116e25760405162461bcd60e51b815260206004820152601d60248201527f436f756e74206d7573742062652067726561746572207468616e20302e00000060448201526064016107de565b336000908152600e6020526040902054600c90611700908390613049565b11156117745760405162461bcd60e51b815260206004820152603060248201527f43616e206e6f742065786365656420616d6f756e74207065722077616c6c657460448201527f20696e207075626c69632073616c652e0000000000000000000000000000000060648201526084016107de565b6101bc816006546117859190613049565b11156117e55760405162461bcd60e51b815260206004820152602960248201527f436f756e74206578636565647320746865206d6178696d756d20616c6c6f7765604482015268321039bab838363c9760b91b60648201526084016107de565b6117ef3382611e48565b336000908152600e60205260408120805483929061180e908490613049565b9091555050600160055550565b815183511461187d5760405162461bcd60e51b815260206004820152602860248201527f455243313135353a2069647320616e6420616d6f756e7473206c656e677468206044820152670dad2e6dac2e8c6d60c31b60648201526084016107de565b6001600160a01b0384166118e15760405162461bcd60e51b815260206004820152602560248201527f455243313135353a207472616e7366657220746f20746865207a65726f206164604482015264647265737360d81b60648201526084016107de565b3360005b8451811015611a2757600085828151811061191057634e487b7160e01b600052603260045260246000fd5b60200260200101519050600085838151811061193c57634e487b7160e01b600052603260045260246000fd5b602090810291909101810151600084815280835260408082206001600160a01b038e1683529093529190912054909150818110156119cf5760405162461bcd60e51b815260206004820152602a60248201527f455243313135353a20696e73756666696369656e742062616c616e636520666f60448201526939103a3930b739b332b960b11b60648201526084016107de565b6000838152602081815260408083206001600160a01b038e8116855292528083208585039055908b16825281208054849290611a0c908490613049565b9250508190555050505080611a2090613108565b90506118e5565b50846001600160a01b0316866001600160a01b0316826001600160a01b03167f4a39dc06d4c0dbc64b70af90fd698a233a518aa5d07e595d983b8c0526c8f7fb8787604051611a77929190612fe4565b60405180910390a4611a8d818787878787612230565b505050505050565b60026005541415611ae85760405162461bcd60e51b815260206004820152601f60248201527f5265656e7472616e637947756172643a207265656e7472616e742063616c6c0060448201526064016107de565b6002600555611af5610a4b565b611b415760405162461bcd60e51b815260206004820152601760248201527f5072652d73616c65206973206e6f74206163746976652e00000000000000000060448201526064016107de565b336000908152600d6020526040902054600290611b5f908590613049565b1115611bc25760405162461bcd60e51b815260206004820152602c60248201527f43616e206e6f742065786365656420616d6f756e74207065722077616c6c657460448201526b1034b710383932b9b0b6329760a11b60648201526084016107de565b604080513360601b6bffffffffffffffffffffffff19166020808301919091528251601481840301815260349092019092528051910120611c36908383808060200260200160405190810160405280939291908181526020018383602002808284376000920191909152506123e592505050565b611c6c5760405162461bcd60e51b8152602060048201526007602482015266125b9d985b1a5960ca1b60448201526064016107de565b606f60065410611cd05760405162461bcd60e51b815260206004820152602960248201527f436f756e74206578636565647320746865206d6178696d756d20616c6c6f7765604482015268321039bab838363c9760b91b60648201526084016107de565b611cda3384611e48565b336000908152600d602052604081208054859290611cf9908490613049565b90915550506001600555505050565b600380546001600160a01b0383811673ffffffffffffffffffffffffffffffffffffffff19831681179093556040519116919082907f8be0079c531659141344cd1fd0a4f28419497f9722a3daafe3b4186f6b6457e090600090a35050565b816001600160a01b0316836001600160a01b03161415611ddb5760405162461bcd60e51b815260206004820152602960248201527f455243313135353a2073657474696e6720617070726f76616c20737461747573604482015268103337b91039b2b63360b91b60648201526084016107de565b6001600160a01b03838116600081815260016020908152604080832094871680845294825291829020805460ff191686151590811790915591519182527f17307eab39ab6107e8899845ad3d59bd9653f200f220920489ca2b5937696c31910160405180910390a3505050565b600181111561200a5760008167ffffffffffffffff811115611e7a57634e487b7160e01b600052604160045260246000fd5b604051908082528060200260200182016040528015611ea3578160200160208202803683370190505b50905060008267ffffffffffffffff811115611ecf57634e487b7160e01b600052604160045260246000fd5b604051908082528060200260200182016040528015611ef8578160200160208202803683370190505b50905060005b83811015611f7f5780600654611f149190613049565b838281518110611f3457634e487b7160e01b600052603260045260246000fd5b6020026020010181815250506001828281518110611f6257634e487b7160e01b600052603260045260246000fd5b602090810291909101015280611f7781613108565b915050611efe565b50611f9b848383604051806020016040528060008152506123f4565b60005b8381101561200257846001600160a01b03167f018291e2f20a9af0218cbcc910391fef24dc869471986940aab8219e72dd43d882600654611fdf9190613049565b60405190815260200160405180910390a280611ffa81613108565b915050611f9e565b50505061206e565b612028826006546001604051806020016040528060008152506125d6565b816001600160a01b03167f018291e2f20a9af0218cbcc910391fef24dc869471986940aab8219e72dd43d860065460405161206591815260200190565b60405180910390a25b80600660008282546120809190613049565b90915550505050565b6001600160a01b0384166120ed5760405162461bcd60e51b815260206004820152602560248201527f455243313135353a207472616e7366657220746f20746865207a65726f206164604482015264647265737360d81b60648201526084016107de565b336121068187876120fd886126d7565b610b01886126d7565b6000848152602081815260408083206001600160a01b038a1684529091529020548381101561218a5760405162461bcd60e51b815260206004820152602a60248201527f455243313135353a20696e73756666696369656e742062616c616e636520666f60448201526939103a3930b739b332b960b11b60648201526084016107de565b6000858152602081815260408083206001600160a01b038b81168552925280832087850390559088168252812080548692906121c7908490613049565b909155505060408051868152602081018690526001600160a01b03808916928a821692918616917fc3d58168c5ae7397731d063d5bbf3d657854427343f4c083240f7aacaa2d0f62910160405180910390a4612227828888888888612730565b50505050505050565b6001600160a01b0384163b15611a8d5760405163bc197c8160e01b81526001600160a01b0385169063bc197c81906122749089908990889088908890600401612f30565b602060405180830381600087803b15801561228e57600080fd5b505af19250505080156122be575060408051601f3d908101601f191682019092526122bb91810190612db7565b60015b612374576122ca61314f565b806308c379a0141561230457506122df613167565b806122ea5750612306565b8060405162461bcd60e51b81526004016107de9190613012565b505b60405162461bcd60e51b815260206004820152603460248201527f455243313135353a207472616e7366657220746f206e6f6e204552433131353560448201527f526563656976657220696d706c656d656e74657200000000000000000000000060648201526084016107de565b6001600160e01b0319811663bc197c8160e01b146122275760405162461bcd60e51b815260206004820152602860248201527f455243313135353a204552433131353552656365697665722072656a656374656044820152676420746f6b656e7360c01b60648201526084016107de565b60006115e1826004548561283b565b6001600160a01b0384166124545760405162461bcd60e51b815260206004820152602160248201527f455243313135353a206d696e7420746f20746865207a65726f206164647265736044820152607360f81b60648201526084016107de565b81518351146124b65760405162461bcd60e51b815260206004820152602860248201527f455243313135353a2069647320616e6420616d6f756e7473206c656e677468206044820152670dad2e6dac2e8c6d60c31b60648201526084016107de565b3360005b845181101561256e578381815181106124e357634e487b7160e01b600052603260045260246000fd5b602002602001015160008087848151811061250e57634e487b7160e01b600052603260045260246000fd5b602002602001015181526020019081526020016000206000886001600160a01b03166001600160a01b0316815260200190815260200160002060008282546125569190613049565b9091555081905061256681613108565b9150506124ba565b50846001600160a01b031660006001600160a01b0316826001600160a01b03167f4a39dc06d4c0dbc64b70af90fd698a233a518aa5d07e595d983b8c0526c8f7fb87876040516125bf929190612fe4565b60405180910390a4610b0181600087878787612230565b6001600160a01b0384166126365760405162461bcd60e51b815260206004820152602160248201527f455243313135353a206d696e7420746f20746865207a65726f206164647265736044820152607360f81b60648201526084016107de565b33612647816000876120fd886126d7565b6000848152602081815260408083206001600160a01b038916845290915281208054859290612677908490613049565b909155505060408051858152602081018590526001600160a01b0380881692600092918516917fc3d58168c5ae7397731d063d5bbf3d657854427343f4c083240f7aacaa2d0f62910160405180910390a4610b0181600087878787612730565b6040805160018082528183019092526060916000919060208083019080368337019050509050828160008151811061271f57634e487b7160e01b600052603260045260246000fd5b602090810291909101015292915050565b6001600160a01b0384163b15611a8d5760405163f23a6e6160e01b81526001600160a01b0385169063f23a6e61906127749089908990889088908890600401612f8e565b602060405180830381600087803b15801561278e57600080fd5b505af19250505080156127be575060408051601f3d908101601f191682019092526127bb91810190612db7565b60015b6127ca576122ca61314f565b6001600160e01b0319811663f23a6e6160e01b146122275760405162461bcd60e51b815260206004820152602860248201527f455243313135353a204552433131353552656365697665722072656a656374656044820152676420746f6b656e7360c01b60648201526084016107de565b6000826128488584612851565b14949350505050565b600081815b84518110156110c557600085828151811061288157634e487b7160e01b600052603260045260246000fd5b602002602001015190508083116128c35760408051602081018590529081018290526060016040516020818303038152906040528051906020012092506128f0565b60408051602081018390529081018490526060016040516020818303038152906040528051906020012092505b50806128fb81613108565b915050612856565b82805461290f906130a0565b90600052602060002090601f0160209004810192826129315760008555612977565b82601f1061294a57805160ff1916838001178555612977565b82800160010185558215612977579182015b8281111561297757825182559160200191906001019061295c565b50612983929150612987565b5090565b5b808211156129835760008155600101612988565b600067ffffffffffffffff8311156129b6576129b6613139565b6040516129cd601f8501601f1916602001826130db565b8091508381528484840111156129e257600080fd5b83836020830137600060208583010152509392505050565b80356001600160a01b0381168114612a1157600080fd5b919050565b600082601f830112612a26578081fd5b81356020612a3382613025565b604051612a4082826130db565b8381528281019150858301600585901b87018401881015612a5f578586fd5b855b85811015612a8457612a72826129fa565b84529284019290840190600101612a61565b5090979650505050505050565b600082601f830112612aa1578081fd5b81356020612aae82613025565b604051612abb82826130db565b8381528281019150858301600585901b87018401881015612ada578586fd5b855b85811015612a8457813584529284019290840190600101612adc565b600082601f830112612b08578081fd5b6115e18383356020850161299c565b600060208284031215612b28578081fd5b6115e1826129fa565b60008060408385031215612b43578081fd5b612b4c836129fa565b9150612b5a602084016129fa565b90509250929050565b600080600080600060a08688031215612b7a578081fd5b612b83866129fa565b9450612b91602087016129fa565b9350604086013567ffffffffffffffff80821115612bad578283fd5b612bb989838a01612a91565b94506060880135915080821115612bce578283fd5b612bda89838a01612a91565b93506080880135915080821115612bef578283fd5b50612bfc88828901612af8565b9150509295509295909350565b600080600080600060a08688031215612c20578081fd5b612c29866129fa565b9450612c37602087016129fa565b93506040860135925060608601359150608086013567ffffffffffffffff811115612c60578182fd5b612bfc88828901612af8565b60008060408385031215612c7e578182fd5b612c87836129fa565b91506020830135612c97816131f1565b809150509250929050565b60008060408385031215612cb4578182fd5b612cbd836129fa565b946020939093013593505050565b600060208284031215612cdc578081fd5b813567ffffffffffffffff811115612cf2578182fd5b612cfe84828501612a16565b949350505050565b60008060408385031215612d18578182fd5b823567ffffffffffffffff80821115612d2f578384fd5b612d3b86838701612a16565b93506020850135915080821115612d50578283fd5b50612d5d85828601612a91565b9150509250929050565b600060208284031215612d78578081fd5b81516115e1816131f1565b600060208284031215612d94578081fd5b5035919050565b600060208284031215612dac578081fd5b81356115e1816131ff565b600060208284031215612dc8578081fd5b81516115e1816131ff565b600060208284031215612de4578081fd5b813567ffffffffffffffff811115612dfa578182fd5b8201601f81018413612e0a578182fd5b612cfe8482356020840161299c565b600060208284031215612e2a578081fd5b5051919050565b600080600060408486031215612e45578081fd5b83359250602084013567ffffffffffffffff80821115612e63578283fd5b818601915086601f830112612e76578283fd5b813581811115612e84578384fd5b8760208260051b8501011115612e98578384fd5b6020830194508093505050509250925092565b6000815180845260208085019450808401835b83811015612eda57815187529582019590820190600101612ebe565b509495945050505050565b60008151808452815b81811015612f0a57602081850181015186830182015201612eee565b81811115612f1b5782602083870101525b50601f01601f19169290920160200192915050565b60006001600160a01b03808816835280871660208401525060a06040830152612f5c60a0830186612eab565b8281036060840152612f6e8186612eab565b90508281036080840152612f828185612ee5565b98975050505050505050565b60006001600160a01b03808816835280871660208401525084604083015283606083015260a06080830152612fc660a0830184612ee5565b979650505050505050565b6020815260006115e16020830184612eab565b604081526000612ff76040830185612eab565b82810360208401526130098185612eab565b95945050505050565b6020815260006115e16020830184612ee5565b600067ffffffffffffffff82111561303f5761303f613139565b5060051b60200190565b6000821982111561305c5761305c613123565b500190565b60008261307c57634e487b7160e01b81526012600452602481fd5b500490565b600081600019048311821515161561309b5761309b613123565b500290565b600181811c908216806130b457607f821691505b602082108114156130d557634e487b7160e01b600052602260045260246000fd5b50919050565b601f8201601f1916810167ffffffffffffffff8111828210171561310157613101613139565b6040525050565b600060001982141561311c5761311c613123565b5060010190565b634e487b7160e01b600052601160045260246000fd5b634e487b7160e01b600052604160045260246000fd5b600060033d111561316457600481823e5160e01c5b90565b600060443d10156131755790565b6040516003193d81016004833e81513d67ffffffffffffffff81602484011181841117156131a557505050505090565b82850191508151818111156131bd5750505050505090565b843d87010160208285010111156131d75750505050505090565b6131e6602082860101876130db565b509095945050505050565b80151581146108b057600080fd5b6001600160e01b0319811681146108b057600080fdfe4f776e61626c653a2063616c6c6572206973206e6f7420746865206f776e6572a26469706673582212203c8374c8db7baf79e973b2f76b371721bbc3a01528f53d5b1add6e11407f536a64736f6c63430008040033",
  "devdoc": {
    "kind": "dev",
    "methods": {
      "balanceOf(address,uint256)": {
        "details": "See {IERC1155-balanceOf}. Requirements: - `account` cannot be the zero address."
      },
      "balanceOfBatch(address[],uint256[])": {
        "details": "See {IERC1155-balanceOfBatch}. Requirements: - `accounts` and `ids` must have the same length."
      },
      "isApprovedForAll(address,address)": {
        "details": "See {IERC1155-isApprovedForAll}."
      },
      "owner()": {
        "details": "Returns the address of the current owner."
      },
      "renounceOwnership()": {
        "details": "Leaves the contract without owner. It will not be possible to call `onlyOwner` functions anymore. Can only be called by the current owner. NOTE: Renouncing ownership will leave the contract without an owner, thereby removing any functionality that is only available to the owner."
      },
      "safeBatchTransferFrom(address,address,uint256[],uint256[],bytes)": {
        "details": "See {IERC1155-safeBatchTransferFrom}."
      },
      "safeTransferFrom(address,address,uint256,uint256,bytes)": {
        "details": "See {IERC1155-safeTransferFrom}."
      },
      "setApprovalForAll(address,bool)": {
        "details": "See {IERC1155-setApprovalForAll}."
      },
      "supportsInterface(bytes4)": {
        "details": "See {IERC165-supportsInterface}."
      },
      "transferOwnership(address)": {
        "details": "Transfers ownership of the contract to a new account (`newOwner`). Can only be called by the current owner."
      },
      "uri(uint256)": {
        "details": "See {IERC1155MetadataURI-uri}. This implementation returns the same URI for *all* token types. It relies on the token type ID substitution mechanism https://eips.ethereum.org/EIPS/eip-1155#metadata[defined in the EIP]. Clients calling this function must replace the `\\{id\\}` substring with the actual token type ID."
      }
    },
    "version": 1
  },
  "userdoc": {
    "kind": "user",
    "methods": {},
    "version": 1
  },
  "storageLayout": {
    "storage": [
      {
        "astId": 170,
        "contract": "contracts/nft.sol:ShibeFace",
        "label": "_balances",
        "offset": 0,
        "slot": "0",
        "type": "t_mapping(t_uint256,t_mapping(t_address,t_uint256))"
      },
      {
        "astId": 176,
        "contract": "contracts/nft.sol:ShibeFace",
        "label": "_operatorApprovals",
        "offset": 0,
        "slot": "1",
        "type": "t_mapping(t_address,t_mapping(t_address,t_bool))"
      },
      {
        "astId": 178,
        "contract": "contracts/nft.sol:ShibeFace",
        "label": "_uri",
        "offset": 0,
        "slot": "2",
        "type": "t_string_storage"
      },
      {
        "astId": 7,
        "contract": "contracts/nft.sol:ShibeFace",
        "label": "_owner",
        "offset": 0,
        "slot": "3",
        "type": "t_address"
      },
      {
        "astId": 4241,
        "contract": "contracts/nft.sol:ShibeFace",
        "label": "whitelist",
        "offset": 0,
        "slot": "4",
        "type": "t_bytes32"
      },
      {
        "astId": 115,
        "contract": "contracts/nft.sol:ShibeFace",
        "label": "_status",
        "offset": 0,
        "slot": "5",
        "type": "t_uint256"
      },
      {
        "astId": 2983,
        "contract": "contracts/nft.sol:ShibeFace",
        "label": "totalSupply",
        "offset": 0,
        "slot": "6",
        "type": "t_uint256"
      },
      {
        "astId": 2998,
        "contract": "contracts/nft.sol:ShibeFace",
        "label": "presalePriceInShib",
        "offset": 0,
        "slot": "7",
        "type": "t_uint256"
      },
      {
        "astId": 3001,
        "contract": "contracts/nft.sol:ShibeFace",
        "label": "publicsalePriceInShib",
        "offset": 0,
        "slot": "8",
        "type": "t_uint256"
      },
      {
        "astId": 3004,
        "contract": "contracts/nft.sol:ShibeFace",
        "label": "shib",
        "offset": 0,
        "slot": "9",
        "type": "t_address"
      },
      {
        "astId": 3007,
        "contract": "contracts/nft.sol:ShibeFace",
        "label": "developer",
        "offset": 0,
        "slot": "10",
        "type": "t_address"
      },
      {
        "astId": 3010,
        "contract": "contracts/nft.sol:ShibeFace",
        "label": "preSaleStart",
        "offset": 0,
        "slot": "11",
        "type": "t_uint256"
      },
      {
        "astId": 3016,
        "contract": "contracts/nft.sol:ShibeFace",
        "label": "publicSaleStart",
        "offset": 0,
        "slot": "12",
        "type": "t_uint256"
      },
      {
        "astId": 3023,
        "contract": "contracts/nft.sol:ShibeFace",
        "label": "whitelist",
        "offset": 0,
        "slot": "13",
        "type": "t_mapping(t_address,t_uint256)"
      },
      {
        "astId": 3027,
        "contract": "contracts/nft.sol:ShibeFace",
        "label": "publiclist",
        "offset": 0,
        "slot": "14",
        "type": "t_mapping(t_address,t_uint256)"
      }
    ],
    "types": {
      "t_address": {
        "encoding": "inplace",
        "label": "address",
        "numberOfBytes": "20"
      },
      "t_bool": {
        "encoding": "inplace",
        "label": "bool",
        "numberOfBytes": "1"
      },
      "t_bytes32": {
        "encoding": "inplace",
        "label": "bytes32",
        "numberOfBytes": "32"
      },
      "t_mapping(t_address,t_bool)": {
        "encoding": "mapping",
        "key": "t_address",
        "label": "mapping(address => bool)",
        "numberOfBytes": "32",
        "value": "t_bool"
      },
      "t_mapping(t_address,t_mapping(t_address,t_bool))": {
        "encoding": "mapping",
        "key": "t_address",
        "label": "mapping(address => mapping(address => bool))",
        "numberOfBytes": "32",
        "value": "t_mapping(t_address,t_bool)"
      },
      "t_mapping(t_address,t_uint256)": {
        "encoding": "mapping",
        "key": "t_address",
        "label": "mapping(address => uint256)",
        "numberOfBytes": "32",
        "value": "t_uint256"
      },
      "t_mapping(t_uint256,t_mapping(t_address,t_uint256))": {
        "encoding": "mapping",
        "key": "t_uint256",
        "label": "mapping(uint256 => mapping(address => uint256))",
        "numberOfBytes": "32",
        "value": "t_mapping(t_address,t_uint256)"
      },
      "t_string_storage": {
        "encoding": "bytes",
        "label": "string",
        "numberOfBytes": "32"
      },
      "t_uint256": {
        "encoding": "inplace",
        "label": "uint256",
        "numberOfBytes": "32"
      }
    }
  }
}