{
  "address": "0x9593e8d66f3dC181E9700b88399c274453EBb184",
  "abi": [
    {
      "inputs": [
        {
          "internalType": "bytes32",
          "name": "_whitelistRoot",
          "type": "bytes32"
        },
        {
          "internalType": "string",
          "name": "uri",
          "type": "string"
        }
      ],
      "stateMutability": "nonpayable",
      "type": "constructor"
    },
    {
      "anonymous": false,
      "inputs": [
        {
          "indexed": true,
          "internalType": "address",
          "name": "account",
          "type": "address"
        },
        {
          "indexed": true,
          "internalType": "address",
          "name": "operator",
          "type": "address"
        },
        {
          "indexed": false,
          "internalType": "bool",
          "name": "approved",
          "type": "bool"
        }
      ],
      "name": "ApprovalForAll",
      "type": "event"
    },
    {
      "anonymous": false,
      "inputs": [
        {
          "indexed": true,
          "internalType": "address",
          "name": "from",
          "type": "address"
        },
        {
          "indexed": false,
          "internalType": "uint256",
          "name": "tokenId",
          "type": "uint256"
        }
      ],
      "name": "CreateShib",
      "type": "event"
    },
    {
      "anonymous": false,
      "inputs": [
        {
          "indexed": true,
          "internalType": "address",
          "name": "previousOwner",
          "type": "address"
        },
        {
          "indexed": true,
          "internalType": "address",
          "name": "newOwner",
          "type": "address"
        }
      ],
      "name": "OwnershipTransferred",
      "type": "event"
    },
    {
      "anonymous": false,
      "inputs": [
        {
          "indexed": true,
          "internalType": "address",
          "name": "operator",
          "type": "address"
        },
        {
          "indexed": true,
          "internalType": "address",
          "name": "from",
          "type": "address"
        },
        {
          "indexed": true,
          "internalType": "address",
          "name": "to",
          "type": "address"
        },
        {
          "indexed": false,
          "internalType": "uint256[]",
          "name": "ids",
          "type": "uint256[]"
        },
        {
          "indexed": false,
          "internalType": "uint256[]",
          "name": "values",
          "type": "uint256[]"
        }
      ],
      "name": "TransferBatch",
      "type": "event"
    },
    {
      "anonymous": false,
      "inputs": [
        {
          "indexed": true,
          "internalType": "address",
          "name": "operator",
          "type": "address"
        },
        {
          "indexed": true,
          "internalType": "address",
          "name": "from",
          "type": "address"
        },
        {
          "indexed": true,
          "internalType": "address",
          "name": "to",
          "type": "address"
        },
        {
          "indexed": false,
          "internalType": "uint256",
          "name": "id",
          "type": "uint256"
        },
        {
          "indexed": false,
          "internalType": "uint256",
          "name": "value",
          "type": "uint256"
        }
      ],
      "name": "TransferSingle",
      "type": "event"
    },
    {
      "anonymous": false,
      "inputs": [
        {
          "indexed": false,
          "internalType": "string",
          "name": "value",
          "type": "string"
        },
        {
          "indexed": true,
          "internalType": "uint256",
          "name": "id",
          "type": "uint256"
        }
      ],
      "name": "URI",
      "type": "event"
    },
    {
      "inputs": [
        {
          "internalType": "address",
          "name": "account",
          "type": "address"
        },
        {
          "internalType": "uint256",
          "name": "id",
          "type": "uint256"
        }
      ],
      "name": "balanceOf",
      "outputs": [
        {
          "internalType": "uint256",
          "name": "",
          "type": "uint256"
        }
      ],
      "stateMutability": "view",
      "type": "function"
    },
    {
      "inputs": [
        {
          "internalType": "address[]",
          "name": "accounts",
          "type": "address[]"
        },
        {
          "internalType": "uint256[]",
          "name": "ids",
          "type": "uint256[]"
        }
      ],
      "name": "balanceOfBatch",
      "outputs": [
        {
          "internalType": "uint256[]",
          "name": "",
          "type": "uint256[]"
        }
      ],
      "stateMutability": "view",
      "type": "function"
    },
    {
      "inputs": [
        {
          "internalType": "address[]",
          "name": "addresses",
          "type": "address[]"
        }
      ],
      "name": "batchMint",
      "outputs": [],
      "stateMutability": "nonpayable",
      "type": "function"
    },
    {
      "inputs": [],
      "name": "developer",
      "outputs": [
        {
          "internalType": "address",
          "name": "",
          "type": "address"
        }
      ],
      "stateMutability": "view",
      "type": "function"
    },
    {
      "inputs": [
        {
          "internalType": "address",
          "name": "account",
          "type": "address"
        },
        {
          "internalType": "address",
          "name": "operator",
          "type": "address"
        }
      ],
      "name": "isApprovedForAll",
      "outputs": [
        {
          "internalType": "bool",
          "name": "",
          "type": "bool"
        }
      ],
      "stateMutability": "view",
      "type": "function"
    },
    {
      "inputs": [],
      "name": "name",
      "outputs": [
        {
          "internalType": "string",
          "name": "",
          "type": "string"
        }
      ],
      "stateMutability": "view",
      "type": "function"
    },
    {
      "inputs": [],
      "name": "owner",
      "outputs": [
        {
          "internalType": "address",
          "name": "",
          "type": "address"
        }
      ],
      "stateMutability": "view",
      "type": "function"
    },
    {
      "inputs": [],
      "name": "preSaleIsActive",
      "outputs": [
        {
          "internalType": "bool",
          "name": "",
          "type": "bool"
        }
      ],
      "stateMutability": "view",
      "type": "function"
    },
    {
      "inputs": [],
      "name": "preSaleMaxSupply",
      "outputs": [
        {
          "internalType": "uint256",
          "name": "",
          "type": "uint256"
        }
      ],
      "stateMutability": "view",
      "type": "function"
    },
    {
      "inputs": [
        {
          "internalType": "bytes32[]",
          "name": "proof",
          "type": "bytes32[]"
        }
      ],
      "name": "preSaleMintWithEth",
      "outputs": [],
      "stateMutability": "payable",
      "type": "function"
    },
    {
      "inputs": [
        {
          "internalType": "bytes32[]",
          "name": "proof",
          "type": "bytes32[]"
        }
      ],
      "name": "preSaleMintWithShib",
      "outputs": [],
      "stateMutability": "nonpayable",
      "type": "function"
    },
    {
      "inputs": [],
      "name": "preSaleStart",
      "outputs": [
        {
          "internalType": "uint256",
          "name": "",
          "type": "uint256"
        }
      ],
      "stateMutability": "view",
      "type": "function"
    },
    {
      "inputs": [],
      "name": "presalePriceInEth",
      "outputs": [
        {
          "internalType": "uint256",
          "name": "",
          "type": "uint256"
        }
      ],
      "stateMutability": "view",
      "type": "function"
    },
    {
      "inputs": [],
      "name": "presalePriceInShib",
      "outputs": [
        {
          "internalType": "uint256",
          "name": "",
          "type": "uint256"
        }
      ],
      "stateMutability": "view",
      "type": "function"
    },
    {
      "inputs": [],
      "name": "publicSaleIsActive",
      "outputs": [
        {
          "internalType": "bool",
          "name": "",
          "type": "bool"
        }
      ],
      "stateMutability": "view",
      "type": "function"
    },
    {
      "inputs": [],
      "name": "publicSaleMaxSupply",
      "outputs": [
        {
          "internalType": "uint256",
          "name": "",
          "type": "uint256"
        }
      ],
      "stateMutability": "view",
      "type": "function"
    },
    {
      "inputs": [
        {
          "internalType": "uint256",
          "name": "count",
          "type": "uint256"
        }
      ],
      "name": "publicSaleMintWithEth",
      "outputs": [],
      "stateMutability": "payable",
      "type": "function"
    },
    {
      "inputs": [
        {
          "internalType": "uint256",
          "name": "count",
          "type": "uint256"
        }
      ],
      "name": "publicSaleMintWithShib",
      "outputs": [],
      "stateMutability": "nonpayable",
      "type": "function"
    },
    {
      "inputs": [],
      "name": "publicSaleStart",
      "outputs": [
        {
          "internalType": "uint256",
          "name": "",
          "type": "uint256"
        }
      ],
      "stateMutability": "view",
      "type": "function"
    },
    {
      "inputs": [],
      "name": "publicsalePriceInEth",
      "outputs": [
        {
          "internalType": "uint256",
          "name": "",
          "type": "uint256"
        }
      ],
      "stateMutability": "view",
      "type": "function"
    },
    {
      "inputs": [],
      "name": "publicsalePriceInShib",
      "outputs": [
        {
          "internalType": "uint256",
          "name": "",
          "type": "uint256"
        }
      ],
      "stateMutability": "view",
      "type": "function"
    },
    {
      "inputs": [],
      "name": "renounceOwnership",
      "outputs": [],
      "stateMutability": "nonpayable",
      "type": "function"
    },
    {
      "inputs": [
        {
          "internalType": "address",
          "name": "from",
          "type": "address"
        },
        {
          "internalType": "address",
          "name": "to",
          "type": "address"
        },
        {
          "internalType": "uint256[]",
          "name": "ids",
          "type": "uint256[]"
        },
        {
          "internalType": "uint256[]",
          "name": "amounts",
          "type": "uint256[]"
        },
        {
          "internalType": "bytes",
          "name": "data",
          "type": "bytes"
        }
      ],
      "name": "safeBatchTransferFrom",
      "outputs": [],
      "stateMutability": "nonpayable",
      "type": "function"
    },
    {
      "inputs": [
        {
          "internalType": "address",
          "name": "from",
          "type": "address"
        },
        {
          "internalType": "address",
          "name": "to",
          "type": "address"
        },
        {
          "internalType": "uint256",
          "name": "id",
          "type": "uint256"
        },
        {
          "internalType": "uint256",
          "name": "amount",
          "type": "uint256"
        },
        {
          "internalType": "bytes",
          "name": "data",
          "type": "bytes"
        }
      ],
      "name": "safeTransferFrom",
      "outputs": [],
      "stateMutability": "nonpayable",
      "type": "function"
    },
    {
      "inputs": [
        {
          "internalType": "address",
          "name": "operator",
          "type": "address"
        },
        {
          "internalType": "bool",
          "name": "approved",
          "type": "bool"
        }
      ],
      "name": "setApprovalForAll",
      "outputs": [],
      "stateMutability": "nonpayable",
      "type": "function"
    },
    {
      "inputs": [
        {
          "internalType": "uint256",
          "name": "timestamp",
          "type": "uint256"
        }
      ],
      "name": "setPreSaleStart",
      "outputs": [],
      "stateMutability": "nonpayable",
      "type": "function"
    },
    {
      "inputs": [
        {
          "internalType": "uint256",
          "name": "timestamp",
          "type": "uint256"
        }
      ],
      "name": "setPublicSaleStart",
      "outputs": [],
      "stateMutability": "nonpayable",
      "type": "function"
    },
    {
      "inputs": [
        {
          "internalType": "address",
          "name": "_shib",
          "type": "address"
        }
      ],
      "name": "setShib",
      "outputs": [],
      "stateMutability": "nonpayable",
      "type": "function"
    },
    {
      "inputs": [
        {
          "internalType": "string",
          "name": "uri",
          "type": "string"
        }
      ],
      "name": "setURI",
      "outputs": [],
      "stateMutability": "nonpayable",
      "type": "function"
    },
    {
      "inputs": [
        {
          "internalType": "bytes32",
          "name": "_root",
          "type": "bytes32"
        }
      ],
      "name": "setWhitelistRoot",
      "outputs": [],
      "stateMutability": "nonpayable",
      "type": "function"
    },
    {
      "inputs": [],
      "name": "shib",
      "outputs": [
        {
          "internalType": "address",
          "name": "",
          "type": "address"
        }
      ],
      "stateMutability": "view",
      "type": "function"
    },
    {
      "inputs": [
        {
          "internalType": "bytes4",
          "name": "interfaceId",
          "type": "bytes4"
        }
      ],
      "name": "supportsInterface",
      "outputs": [
        {
          "internalType": "bool",
          "name": "",
          "type": "bool"
        }
      ],
      "stateMutability": "view",
      "type": "function"
    },
    {
      "inputs": [],
      "name": "symbol",
      "outputs": [
        {
          "internalType": "string",
          "name": "",
          "type": "string"
        }
      ],
      "stateMutability": "view",
      "type": "function"
    },
    {
      "inputs": [],
      "name": "totalSupply",
      "outputs": [
        {
          "internalType": "uint256",
          "name": "",
          "type": "uint256"
        }
      ],
      "stateMutability": "view",
      "type": "function"
    },
    {
      "inputs": [
        {
          "internalType": "address",
          "name": "newOwner",
          "type": "address"
        }
      ],
      "name": "transferOwnership",
      "outputs": [],
      "stateMutability": "nonpayable",
      "type": "function"
    },
    {
      "inputs": [
        {
          "internalType": "uint256",
          "name": "",
          "type": "uint256"
        }
      ],
      "name": "uri",
      "outputs": [
        {
          "internalType": "string",
          "name": "",
          "type": "string"
        }
      ],
      "stateMutability": "view",
      "type": "function"
    },
    {
      "inputs": [],
      "name": "withdraw",
      "outputs": [],
      "stateMutability": "nonpayable",
      "type": "function"
    }
  ],
  "transactionHash": "0xd3a3b5d6d47c5b3fe748894f96c5d55370040728b467f30e9c1137c988ec7187",
  "args": [
    "0xa3fa8ecd3a22b3596a752b0c3984fe21c62aa4c8bb4bba2006ef049fb209d429",
    "https://ipfs.io/ipfs/QmQtN81i9eNrD3wxcr67scDpLvZDDXxbmAvNXMaZh3D6tB/"
  ],
  "solcInputHash": "d42d21a62d038684c63f8277bac240b8",
  "bytecode": "0x60806040526000600655600780546001600160a01b03199081167395ad61b0a150d79219dcf64e1e6cc01f0b64c4ce179091556008805490911673eac458b2f78b8cb37c9471a9a0723b4aa6b4c62d1790556362304e906009556362c8e510600a553480156200006e57600080fd5b50604051620032ae380380620032ae8339810160408190526200009191620001cb565b81816200009e81620000ba565b50620000aa33620000d3565b6004555050600160055562000302565b8051620000cf90600290602084019062000125565b5050565b600380546001600160a01b038381166001600160a01b0319831681179093556040519116919082907f8be0079c531659141344cd1fd0a4f28419497f9722a3daafe3b4186f6b6457e090600090a35050565b8280546200013390620002af565b90600052602060002090601f016020900481019282620001575760008555620001a2565b82601f106200017257805160ff1916838001178555620001a2565b82800160010185558215620001a2579182015b82811115620001a257825182559160200191906001019062000185565b50620001b0929150620001b4565b5090565b5b80821115620001b05760008155600101620001b5565b60008060408385031215620001de578182fd5b8251602080850151919350906001600160401b0380821115620001ff578384fd5b818601915086601f83011262000213578384fd5b815181811115620002285762000228620002ec565b604051601f8201601f19908116603f01168101908382118183101715620002535762000253620002ec565b8160405282815289868487010111156200026b578687fd5b8693505b828410156200028e57848401860151818501870152928501926200026f565b828411156200029f57868684830101525b8096505050505050509250929050565b600181811c90821680620002c457607f821691505b60208210811415620002e657634e487b7160e01b600052602260045260246000fd5b50919050565b634e487b7160e01b600052604160045260246000fd5b612f9c80620003126000396000f3fe6080604052600436106102195760003560e01c806345b5a4d811610123578063a18116f1116100ab578063e985e9c51161006f578063e985e9c514610626578063f0558c401461066f578063f242432a14610682578063f2fde38b146106a2578063f5aa406d146106c257600080fd5b8063a18116f11461059b578063a1dd2c07146105b0578063a22cb465146105c6578063ca4b208b146105e6578063d67b06c11461060657600080fd5b8063715018a6116100f2578063715018a6146105055780637ebe626d1461051a5780638da5cb5b1461053957806394e00d241461055757806395d89b411461056a57600080fd5b806345b5a4d8146104785780634e1273f41461049857806365fcfd24146104c55780636cb21602146104e557600080fd5b806314c95ddc116101a6578063292fef3711610175578063292fef37146103d95780632eb2c2d6146103f55780633360caa0146104155780633726b0a21461042b5780633ccfd60b1461046357600080fd5b806314c95ddc1461037357806318160ddd1461038f5780631f0234d8146103a5578063267e91fa146103ba57600080fd5b80630af12243116101ed5780630af12243146102e55780630ca282f7146103055780630d5624b3146103255780630e89341c1461033b5780630fcf2e751461035b57600080fd5b8062fdd58e1461021e57806301ffc9a71461025157806302fe53051461028157806306fdde03146102a3575b600080fd5b34801561022a57600080fd5b5061023e6102393660046129dd565b6106e2565b6040519081526020015b60405180910390f35b34801561025d57600080fd5b5061027161026c366004612b46565b610779565b6040519015158152602001610248565b34801561028d57600080fd5b506102a161029c366004612b7e565b6107cb565b005b3480156102af57600080fd5b506102d86040518060400160405280600981526020016853686962654661636560b81b81525081565b6040516102489190612d43565b3480156102f157600080fd5b506102a1610300366004612b2e565b61081f565b34801561031157600080fd5b506102a1610320366004612b2e565b6108bd565b34801561033157600080fd5b5061023e60095481565b34801561034757600080fd5b506102d8610356366004612b2e565b61090a565b34801561036757600080fd5b50600a54421015610271565b34801561037f57600080fd5b5061023e670162ea854d0fc00081565b34801561039b57600080fd5b5061023e60065481565b3480156103b157600080fd5b5061027161099e565b3480156103c657600080fd5b5061023e6a08459508334a94a29c000081565b3480156103e557600080fd5b5061023e6701140bbd030c400081565b34801561040157600080fd5b506102a161041036600461289e565b6109b9565b34801561042157600080fd5b5061023e600a5481565b34801561043757600080fd5b5060075461044b906001600160a01b031681565b6040516001600160a01b039091168152602001610248565b34801561046f57600080fd5b506102a1610a5b565b34801561048457600080fd5b506102a1610493366004612852565b610dd9565b3480156104a457600080fd5b506104b86104b3366004612a41565b610e50565b6040516102489190612d02565b3480156104d157600080fd5b506102a16104e0366004612b2e565b610fb2565b3480156104f157600080fd5b506102a1610500366004612aa2565b610fff565b34801561051157600080fd5b506102a16110a2565b34801561052657600080fd5b5061023e6a066f0222d28f572924000081565b34801561054557600080fd5b506003546001600160a01b031661044b565b6102a1610565366004612aa2565b6110f6565b34801561057657600080fd5b506102d860405180604001604052806005815260200164534849424560d81b81525081565b3480156105a757600080fd5b5061023e606f81565b3480156105bc57600080fd5b5061023e61014d81565b3480156105d257600080fd5b506102a16105e13660046129a7565b61114c565b3480156105f257600080fd5b5060085461044b906001600160a01b031681565b34801561061257600080fd5b506102a1610621366004612a06565b611157565b34801561063257600080fd5b5061027161064136600461286c565b6001600160a01b03918216600090815260016020908152604080832093909416825291909152205460ff1690565b6102a161067d366004612b2e565b611261565b34801561068e57600080fd5b506102a161069d366004612944565b6112bf565b3480156106ae57600080fd5b506102a16106bd366004612852565b611346565b3480156106ce57600080fd5b506102a16106dd366004612b2e565b6113fc565b60006001600160a01b0383166107535760405162461bcd60e51b815260206004820152602b60248201527f455243313135353a2062616c616e636520717565727920666f7220746865207a60448201526a65726f206164647265737360a81b60648201526084015b60405180910390fd5b506000908152602081815260408083206001600160a01b03949094168352929052205490565b60006001600160e01b03198216636cdb3d1360e11b14806107aa57506001600160e01b031982166303a24d0760e21b145b806107c557506301ffc9a760e01b6001600160e01b03198316145b92915050565b6003546001600160a01b031633146108135760405162461bcd60e51b81526020600482018190526024820152600080516020612f47833981519152604482015260640161074a565b61081c81611449565b50565b6007546040516323b872dd60e01b81523360048201523060248201526a08459508334a94a29c000060448201526001600160a01b03909116906323b872dd90606401602060405180830381600087803b15801561087b57600080fd5b505af115801561088f573d6000803e3d6000fd5b505050506040513d601f19601f820116820180604052508101906108b39190612b12565b5061081c8161145c565b6003546001600160a01b031633146109055760405162461bcd60e51b81526020600482018190526024820152600080516020612f47833981519152604482015260640161074a565b600a55565b60606002805461091990612dd1565b80601f016020809104026020016040519081016040528092919081815260200182805461094590612dd1565b80156109925780601f1061096757610100808354040283529160200191610992565b820191906000526020600020905b81548152906001019060200180831161097557829003601f168201915b50505050509050919050565b600042600954111580156109b4575042600a5410155b905090565b6001600160a01b0385163314806109d557506109d58533610641565b610a475760405162461bcd60e51b815260206004820152603260248201527f455243313135353a207472616e736665722063616c6c6572206973206e6f742060448201527f6f776e6572206e6f7220617070726f7665640000000000000000000000000000606482015260840161074a565b610a548585858585611579565b5050505050565b6003546001600160a01b03163314610aa35760405162461bcd60e51b81526020600482018190526024820152600080516020612f47833981519152604482015260640161074a565b4780610aae57600080fd5b6008546000906001600160a01b0316610ac8600a84612d92565b604051600081818185875af1925050503d8060008114610b04576040519150601f19603f3d011682016040523d82523d6000602084013e610b09565b606091505b5050905080610b645760405162461bcd60e51b815260206004820152602160248201527f5472616e7366657220455448206661696c656420746f20646576656c6f7065726044820152601760f91b606482015260840161074a565b600033600a610b74856009612db2565b610b7e9190612d92565b604051600081818185875af1925050503d8060008114610bba576040519150601f19603f3d011682016040523d82523d6000602084013e610bbf565b606091505b5050905080610c105760405162461bcd60e51b815260206004820152601d60248201527f5472616e7366657220455448206661696c656420746f206f776e65722e000000604482015260640161074a565b6007546040516370a0823160e01b81523060048201526000916001600160a01b0316906370a082319060240160206040518083038186803b158015610c5457600080fd5b505afa158015610c68573d6000803e3d6000fd5b505050506040513d601f19601f82011682018060405250810190610c8c9190612bc4565b6007546008549192506001600160a01b039081169163a9059cbb9116610cb3600a85612d92565b6040516001600160e01b031960e085901b1681526001600160a01b0390921660048301526024820152604401602060405180830381600087803b158015610cf957600080fd5b505af1158015610d0d573d6000803e3d6000fd5b505050506040513d601f19601f82011682018060405250810190610d319190612b12565b506007546001600160a01b031663a9059cbb33600a610d51856009612db2565b610d5b9190612d92565b6040516001600160e01b031960e085901b1681526001600160a01b0390921660048301526024820152604401602060405180830381600087803b158015610da157600080fd5b505af1158015610db5573d6000803e3d6000fd5b505050506040513d601f19601f82011682018060405250810190610a549190612b12565b6003546001600160a01b03163314610e215760405162461bcd60e51b81526020600482018190526024820152600080516020612f47833981519152604482015260640161074a565b6007805473ffffffffffffffffffffffffffffffffffffffff19166001600160a01b0392909216919091179055565b60608151835114610eb55760405162461bcd60e51b815260206004820152602960248201527f455243313135353a206163636f756e747320616e6420696473206c656e677468604482015268040dad2e6dac2e8c6d60bb1b606482015260840161074a565b6000835167ffffffffffffffff811115610edf57634e487b7160e01b600052604160045260246000fd5b604051908082528060200260200182016040528015610f08578160200160208202803683370190505b50905060005b8451811015610faa57610f6f858281518110610f3a57634e487b7160e01b600052603260045260246000fd5b6020026020010151858381518110610f6257634e487b7160e01b600052603260045260246000fd5b60200260200101516106e2565b828281518110610f8f57634e487b7160e01b600052603260045260246000fd5b6020908102919091010152610fa381612e39565b9050610f0e565b509392505050565b6003546001600160a01b03163314610ffa5760405162461bcd60e51b81526020600482018190526024820152600080516020612f47833981519152604482015260640161074a565b600955565b6007546040516323b872dd60e01b81523360048201523060248201526a066f0222d28f572924000060448201526001600160a01b03909116906323b872dd90606401602060405180830381600087803b15801561105b57600080fd5b505af115801561106f573d6000803e3d6000fd5b505050506040513d601f19601f820116820180604052508101906110939190612b12565b5061109e82826117f3565b5050565b6003546001600160a01b031633146110ea5760405162461bcd60e51b81526020600482018190526024820152600080516020612f47833981519152604482015260640161074a565b6110f46000611a3c565b565b6701140bbd030c40003410156111425760405162461bcd60e51b81526020600482015260116024820152702737ba1032b737bab3b41032ba3432b91760791b604482015260640161074a565b61109e82826117f3565b61109e338383611a9b565b6003546001600160a01b0316331461119f5760405162461bcd60e51b81526020600482018190526024820152600080516020612f47833981519152604482015260640161074a565b61014d81516006546111b19190612d7a565b11156112115760405162461bcd60e51b815260206004820152602960248201527f436f756e74206578636565647320746865206d6178696d756d20616c6c6f7765604482015268321039bab838363c9760b91b606482015260840161074a565b60005b815181101561109e5761124f82828151811061124057634e487b7160e01b600052603260045260246000fd5b60200260200101516001611b7c565b8061125981612e39565b915050611214565b61127381670162ea854d0fc000612db2565b3410156112b65760405162461bcd60e51b81526020600482015260116024820152702737ba1032b737bab3b41032ba3432b91760791b604482015260640161074a565b61081c8161145c565b6001600160a01b0385163314806112db57506112db8533610641565b6113395760405162461bcd60e51b815260206004820152602960248201527f455243313135353a2063616c6c6572206973206e6f74206f776e6572206e6f7260448201526808185c1c1c9bdd995960ba1b606482015260840161074a565b610a548585858585611dbd565b6003546001600160a01b0316331461138e5760405162461bcd60e51b81526020600482018190526024820152600080516020612f47833981519152604482015260640161074a565b6001600160a01b0381166113f35760405162461bcd60e51b815260206004820152602660248201527f4f776e61626c653a206e6577206f776e657220697320746865207a65726f206160448201526564647265737360d01b606482015260840161074a565b61081c81611a3c565b6003546001600160a01b031633146114445760405162461bcd60e51b81526020600482018190526024820152600080516020612f47833981519152604482015260640161074a565b600455565b805161109e90600290602084019061263e565b600a544210156114ae5760405162461bcd60e51b815260206004820152601a60248201527f5075626c69632073616c65206973206e6f74206163746976652e000000000000604482015260640161074a565b600081116114fe5760405162461bcd60e51b815260206004820152601d60248201527f436f756e74206d7573742062652067726561746572207468616e20302e000000604482015260640161074a565b61014d8160065461150f9190612d7a565b111561156f5760405162461bcd60e51b815260206004820152602960248201527f436f756e74206578636565647320746865206d6178696d756d20616c6c6f7765604482015268321039bab838363c9760b91b606482015260840161074a565b61081c3382611b7c565b81518351146115db5760405162461bcd60e51b815260206004820152602860248201527f455243313135353a2069647320616e6420616d6f756e7473206c656e677468206044820152670dad2e6dac2e8c6d60c31b606482015260840161074a565b6001600160a01b03841661163f5760405162461bcd60e51b815260206004820152602560248201527f455243313135353a207472616e7366657220746f20746865207a65726f206164604482015264647265737360d81b606482015260840161074a565b3360005b845181101561178557600085828151811061166e57634e487b7160e01b600052603260045260246000fd5b60200260200101519050600085838151811061169a57634e487b7160e01b600052603260045260246000fd5b602090810291909101810151600084815280835260408082206001600160a01b038e16835290935291909120549091508181101561172d5760405162461bcd60e51b815260206004820152602a60248201527f455243313135353a20696e73756666696369656e742062616c616e636520666f60448201526939103a3930b739b332b960b11b606482015260840161074a565b6000838152602081815260408083206001600160a01b038e8116855292528083208585039055908b1682528120805484929061176a908490612d7a565b925050819055505050508061177e90612e39565b9050611643565b50846001600160a01b0316866001600160a01b0316826001600160a01b03167f4a39dc06d4c0dbc64b70af90fd698a233a518aa5d07e595d983b8c0526c8f7fb87876040516117d5929190612d15565b60405180910390a46117eb818787878787611f64565b505050505050565b600260055414156118465760405162461bcd60e51b815260206004820152601f60248201527f5265656e7472616e637947756172643a207265656e7472616e742063616c6c00604482015260640161074a565b600260055561185361099e565b61189f5760405162461bcd60e51b815260206004820152601760248201527f5072652d73616c65206973206e6f74206163746976652e000000000000000000604482015260640161074a565b336000908152600b602052604090205460ff16156118ff5760405162461bcd60e51b815260206004820152601060248201527f416c726561647920636c61696d65642e00000000000000000000000000000000604482015260640161074a565b604080513360601b6bffffffffffffffffffffffff191660208083019190915282516014818403018152603490920190925280519101206119739083838080602002602001604051908101604052809392919081815260200183836020028082843760009201919091525061211992505050565b6119a95760405162461bcd60e51b8152602060048201526007602482015266125b9d985b1a5960ca1b604482015260640161074a565b606f60065410611a0d5760405162461bcd60e51b815260206004820152602960248201527f436f756e74206578636565647320746865206d6178696d756d20616c6c6f7765604482015268321039bab838363c9760b91b606482015260840161074a565b611a18336001611b7c565b5050336000908152600b60205260409020805460ff19166001908117909155600555565b600380546001600160a01b0383811673ffffffffffffffffffffffffffffffffffffffff19831681179093556040519116919082907f8be0079c531659141344cd1fd0a4f28419497f9722a3daafe3b4186f6b6457e090600090a35050565b816001600160a01b0316836001600160a01b03161415611b0f5760405162461bcd60e51b815260206004820152602960248201527f455243313135353a2073657474696e6720617070726f76616c20737461747573604482015268103337b91039b2b63360b91b606482015260840161074a565b6001600160a01b03838116600081815260016020908152604080832094871680845294825291829020805460ff191686151590811790915591519182527f17307eab39ab6107e8899845ad3d59bd9653f200f220920489ca2b5937696c31910160405180910390a3505050565b6001811115611d3e5760008167ffffffffffffffff811115611bae57634e487b7160e01b600052604160045260246000fd5b604051908082528060200260200182016040528015611bd7578160200160208202803683370190505b50905060008267ffffffffffffffff811115611c0357634e487b7160e01b600052604160045260246000fd5b604051908082528060200260200182016040528015611c2c578160200160208202803683370190505b50905060005b83811015611cb35780600654611c489190612d7a565b838281518110611c6857634e487b7160e01b600052603260045260246000fd5b6020026020010181815250506001828281518110611c9657634e487b7160e01b600052603260045260246000fd5b602090810291909101015280611cab81612e39565b915050611c32565b50611ccf8483836040518060200160405280600081525061212f565b60005b83811015611d3657846001600160a01b03167f018291e2f20a9af0218cbcc910391fef24dc869471986940aab8219e72dd43d882600654611d139190612d7a565b60405190815260200160405180910390a280611d2e81612e39565b915050611cd2565b505050611da2565b611d5c82600654600160405180602001604052806000815250612311565b816001600160a01b03167f018291e2f20a9af0218cbcc910391fef24dc869471986940aab8219e72dd43d8600654604051611d9991815260200190565b60405180910390a25b8060066000828254611db49190612d7a565b90915550505050565b6001600160a01b038416611e215760405162461bcd60e51b815260206004820152602560248201527f455243313135353a207472616e7366657220746f20746865207a65726f206164604482015264647265737360d81b606482015260840161074a565b33611e3a818787611e3188612412565b610a5488612412565b6000848152602081815260408083206001600160a01b038a16845290915290205483811015611ebe5760405162461bcd60e51b815260206004820152602a60248201527f455243313135353a20696e73756666696369656e742062616c616e636520666f60448201526939103a3930b739b332b960b11b606482015260840161074a565b6000858152602081815260408083206001600160a01b038b8116855292528083208785039055908816825281208054869290611efb908490612d7a565b909155505060408051868152602081018690526001600160a01b03808916928a821692918616917fc3d58168c5ae7397731d063d5bbf3d657854427343f4c083240f7aacaa2d0f62910160405180910390a4611f5b82888888888861246b565b50505050505050565b6001600160a01b0384163b156117eb5760405163bc197c8160e01b81526001600160a01b0385169063bc197c8190611fa89089908990889088908890600401612c61565b602060405180830381600087803b158015611fc257600080fd5b505af1925050508015611ff2575060408051601f3d908101601f19168201909252611fef91810190612b62565b60015b6120a857611ffe612e80565b806308c379a014156120385750612013612e98565b8061201e575061203a565b8060405162461bcd60e51b815260040161074a9190612d43565b505b60405162461bcd60e51b815260206004820152603460248201527f455243313135353a207472616e7366657220746f206e6f6e204552433131353560448201527f526563656976657220696d706c656d656e746572000000000000000000000000606482015260840161074a565b6001600160e01b0319811663bc197c8160e01b14611f5b5760405162461bcd60e51b815260206004820152602860248201527f455243313135353a204552433131353552656365697665722072656a656374656044820152676420746f6b656e7360c01b606482015260840161074a565b60006121288260045485612576565b9392505050565b6001600160a01b03841661218f5760405162461bcd60e51b815260206004820152602160248201527f455243313135353a206d696e7420746f20746865207a65726f206164647265736044820152607360f81b606482015260840161074a565b81518351146121f15760405162461bcd60e51b815260206004820152602860248201527f455243313135353a2069647320616e6420616d6f756e7473206c656e677468206044820152670dad2e6dac2e8c6d60c31b606482015260840161074a565b3360005b84518110156122a95783818151811061221e57634e487b7160e01b600052603260045260246000fd5b602002602001015160008087848151811061224957634e487b7160e01b600052603260045260246000fd5b602002602001015181526020019081526020016000206000886001600160a01b03166001600160a01b0316815260200190815260200160002060008282546122919190612d7a565b909155508190506122a181612e39565b9150506121f5565b50846001600160a01b031660006001600160a01b0316826001600160a01b03167f4a39dc06d4c0dbc64b70af90fd698a233a518aa5d07e595d983b8c0526c8f7fb87876040516122fa929190612d15565b60405180910390a4610a5481600087878787611f64565b6001600160a01b0384166123715760405162461bcd60e51b815260206004820152602160248201527f455243313135353a206d696e7420746f20746865207a65726f206164647265736044820152607360f81b606482015260840161074a565b3361238281600087611e3188612412565b6000848152602081815260408083206001600160a01b0389168452909152812080548592906123b2908490612d7a565b909155505060408051858152602081018590526001600160a01b0380881692600092918516917fc3d58168c5ae7397731d063d5bbf3d657854427343f4c083240f7aacaa2d0f62910160405180910390a4610a548160008787878761246b565b6040805160018082528183019092526060916000919060208083019080368337019050509050828160008151811061245a57634e487b7160e01b600052603260045260246000fd5b602090810291909101015292915050565b6001600160a01b0384163b156117eb5760405163f23a6e6160e01b81526001600160a01b0385169063f23a6e61906124af9089908990889088908890600401612cbf565b602060405180830381600087803b1580156124c957600080fd5b505af19250505080156124f9575060408051601f3d908101601f191682019092526124f691810190612b62565b60015b61250557611ffe612e80565b6001600160e01b0319811663f23a6e6160e01b14611f5b5760405162461bcd60e51b815260206004820152602860248201527f455243313135353a204552433131353552656365697665722072656a656374656044820152676420746f6b656e7360c01b606482015260840161074a565b600082612583858461258c565b14949350505050565b600081815b8451811015610faa5760008582815181106125bc57634e487b7160e01b600052603260045260246000fd5b602002602001015190508083116125fe57604080516020810185905290810182905260600160405160208183030381529060405280519060200120925061262b565b60408051602081018390529081018490526060016040516020818303038152906040528051906020012092505b508061263681612e39565b915050612591565b82805461264a90612dd1565b90600052602060002090601f01602090048101928261266c57600085556126b2565b82601f1061268557805160ff19168380011785556126b2565b828001600101855582156126b2579182015b828111156126b2578251825591602001919060010190612697565b506126be9291506126c2565b5090565b5b808211156126be57600081556001016126c3565b600067ffffffffffffffff8311156126f1576126f1612e6a565b604051612708601f8501601f191660200182612e0c565b80915083815284848401111561271d57600080fd5b83836020830137600060208583010152509392505050565b80356001600160a01b038116811461274c57600080fd5b919050565b600082601f830112612761578081fd5b8135602061276e82612d56565b60405161277b8282612e0c565b8381528281019150858301600585901b8701840188101561279a578586fd5b855b858110156127bf576127ad82612735565b8452928401929084019060010161279c565b5090979650505050505050565b600082601f8301126127dc578081fd5b813560206127e982612d56565b6040516127f68282612e0c565b8381528281019150858301600585901b87018401881015612815578586fd5b855b858110156127bf57813584529284019290840190600101612817565b600082601f830112612843578081fd5b612128838335602085016126d7565b600060208284031215612863578081fd5b61212882612735565b6000806040838503121561287e578081fd5b61288783612735565b915061289560208401612735565b90509250929050565b600080600080600060a086880312156128b5578081fd5b6128be86612735565b94506128cc60208701612735565b9350604086013567ffffffffffffffff808211156128e8578283fd5b6128f489838a016127cc565b94506060880135915080821115612909578283fd5b61291589838a016127cc565b9350608088013591508082111561292a578283fd5b5061293788828901612833565b9150509295509295909350565b600080600080600060a0868803121561295b578081fd5b61296486612735565b945061297260208701612735565b93506040860135925060608601359150608086013567ffffffffffffffff81111561299b578182fd5b61293788828901612833565b600080604083850312156129b9578182fd5b6129c283612735565b915060208301356129d281612f22565b809150509250929050565b600080604083850312156129ef578182fd5b6129f883612735565b946020939093013593505050565b600060208284031215612a17578081fd5b813567ffffffffffffffff811115612a2d578182fd5b612a3984828501612751565b949350505050565b60008060408385031215612a53578182fd5b823567ffffffffffffffff80821115612a6a578384fd5b612a7686838701612751565b93506020850135915080821115612a8b578283fd5b50612a98858286016127cc565b9150509250929050565b60008060208385031215612ab4578182fd5b823567ffffffffffffffff80821115612acb578384fd5b818501915085601f830112612ade578384fd5b813581811115612aec578485fd5b8660208260051b8501011115612b00578485fd5b60209290920196919550909350505050565b600060208284031215612b23578081fd5b815161212881612f22565b600060208284031215612b3f578081fd5b5035919050565b600060208284031215612b57578081fd5b813561212881612f30565b600060208284031215612b73578081fd5b815161212881612f30565b600060208284031215612b8f578081fd5b813567ffffffffffffffff811115612ba5578182fd5b8201601f81018413612bb5578182fd5b612a39848235602084016126d7565b600060208284031215612bd5578081fd5b5051919050565b6000815180845260208085019450808401835b83811015612c0b57815187529582019590820190600101612bef565b509495945050505050565b60008151808452815b81811015612c3b57602081850181015186830182015201612c1f565b81811115612c4c5782602083870101525b50601f01601f19169290920160200192915050565b60006001600160a01b03808816835280871660208401525060a06040830152612c8d60a0830186612bdc565b8281036060840152612c9f8186612bdc565b90508281036080840152612cb38185612c16565b98975050505050505050565b60006001600160a01b03808816835280871660208401525084604083015283606083015260a06080830152612cf760a0830184612c16565b979650505050505050565b6020815260006121286020830184612bdc565b604081526000612d286040830185612bdc565b8281036020840152612d3a8185612bdc565b95945050505050565b6020815260006121286020830184612c16565b600067ffffffffffffffff821115612d7057612d70612e6a565b5060051b60200190565b60008219821115612d8d57612d8d612e54565b500190565b600082612dad57634e487b7160e01b81526012600452602481fd5b500490565b6000816000190483118215151615612dcc57612dcc612e54565b500290565b600181811c90821680612de557607f821691505b60208210811415612e0657634e487b7160e01b600052602260045260246000fd5b50919050565b601f8201601f1916810167ffffffffffffffff81118282101715612e3257612e32612e6a565b6040525050565b6000600019821415612e4d57612e4d612e54565b5060010190565b634e487b7160e01b600052601160045260246000fd5b634e487b7160e01b600052604160045260246000fd5b600060033d1115612e9557600481823e5160e01c5b90565b600060443d1015612ea65790565b6040516003193d81016004833e81513d67ffffffffffffffff8160248401118184111715612ed657505050505090565b8285019150815181811115612eee5750505050505090565b843d8701016020828501011115612f085750505050505090565b612f1760208286010187612e0c565b509095945050505050565b801515811461081c57600080fd5b6001600160e01b03198116811461081c57600080fdfe4f776e61626c653a2063616c6c6572206973206e6f7420746865206f776e6572a264697066735822122041b8e1fdb59eb3ebb33223eddebfbfccaa87276ebf77e479f7b2dd1f56e7128464736f6c63430008040033",
  "devdoc": {
    "kind": "dev",
    "methods": {
      "balanceOf(address,uint256)": {
        "details": "See {IERC1155-balanceOf}. Requirements: - `account` cannot be the zero address."
      },
      "balanceOfBatch(address[],uint256[])": {
        "details": "See {IERC1155-balanceOfBatch}. Requirements: - `accounts` and `ids` must have the same length."
      },
      "isApprovedForAll(address,address)": {
        "details": "See {IERC1155-isApprovedForAll}."
      },
      "owner()": {
        "details": "Returns the address of the current owner."
      },
      "renounceOwnership()": {
        "details": "Leaves the contract without owner. It will not be possible to call `onlyOwner` functions anymore. Can only be called by the current owner. NOTE: Renouncing ownership will leave the contract without an owner, thereby removing any functionality that is only available to the owner."
      },
      "safeBatchTransferFrom(address,address,uint256[],uint256[],bytes)": {
        "details": "See {IERC1155-safeBatchTransferFrom}."
      },
      "safeTransferFrom(address,address,uint256,uint256,bytes)": {
        "details": "See {IERC1155-safeTransferFrom}."
      },
      "setApprovalForAll(address,bool)": {
        "details": "See {IERC1155-setApprovalForAll}."
      },
      "supportsInterface(bytes4)": {
        "details": "See {IERC165-supportsInterface}."
      },
      "transferOwnership(address)": {
        "details": "Transfers ownership of the contract to a new account (`newOwner`). Can only be called by the current owner."
      },
      "uri(uint256)": {
        "details": "See {IERC1155MetadataURI-uri}. This implementation returns the same URI for *all* token types. It relies on the token type ID substitution mechanism https://eips.ethereum.org/EIPS/eip-1155#metadata[defined in the EIP]. Clients calling this function must replace the `\\{id\\}` substring with the actual token type ID."
      }
    },
    "version": 1
  },
  "userdoc": {
    "kind": "user",
    "methods": {},
    "version": 1
  },
  "storageLayout": {
    "storage": [
      {
        "astId": 170,
        "contract": "contracts/nft.sol:ShibeFace",
        "label": "_balances",
        "offset": 0,
        "slot": "0",
        "type": "t_mapping(t_uint256,t_mapping(t_address,t_uint256))"
      },
      {
        "astId": 176,
        "contract": "contracts/nft.sol:ShibeFace",
        "label": "_operatorApprovals",
        "offset": 0,
        "slot": "1",
        "type": "t_mapping(t_address,t_mapping(t_address,t_bool))"
      },
      {
        "astId": 178,
        "contract": "contracts/nft.sol:ShibeFace",
        "label": "_uri",
        "offset": 0,
        "slot": "2",
        "type": "t_string_storage"
      },
      {
        "astId": 7,
        "contract": "contracts/nft.sol:ShibeFace",
        "label": "_owner",
        "offset": 0,
        "slot": "3",
        "type": "t_address"
      },
      {
        "astId": 3849,
        "contract": "contracts/nft.sol:ShibeFace",
        "label": "whitelist",
        "offset": 0,
        "slot": "4",
        "type": "t_bytes32"
      },
      {
        "astId": 115,
        "contract": "contracts/nft.sol:ShibeFace",
        "label": "_status",
        "offset": 0,
        "slot": "5",
        "type": "t_uint256"
      },
      {
        "astId": 2667,
        "contract": "contracts/nft.sol:ShibeFace",
        "label": "totalSupply",
        "offset": 0,
        "slot": "6",
        "type": "t_uint256"
      },
      {
        "astId": 2682,
        "contract": "contracts/nft.sol:ShibeFace",
        "label": "shib",
        "offset": 0,
        "slot": "7",
        "type": "t_address"
      },
      {
        "astId": 2685,
        "contract": "contracts/nft.sol:ShibeFace",
        "label": "developer",
        "offset": 0,
        "slot": "8",
        "type": "t_address"
      },
      {
        "astId": 2688,
        "contract": "contracts/nft.sol:ShibeFace",
        "label": "preSaleStart",
        "offset": 0,
        "slot": "9",
        "type": "t_uint256"
      },
      {
        "astId": 2694,
        "contract": "contracts/nft.sol:ShibeFace",
        "label": "publicSaleStart",
        "offset": 0,
        "slot": "10",
        "type": "t_uint256"
      },
      {
        "astId": 2701,
        "contract": "contracts/nft.sol:ShibeFace",
        "label": "whitelist",
        "offset": 0,
        "slot": "11",
        "type": "t_mapping(t_address,t_bool)"
      }
    ],
    "types": {
      "t_address": {
        "encoding": "inplace",
        "label": "address",
        "numberOfBytes": "20"
      },
      "t_bool": {
        "encoding": "inplace",
        "label": "bool",
        "numberOfBytes": "1"
      },
      "t_bytes32": {
        "encoding": "inplace",
        "label": "bytes32",
        "numberOfBytes": "32"
      },
      "t_mapping(t_address,t_bool)": {
        "encoding": "mapping",
        "key": "t_address",
        "label": "mapping(address => bool)",
        "numberOfBytes": "32",
        "value": "t_bool"
      },
      "t_mapping(t_address,t_mapping(t_address,t_bool))": {
        "encoding": "mapping",
        "key": "t_address",
        "label": "mapping(address => mapping(address => bool))",
        "numberOfBytes": "32",
        "value": "t_mapping(t_address,t_bool)"
      },
      "t_mapping(t_address,t_uint256)": {
        "encoding": "mapping",
        "key": "t_address",
        "label": "mapping(address => uint256)",
        "numberOfBytes": "32",
        "value": "t_uint256"
      },
      "t_mapping(t_uint256,t_mapping(t_address,t_uint256))": {
        "encoding": "mapping",
        "key": "t_uint256",
        "label": "mapping(uint256 => mapping(address => uint256))",
        "numberOfBytes": "32",
        "value": "t_mapping(t_address,t_uint256)"
      },
      "t_string_storage": {
        "encoding": "bytes",
        "label": "string",
        "numberOfBytes": "32"
      },
      "t_uint256": {
        "encoding": "inplace",
        "label": "uint256",
        "numberOfBytes": "32"
      }
    }
  }
}