{
  "address": "0x2Fce639926Fb7667d9DC4De8ACa379C4AA5ace0a",
  "abi": [
    {
      "inputs": [
        {
          "internalType": "address",
          "name": "_contract",
          "type": "address"
        }
      ],
      "stateMutability": "nonpayable",
      "type": "constructor"
    },
    {
      "anonymous": false,
      "inputs": [
        {
          "indexed": true,
          "internalType": "address",
          "name": "owner",
          "type": "address"
        },
        {
          "indexed": true,
          "internalType": "address",
          "name": "spender",
          "type": "address"
        },
        {
          "indexed": false,
          "internalType": "uint256",
          "name": "value",
          "type": "uint256"
        }
      ],
      "name": "Approval",
      "type": "event"
    },
    {
      "anonymous": false,
      "inputs": [
        {
          "indexed": true,
          "internalType": "address",
          "name": "previousOwner",
          "type": "address"
        },
        {
          "indexed": true,
          "internalType": "address",
          "name": "newOwner",
          "type": "address"
        }
      ],
      "name": "OwnershipTransferred",
      "type": "event"
    },
    {
      "anonymous": false,
      "inputs": [
        {
          "indexed": true,
          "internalType": "address",
          "name": "from",
          "type": "address"
        },
        {
          "indexed": true,
          "internalType": "address",
          "name": "to",
          "type": "address"
        },
        {
          "indexed": false,
          "internalType": "uint256",
          "name": "value",
          "type": "uint256"
        }
      ],
      "name": "Transfer",
      "type": "event"
    },
    {
      "inputs": [],
      "name": "MAX_SUPPLY",
      "outputs": [
        {
          "internalType": "uint256",
          "name": "",
          "type": "uint256"
        }
      ],
      "stateMutability": "view",
      "type": "function"
    },
    {
      "inputs": [],
      "name": "NFT_ADDRESS",
      "outputs": [
        {
          "internalType": "address",
          "name": "",
          "type": "address"
        }
      ],
      "stateMutability": "view",
      "type": "function"
    },
    {
      "inputs": [
        {
          "internalType": "address",
          "name": "owner",
          "type": "address"
        },
        {
          "internalType": "address",
          "name": "spender",
          "type": "address"
        }
      ],
      "name": "allowance",
      "outputs": [
        {
          "internalType": "uint256",
          "name": "",
          "type": "uint256"
        }
      ],
      "stateMutability": "view",
      "type": "function"
    },
    {
      "inputs": [
        {
          "internalType": "address",
          "name": "spender",
          "type": "address"
        },
        {
          "internalType": "uint256",
          "name": "amount",
          "type": "uint256"
        }
      ],
      "name": "approve",
      "outputs": [
        {
          "internalType": "bool",
          "name": "",
          "type": "bool"
        }
      ],
      "stateMutability": "nonpayable",
      "type": "function"
    },
    {
      "inputs": [
        {
          "internalType": "address",
          "name": "account",
          "type": "address"
        }
      ],
      "name": "balanceOf",
      "outputs": [
        {
          "internalType": "uint256",
          "name": "",
          "type": "uint256"
        }
      ],
      "stateMutability": "view",
      "type": "function"
    },
    {
      "inputs": [
        {
          "internalType": "uint256",
          "name": "amount",
          "type": "uint256"
        }
      ],
      "name": "burn",
      "outputs": [],
      "stateMutability": "nonpayable",
      "type": "function"
    },
    {
      "inputs": [
        {
          "internalType": "address",
          "name": "account",
          "type": "address"
        },
        {
          "internalType": "uint256",
          "name": "amount",
          "type": "uint256"
        }
      ],
      "name": "burnFrom",
      "outputs": [],
      "stateMutability": "nonpayable",
      "type": "function"
    },
    {
      "inputs": [],
      "name": "claimAll",
      "outputs": [],
      "stateMutability": "nonpayable",
      "type": "function"
    },
    {
      "inputs": [],
      "name": "decimals",
      "outputs": [
        {
          "internalType": "uint8",
          "name": "",
          "type": "uint8"
        }
      ],
      "stateMutability": "view",
      "type": "function"
    },
    {
      "inputs": [
        {
          "internalType": "address",
          "name": "spender",
          "type": "address"
        },
        {
          "internalType": "uint256",
          "name": "subtractedValue",
          "type": "uint256"
        }
      ],
      "name": "decreaseAllowance",
      "outputs": [
        {
          "internalType": "bool",
          "name": "",
          "type": "bool"
        }
      ],
      "stateMutability": "nonpayable",
      "type": "function"
    },
    {
      "inputs": [
        {
          "internalType": "address",
          "name": "staker",
          "type": "address"
        }
      ],
      "name": "getAllRewards",
      "outputs": [
        {
          "internalType": "uint256",
          "name": "",
          "type": "uint256"
        }
      ],
      "stateMutability": "view",
      "type": "function"
    },
    {
      "inputs": [
        {
          "internalType": "address",
          "name": "staker",
          "type": "address"
        }
      ],
      "name": "getStakedAmount",
      "outputs": [
        {
          "internalType": "uint256",
          "name": "",
          "type": "uint256"
        }
      ],
      "stateMutability": "view",
      "type": "function"
    },
    {
      "inputs": [
        {
          "internalType": "address",
          "name": "staker",
          "type": "address"
        }
      ],
      "name": "getStakedNFT",
      "outputs": [
        {
          "internalType": "uint256[]",
          "name": "",
          "type": "uint256[]"
        }
      ],
      "stateMutability": "view",
      "type": "function"
    },
    {
      "inputs": [
        {
          "internalType": "uint256",
          "name": "tokenId",
          "type": "uint256"
        }
      ],
      "name": "getStaker",
      "outputs": [
        {
          "internalType": "address",
          "name": "",
          "type": "address"
        }
      ],
      "stateMutability": "view",
      "type": "function"
    },
    {
      "inputs": [
        {
          "internalType": "address",
          "name": "spender",
          "type": "address"
        },
        {
          "internalType": "uint256",
          "name": "addedValue",
          "type": "uint256"
        }
      ],
      "name": "increaseAllowance",
      "outputs": [
        {
          "internalType": "bool",
          "name": "",
          "type": "bool"
        }
      ],
      "stateMutability": "nonpayable",
      "type": "function"
    },
    {
      "inputs": [],
      "name": "live",
      "outputs": [
        {
          "internalType": "bool",
          "name": "",
          "type": "bool"
        }
      ],
      "stateMutability": "view",
      "type": "function"
    },
    {
      "inputs": [],
      "name": "name",
      "outputs": [
        {
          "internalType": "string",
          "name": "",
          "type": "string"
        }
      ],
      "stateMutability": "view",
      "type": "function"
    },
    {
      "inputs": [
        {
          "internalType": "address",
          "name": "",
          "type": "address"
        },
        {
          "internalType": "address",
          "name": "",
          "type": "address"
        },
        {
          "internalType": "uint256[]",
          "name": "",
          "type": "uint256[]"
        },
        {
          "internalType": "uint256[]",
          "name": "",
          "type": "uint256[]"
        },
        {
          "internalType": "bytes",
          "name": "",
          "type": "bytes"
        }
      ],
      "name": "onERC1155BatchReceived",
      "outputs": [
        {
          "internalType": "bytes4",
          "name": "",
          "type": "bytes4"
        }
      ],
      "stateMutability": "pure",
      "type": "function"
    },
    {
      "inputs": [
        {
          "internalType": "address",
          "name": "",
          "type": "address"
        },
        {
          "internalType": "address",
          "name": "",
          "type": "address"
        },
        {
          "internalType": "uint256",
          "name": "",
          "type": "uint256"
        },
        {
          "internalType": "uint256",
          "name": "",
          "type": "uint256"
        },
        {
          "internalType": "bytes",
          "name": "",
          "type": "bytes"
        }
      ],
      "name": "onERC1155Received",
      "outputs": [
        {
          "internalType": "bytes4",
          "name": "",
          "type": "bytes4"
        }
      ],
      "stateMutability": "pure",
      "type": "function"
    },
    {
      "inputs": [],
      "name": "owner",
      "outputs": [
        {
          "internalType": "address",
          "name": "",
          "type": "address"
        }
      ],
      "stateMutability": "view",
      "type": "function"
    },
    {
      "inputs": [],
      "name": "renounceOwnership",
      "outputs": [],
      "stateMutability": "nonpayable",
      "type": "function"
    },
    {
      "inputs": [
        {
          "internalType": "uint256[]",
          "name": "tokenIds",
          "type": "uint256[]"
        }
      ],
      "name": "stakeNFTById",
      "outputs": [],
      "stateMutability": "nonpayable",
      "type": "function"
    },
    {
      "inputs": [
        {
          "internalType": "bytes4",
          "name": "interfaceId",
          "type": "bytes4"
        }
      ],
      "name": "supportsInterface",
      "outputs": [
        {
          "internalType": "bool",
          "name": "",
          "type": "bool"
        }
      ],
      "stateMutability": "pure",
      "type": "function"
    },
    {
      "inputs": [],
      "name": "symbol",
      "outputs": [
        {
          "internalType": "string",
          "name": "",
          "type": "string"
        }
      ],
      "stateMutability": "view",
      "type": "function"
    },
    {
      "inputs": [],
      "name": "toggle",
      "outputs": [],
      "stateMutability": "nonpayable",
      "type": "function"
    },
    {
      "inputs": [],
      "name": "totalSupply",
      "outputs": [
        {
          "internalType": "uint256",
          "name": "",
          "type": "uint256"
        }
      ],
      "stateMutability": "view",
      "type": "function"
    },
    {
      "inputs": [
        {
          "internalType": "address",
          "name": "recipient",
          "type": "address"
        },
        {
          "internalType": "uint256",
          "name": "amount",
          "type": "uint256"
        }
      ],
      "name": "transfer",
      "outputs": [
        {
          "internalType": "bool",
          "name": "",
          "type": "bool"
        }
      ],
      "stateMutability": "nonpayable",
      "type": "function"
    },
    {
      "inputs": [
        {
          "internalType": "address",
          "name": "sender",
          "type": "address"
        },
        {
          "internalType": "address",
          "name": "recipient",
          "type": "address"
        },
        {
          "internalType": "uint256",
          "name": "amount",
          "type": "uint256"
        }
      ],
      "name": "transferFrom",
      "outputs": [
        {
          "internalType": "bool",
          "name": "",
          "type": "bool"
        }
      ],
      "stateMutability": "nonpayable",
      "type": "function"
    },
    {
      "inputs": [
        {
          "internalType": "address",
          "name": "newOwner",
          "type": "address"
        }
      ],
      "name": "transferOwnership",
      "outputs": [],
      "stateMutability": "nonpayable",
      "type": "function"
    },
    {
      "inputs": [],
      "name": "unstakeAll",
      "outputs": [],
      "stateMutability": "nonpayable",
      "type": "function"
    },
    {
      "inputs": [
        {
          "internalType": "uint256[]",
          "name": "tokenIds",
          "type": "uint256[]"
        }
      ],
      "name": "unstakeNFTByIds",
      "outputs": [],
      "stateMutability": "nonpayable",
      "type": "function"
    }
  ],
  "transactionHash": "0x699d1dad01720e30e1db5f914cb4eb5d6a31ca54ef2b2818d8b3d41593e2394b",
  "args": [
    "0x73Ad3E95F28Ef69aDD9b40A47314c9c50C13C96a"
  ],
  "solcInputHash": "c2e23026eda27a26b3fdfb3836afd7b9",
  "bytecode": "0x60806040526005805460ff60a01b191690553480156200001e57600080fd5b5060405162001f8f38038062001f8f8339810160408190526200004191620002d5565b60408051808201825260058082526414dadc9b1b60da1b60208084018281528551808701909652928552840152815191929162000081916003916200022f565b508051620000979060049060208401906200022f565b505050620000b4620000ae620000f160201b60201c565b620000f5565b620000cb336a52b7d2dcc80cd2e400000062000147565b600980546001600160a01b0319166001600160a01b039290921691909117905562000367565b3390565b600580546001600160a01b038381166001600160a01b0319831681179093556040519116919082907f8be0079c531659141344cd1fd0a4f28419497f9722a3daafe3b4186f6b6457e090600090a35050565b6001600160a01b038216620001a25760405162461bcd60e51b815260206004820152601f60248201527f45524332303a206d696e7420746f20746865207a65726f206164647265737300604482015260640160405180910390fd5b8060026000828254620001b6919062000305565b90915550506001600160a01b03821660009081526020819052604081208054839290620001e590849062000305565b90915550506040518181526001600160a01b038316906000907fddf252ad1be2c89b69c2b068fc378daa952ba7f163c4a11628f55a4df523b3ef9060200160405180910390a35050565b8280546200023d906200032a565b90600052602060002090601f016020900481019282620002615760008555620002ac565b82601f106200027c57805160ff1916838001178555620002ac565b82800160010185558215620002ac579182015b82811115620002ac5782518255916020019190600101906200028f565b50620002ba929150620002be565b5090565b5b80821115620002ba5760008155600101620002bf565b600060208284031215620002e7578081fd5b81516001600160a01b0381168114620002fe578182fd5b9392505050565b600082198211156200032557634e487b7160e01b81526011600452602481fd5b500190565b600181811c908216806200033f57607f821691505b602082108114156200036157634e487b7160e01b600052602260045260246000fd5b50919050565b611c1880620003776000396000f3fe608060405234801561001057600080fd5b50600436106101e55760003560e01c806379cc67901161010f578063b32c5c45116100a2578063dd62ed3e11610071578063dd62ed3e14610454578063e3c998fe1461048d578063f23a6e61146104b6578063f2fde38b146104d657600080fd5b8063b32c5c45146103e3578063bc197c81146103fe578063c0b3393514610439578063d1058e591461044c57600080fd5b8063a33e27db116100de578063a33e27db1461038a578063a457c2d71461039d578063a9059cbb146103b0578063b0a1c683146103c357600080fd5b806379cc6790146103365780638da5cb5b14610349578063957aa58c1461036e57806395d89b411461038257600080fd5b806335322f371161018757806342966c681161015657806342966c68146102c95780634da6a556146102dc57806370a0823114610305578063715018a61461032e57600080fd5b806335322f3714610291578063362a3fad1461029b57806339509351146102ae57806340a3d246146102c157600080fd5b806318160ddd116101c357806318160ddd1461024b57806323b872dd1461025d578063313ce5671461027057806332cb6b0c1461027f57600080fd5b806301ffc9a7146101ea57806306fdde0314610223578063095ea7b314610238575b600080fd5b61020e6101f8366004611a1a565b6001600160e01b031916636cdb3d1360e11b1490565b60405190151581526020015b60405180910390f35b61022b6104e9565b60405161021a9190611a9e565b61020e6102463660046119b1565b61057b565b6002545b60405190815260200161021a565b61020e61026b366004611900565b610591565b6040516012815260200161021a565b61024f6aa56fa5b99019a5c800000081565b610299610640565b005b61024f6102a93660046117f6565b61082e565b61020e6102bc3660046119b1565b6108fa565b610299610936565b6102996102d7366004611a42565b6109b1565b61024f6102ea3660046117f6565b6001600160a01b031660009081526008602052604090205490565b61024f6103133660046117f6565b6001600160a01b031660009081526020819052604090205490565b6102996109be565b6102996103443660046119b1565b610a24565b6005546001600160a01b03165b6040516001600160a01b03909116815260200161021a565b60055461020e90600160a01b900460ff1681565b61022b610aaa565b6102996103983660046119da565b610ab9565b61020e6103ab3660046119b1565b610c72565b61020e6103be3660046119b1565b610d0b565b6103d66103d13660046117f6565b610d18565b60405161021a9190611a5a565b6103567301cb52008400316898535ef77d2844746fdd90e581565b61042061040c366004611849565b63bc197c8160e01b98975050505050505050565b6040516001600160e01b0319909116815260200161021a565b6102996104473660046119da565b610d84565b610299610ee0565b61024f610462366004611817565b6001600160a01b03918216600090815260016020908152604080832093909416825291909152205490565b61035661049b366004611a42565b6000908152600760205260409020546001600160a01b031690565b6104206104c436600461193b565b63f23a6e6160e01b9695505050505050565b6102996104e43660046117f6565b610fe0565b6060600380546104f890611b76565b80601f016020809104026020016040519081016040528092919081815260200182805461052490611b76565b80156105715780601f1061054657610100808354040283529160200191610571565b820191906000526020600020905b81548152906001019060200180831161055457829003601f168201915b5050505050905090565b60006105883384846110a8565b50600192915050565b600061059e8484846111cc565b6001600160a01b0384166000908152600160209081526040808320338452909152902054828110156106285760405162461bcd60e51b815260206004820152602860248201527f45524332303a207472616e7366657220616d6f756e74206578636565647320616044820152676c6c6f77616e636560c01b60648201526084015b60405180910390fd5b61063585338584036110a8565b506001949350505050565b336000908152600860205260408120541161068b5760405162461bcd60e51b815260206004820152600b60248201526a1393d39157d4d51052d15160aa1b604482015260640161061f565b336000908152600860205260408120545b80156107f0573360009081526008602052604081206106bc600184611b48565b815481106106da57634e487b7160e01b600052603260045260246000fd5b6000918252602082200154600954604051637921219560e11b8152306004820152336024820152604481018390526001606482015260a0608482015260a48101939093529092506001600160a01b03169063f242432a9060c401600060405180830381600087803b15801561074e57600080fd5b505af1158015610762573d6000803e3d6000fd5b5050505061076f8161139a565b6107799084611af1565b336000908152600860205260409020805491945090806107a957634e487b7160e01b600052603160045260246000fd5b60008281526020808220830160001990810183905590920190925591815260079091526040902080546001600160a01b0319169055806107e881611b5f565b91505061069c565b5060006107fc60025490565b610811906aa56fa5b99019a5c8000000611b48565b905061082a3382841161082457836113da565b826113da565b5050565b6001600160a01b038116600090815260086020908152604080832080548251818502810185019093528083528493849392919083018282801561089057602002820191906000526020600020905b81548152602001906001019080831161087c575b5050505050905060005b81518110156108f1576108d38282815181106108c657634e487b7160e01b600052603260045260246000fd5b602002602001015161139a565b6108dd9084611af1565b9250806108e981611bb1565b91505061089a565b50909392505050565b3360008181526001602090815260408083206001600160a01b03871684529091528120549091610588918590610931908690611af1565b6110a8565b6005546001600160a01b031633146109905760405162461bcd60e51b815260206004820181905260248201527f4f776e61626c653a2063616c6c6572206973206e6f7420746865206f776e6572604482015260640161061f565b6005805460ff60a01b198116600160a01b9182900460ff1615909102179055565b6109bb33826114b9565b50565b6005546001600160a01b03163314610a185760405162461bcd60e51b815260206004820181905260248201527f4f776e61626c653a2063616c6c6572206973206e6f7420746865206f776e6572604482015260640161061f565b610a226000611607565b565b6000610a308333610462565b905081811015610a8e5760405162461bcd60e51b8152602060048201526024808201527f45524332303a206275726e20616d6f756e74206578636565647320616c6c6f77604482015263616e636560e01b606482015260840161061f565b610a9b83338484036110a8565b610aa583836114b9565b505050565b6060600480546104f890611b76565b6000805b82811015610c38576000848483818110610ae757634e487b7160e01b600052603260045260246000fd5b6020908102929092013560008181526007909352604090922054919250506001600160a01b03163314610b5c5760405162461bcd60e51b815260206004820152601160248201527f4e454544535f544f5f42455f4f574e4552000000000000000000000000000000604482015260640161061f565b600954604051637921219560e11b8152306004820152336024820152604481018390526001606482015260a06084820152600060a48201526001600160a01b039091169063f242432a9060c401600060405180830381600087803b158015610bc357600080fd5b505af1158015610bd7573d6000803e3d6000fd5b50505050610be48161139a565b610bee9084611af1565b336000908152600860205260409020909350610c0a9082611659565b600090815260076020526040902080546001600160a01b031916905580610c3081611bb1565b915050610abd565b506000610c4460025490565b610c59906aa56fa5b99019a5c8000000611b48565b9050610c6c3382841161082457836113da565b50505050565b3360009081526001602090815260408083206001600160a01b038616845290915281205482811015610cf45760405162461bcd60e51b815260206004820152602560248201527f45524332303a2064656372656173656420616c6c6f77616e63652062656c6f77604482015264207a65726f60d81b606482015260840161061f565b610d0133858584036110a8565b5060019392505050565b60006105883384846111cc565b6001600160a01b038116600090815260086020908152604091829020805483518184028101840190945280845260609392830182828015610d7857602002820191906000526020600020905b815481526020019060010190808311610d64575b50505050509050919050565b600554600160a01b900460ff16610dc85760405162461bcd60e51b81526020600482015260086024820152674e4f545f4c49564560c01b604482015260640161061f565b60005b81811015610aa5576000838383818110610df557634e487b7160e01b600052603260045260246000fd5b600954604051637921219560e11b81523360048201523060248201526020929092029390930135604482018190526001606483015260a06084830152600060a483015293506001600160a01b039092169163f242432a915060c401600060405180830381600087803b158015610e6a57600080fd5b505af1158015610e7e573d6000803e3d6000fd5b505033600081815260086020908152604080832080546001810182559084528284200187905595825260068152858220429055600790529390932080546001600160a01b03191690931790925550819050610ed881611bb1565b915050610dcb565b33600090815260086020908152604080832080548251818502810185019093528083528493830182828015610f3457602002820191906000526020600020905b815481526020019060010190808311610f20575b5050505050905060005b8151811015610fac576000828281518110610f6957634e487b7160e01b600052603260045260246000fd5b60200260200101519050610f7c8161139a565b610f869085611af1565b600091825260066020526040909120429055925080610fa481611bb1565b915050610f3e565b506000610fb860025490565b610fcd906aa56fa5b99019a5c8000000611b48565b9050610aa53382851161082457846113da565b6005546001600160a01b0316331461103a5760405162461bcd60e51b815260206004820181905260248201527f4f776e61626c653a2063616c6c6572206973206e6f7420746865206f776e6572604482015260640161061f565b6001600160a01b03811661109f5760405162461bcd60e51b815260206004820152602660248201527f4f776e61626c653a206e6577206f776e657220697320746865207a65726f206160448201526564647265737360d01b606482015260840161061f565b6109bb81611607565b6001600160a01b03831661110a5760405162461bcd60e51b8152602060048201526024808201527f45524332303a20617070726f76652066726f6d20746865207a65726f206164646044820152637265737360e01b606482015260840161061f565b6001600160a01b03821661116b5760405162461bcd60e51b815260206004820152602260248201527f45524332303a20617070726f766520746f20746865207a65726f206164647265604482015261737360f01b606482015260840161061f565b6001600160a01b0383811660008181526001602090815260408083209487168084529482529182902085905590518481527f8c5be1e5ebec7d5bd14f71427d1e84f3dd0314c0f7b2291e5b200ac8c7c3b925910160405180910390a3505050565b6001600160a01b0383166112305760405162461bcd60e51b815260206004820152602560248201527f45524332303a207472616e736665722066726f6d20746865207a65726f206164604482015264647265737360d81b606482015260840161061f565b6001600160a01b0382166112925760405162461bcd60e51b815260206004820152602360248201527f45524332303a207472616e7366657220746f20746865207a65726f206164647260448201526265737360e81b606482015260840161061f565b6001600160a01b0383166000908152602081905260409020548181101561130a5760405162461bcd60e51b815260206004820152602660248201527f45524332303a207472616e7366657220616d6f756e7420657863656564732062604482015265616c616e636560d01b606482015260840161061f565b6001600160a01b03808516600090815260208190526040808220858503905591851681529081208054849290611341908490611af1565b92505081905550826001600160a01b0316846001600160a01b03167fddf252ad1be2c89b69c2b068fc378daa952ba7f163c4a11628f55a4df523b3ef8460405161138d91815260200190565b60405180910390a3610c6c565b60008181526006602052604081205462015180906113b89042611b48565b6113c29190611b09565b6113d490670de0b6b3a7640000611b29565b92915050565b6001600160a01b0382166114305760405162461bcd60e51b815260206004820152601f60248201527f45524332303a206d696e7420746f20746865207a65726f206164647265737300604482015260640161061f565b80600260008282546114429190611af1565b90915550506001600160a01b0382166000908152602081905260408120805483929061146f908490611af1565b90915550506040518181526001600160a01b038316906000907fddf252ad1be2c89b69c2b068fc378daa952ba7f163c4a11628f55a4df523b3ef9060200160405180910390a35050565b6001600160a01b0382166115195760405162461bcd60e51b815260206004820152602160248201527f45524332303a206275726e2066726f6d20746865207a65726f206164647265736044820152607360f81b606482015260840161061f565b6001600160a01b0382166000908152602081905260409020548181101561158d5760405162461bcd60e51b815260206004820152602260248201527f45524332303a206275726e20616d6f756e7420657863656564732062616c616e604482015261636560f01b606482015260840161061f565b6001600160a01b03831660009081526020819052604081208383039055600280548492906115bc908490611b48565b90915550506040518281526000906001600160a01b038516907fddf252ad1be2c89b69c2b068fc378daa952ba7f163c4a11628f55a4df523b3ef9060200160405180910390a3505050565b600580546001600160a01b038381166001600160a01b0319831681179093556040519116919082907f8be0079c531659141344cd1fd0a4f28419497f9722a3daafe3b4186f6b6457e090600090a35050565b815460005b81811015610c6c578284828154811061168757634e487b7160e01b600052603260045260246000fd5b9060005260206000200154141561173e57816116a281611b5f565b92505081811015611705578382815481106116cd57634e487b7160e01b600052603260045260246000fd5b90600052602060002001548482815481106116f857634e487b7160e01b600052603260045260246000fd5b6000918252602090912001555b8380548061172357634e487b7160e01b600052603160045260246000fd5b60019003818190600052602060002001600090559055610c6c565b8061174881611bb1565b91505061165e565b80356001600160a01b038116811461176757600080fd5b919050565b60008083601f84011261177d578182fd5b50813567ffffffffffffffff811115611794578182fd5b6020830191508360208260051b85010111156117af57600080fd5b9250929050565b60008083601f8401126117c7578182fd5b50813567ffffffffffffffff8111156117de578182fd5b6020830191508360208285010111156117af57600080fd5b600060208284031215611807578081fd5b61181082611750565b9392505050565b60008060408385031215611829578081fd5b61183283611750565b915061184060208401611750565b90509250929050565b60008060008060008060008060a0898b031215611864578384fd5b61186d89611750565b975061187b60208a01611750565b9650604089013567ffffffffffffffff80821115611897578586fd5b6118a38c838d0161176c565b909850965060608b01359150808211156118bb578586fd5b6118c78c838d0161176c565b909650945060808b01359150808211156118df578384fd5b506118ec8b828c016117b6565b999c989b5096995094979396929594505050565b600080600060608486031215611914578283fd5b61191d84611750565b925061192b60208501611750565b9150604084013590509250925092565b60008060008060008060a08789031215611953578182fd5b61195c87611750565b955061196a60208801611750565b94506040870135935060608701359250608087013567ffffffffffffffff811115611993578283fd5b61199f89828a016117b6565b979a9699509497509295939492505050565b600080604083850312156119c3578182fd5b6119cc83611750565b946020939093013593505050565b600080602083850312156119ec578182fd5b823567ffffffffffffffff811115611a02578283fd5b611a0e8582860161176c565b90969095509350505050565b600060208284031215611a2b578081fd5b81356001600160e01b031981168114611810578182fd5b600060208284031215611a53578081fd5b5035919050565b6020808252825182820181905260009190848201906040850190845b81811015611a9257835183529284019291840191600101611a76565b50909695505050505050565b6000602080835283518082850152825b81811015611aca57858101830151858201604001528201611aae565b81811115611adb5783604083870101525b50601f01601f1916929092016040019392505050565b60008219821115611b0457611b04611bcc565b500190565b600082611b2457634e487b7160e01b81526012600452602481fd5b500490565b6000816000190483118215151615611b4357611b43611bcc565b500290565b600082821015611b5a57611b5a611bcc565b500390565b600081611b6e57611b6e611bcc565b506000190190565b600181811c90821680611b8a57607f821691505b60208210811415611bab57634e487b7160e01b600052602260045260246000fd5b50919050565b6000600019821415611bc557611bc5611bcc565b5060010190565b634e487b7160e01b600052601160045260246000fdfea2646970667358221220cd9cdf719dc4eabd2b2c91685e11907f4dbfb597d550c3f903a5f1efeb3d37bd64736f6c63430008040033",
  "devdoc": {
    "kind": "dev",
    "methods": {
      "allowance(address,address)": {
        "details": "See {IERC20-allowance}."
      },
      "approve(address,uint256)": {
        "details": "See {IERC20-approve}. Requirements: - `spender` cannot be the zero address."
      },
      "balanceOf(address)": {
        "details": "See {IERC20-balanceOf}."
      },
      "burn(uint256)": {
        "details": "Destroys `amount` tokens from the caller. See {ERC20-_burn}."
      },
      "burnFrom(address,uint256)": {
        "details": "Destroys `amount` tokens from `account`, deducting from the caller's allowance. See {ERC20-_burn} and {ERC20-allowance}. Requirements: - the caller must have allowance for ``accounts``'s tokens of at least `amount`."
      },
      "decimals()": {
        "details": "Returns the number of decimals used to get its user representation. For example, if `decimals` equals `2`, a balance of `505` tokens should be displayed to a user as `5.05` (`505 / 10 ** 2`). Tokens usually opt for a value of 18, imitating the relationship between Ether and Wei. This is the value {ERC20} uses, unless this function is overridden; NOTE: This information is only used for _display_ purposes: it in no way affects any of the arithmetic of the contract, including {IERC20-balanceOf} and {IERC20-transfer}."
      },
      "decreaseAllowance(address,uint256)": {
        "details": "Atomically decreases the allowance granted to `spender` by the caller. This is an alternative to {approve} that can be used as a mitigation for problems described in {IERC20-approve}. Emits an {Approval} event indicating the updated allowance. Requirements: - `spender` cannot be the zero address. - `spender` must have allowance for the caller of at least `subtractedValue`."
      },
      "increaseAllowance(address,uint256)": {
        "details": "Atomically increases the allowance granted to `spender` by the caller. This is an alternative to {approve} that can be used as a mitigation for problems described in {IERC20-approve}. Emits an {Approval} event indicating the updated allowance. Requirements: - `spender` cannot be the zero address."
      },
      "name()": {
        "details": "Returns the name of the token."
      },
      "owner()": {
        "details": "Returns the address of the current owner."
      },
      "renounceOwnership()": {
        "details": "Leaves the contract without owner. It will not be possible to call `onlyOwner` functions anymore. Can only be called by the current owner. NOTE: Renouncing ownership will leave the contract without an owner, thereby removing any functionality that is only available to the owner."
      },
      "supportsInterface(bytes4)": {
        "details": "Returns true if this contract implements the interface defined by `interfaceId`. See the corresponding https://eips.ethereum.org/EIPS/eip-165#how-interfaces-are-identified[EIP section] to learn more about how these ids are created. This function call must use less than 30 000 gas."
      },
      "symbol()": {
        "details": "Returns the symbol of the token, usually a shorter version of the name."
      },
      "totalSupply()": {
        "details": "See {IERC20-totalSupply}."
      },
      "transfer(address,uint256)": {
        "details": "See {IERC20-transfer}. Requirements: - `recipient` cannot be the zero address. - the caller must have a balance of at least `amount`."
      },
      "transferFrom(address,address,uint256)": {
        "details": "See {IERC20-transferFrom}. Emits an {Approval} event indicating the updated allowance. This is not required by the EIP. See the note at the beginning of {ERC20}. Requirements: - `sender` and `recipient` cannot be the zero address. - `sender` must have a balance of at least `amount`. - the caller must have allowance for ``sender``'s tokens of at least `amount`."
      },
      "transferOwnership(address)": {
        "details": "Transfers ownership of the contract to a new account (`newOwner`). Can only be called by the current owner."
      }
    },
    "version": 1
  },
  "userdoc": {
    "kind": "user",
    "methods": {},
    "version": 1
  },
  "storageLayout": {
    "storage": [
      {
        "astId": 1434,
        "contract": "contracts/stake.sol:Skrll",
        "label": "_balances",
        "offset": 0,
        "slot": "0",
        "type": "t_mapping(t_address,t_uint256)"
      },
      {
        "astId": 1440,
        "contract": "contracts/stake.sol:Skrll",
        "label": "_allowances",
        "offset": 0,
        "slot": "1",
        "type": "t_mapping(t_address,t_mapping(t_address,t_uint256))"
      },
      {
        "astId": 1442,
        "contract": "contracts/stake.sol:Skrll",
        "label": "_totalSupply",
        "offset": 0,
        "slot": "2",
        "type": "t_uint256"
      },
      {
        "astId": 1444,
        "contract": "contracts/stake.sol:Skrll",
        "label": "_name",
        "offset": 0,
        "slot": "3",
        "type": "t_string_storage"
      },
      {
        "astId": 1446,
        "contract": "contracts/stake.sol:Skrll",
        "label": "_symbol",
        "offset": 0,
        "slot": "4",
        "type": "t_string_storage"
      },
      {
        "astId": 7,
        "contract": "contracts/stake.sol:Skrll",
        "label": "_owner",
        "offset": 0,
        "slot": "5",
        "type": "t_address"
      },
      {
        "astId": 3628,
        "contract": "contracts/stake.sol:Skrll",
        "label": "live",
        "offset": 20,
        "slot": "5",
        "type": "t_bool"
      },
      {
        "astId": 3632,
        "contract": "contracts/stake.sol:Skrll",
        "label": "NFTTimeStaked",
        "offset": 0,
        "slot": "6",
        "type": "t_mapping(t_uint256,t_uint256)"
      },
      {
        "astId": 3636,
        "contract": "contracts/stake.sol:Skrll",
        "label": "NFTStaker",
        "offset": 0,
        "slot": "7",
        "type": "t_mapping(t_uint256,t_address)"
      },
      {
        "astId": 3641,
        "contract": "contracts/stake.sol:Skrll",
        "label": "stakerToNFT",
        "offset": 0,
        "slot": "8",
        "type": "t_mapping(t_address,t_array(t_uint256)dyn_storage)"
      },
      {
        "astId": 3644,
        "contract": "contracts/stake.sol:Skrll",
        "label": "_NFTContract",
        "offset": 0,
        "slot": "9",
        "type": "t_contract(IERC1155)1362"
      }
    ],
    "types": {
      "t_address": {
        "encoding": "inplace",
        "label": "address",
        "numberOfBytes": "20"
      },
      "t_array(t_uint256)dyn_storage": {
        "base": "t_uint256",
        "encoding": "dynamic_array",
        "label": "uint256[]",
        "numberOfBytes": "32"
      },
      "t_bool": {
        "encoding": "inplace",
        "label": "bool",
        "numberOfBytes": "1"
      },
      "t_contract(IERC1155)1362": {
        "encoding": "inplace",
        "label": "contract IERC1155",
        "numberOfBytes": "20"
      },
      "t_mapping(t_address,t_array(t_uint256)dyn_storage)": {
        "encoding": "mapping",
        "key": "t_address",
        "label": "mapping(address => uint256[])",
        "numberOfBytes": "32",
        "value": "t_array(t_uint256)dyn_storage"
      },
      "t_mapping(t_address,t_mapping(t_address,t_uint256))": {
        "encoding": "mapping",
        "key": "t_address",
        "label": "mapping(address => mapping(address => uint256))",
        "numberOfBytes": "32",
        "value": "t_mapping(t_address,t_uint256)"
      },
      "t_mapping(t_address,t_uint256)": {
        "encoding": "mapping",
        "key": "t_address",
        "label": "mapping(address => uint256)",
        "numberOfBytes": "32",
        "value": "t_uint256"
      },
      "t_mapping(t_uint256,t_address)": {
        "encoding": "mapping",
        "key": "t_uint256",
        "label": "mapping(uint256 => address)",
        "numberOfBytes": "32",
        "value": "t_address"
      },
      "t_mapping(t_uint256,t_uint256)": {
        "encoding": "mapping",
        "key": "t_uint256",
        "label": "mapping(uint256 => uint256)",
        "numberOfBytes": "32",
        "value": "t_uint256"
      },
      "t_string_storage": {
        "encoding": "bytes",
        "label": "string",
        "numberOfBytes": "32"
      },
      "t_uint256": {
        "encoding": "inplace",
        "label": "uint256",
        "numberOfBytes": "32"
      }
    }
  }
}